:020000021000EC
:1090000000600020499201000192010003920100DA
:109010000592010007920100099201000000000082
:109020000000000000000000000000000B920100A2
:109030000D920100000000000F920100119201004A
:1090400001AF0100139201001DB101001392010054
:109050001392010000000000D1AF01001392010043
:109060001392010013920100139201001392010068
:109070001392010013920100139201001392010058
:1090800013920100BDB80100139201001392010078
:10909000139201001392010059D6010013920100AE
:1090A0001392010013920100000000000000000074
:1090B0001392010013920100000000000000000064
:1090C00000000000000000000000000000000000A0
:1090D0000000000000000000000000000000000090
:1090E0000000000000000000000000000000000080
:1090F0000000000000000000000000000000000070
:10910000000000000000000000000000000000005F
:10911000000000000000000000000000000000004F
:10912000000000000000000000000000000000003F
:10913000000000000000000000000000000000002F
:10914000000000000000000000000000000000001F
:10915000000000000000000000000000000000000F
:1091600000000000000000000000000000000000FF
:1091700000000000000000000000000000000000EF
:1091800000000000000000000000000000000000DF
:1091900000000000000000000000000000000000CF
:1091A00000000000000000000000000000000000BF
:1091B00000000000000000000000000000000000AF
:1091C000000000000000000000000000000000009F
:1091D000000000000000000000000000000000008F
:1091E000000000000000000000000000000000007F
:1091F000000000000000000000000000000000006F
:10920000FEE7FEE7FEE7FEE7FEE7FEE7FEE7FEE736
:10921000FEE7FEE709480068094909680A280AD1FB
:10922000002908D1074802686FF070031A404FF018
:1092300040031A43026000F009B80000300100103A
:1092400034010010E40E0040FFF7E4BF0B484FF07C
:109250000701884385460A48804700F019B8094845
:1092600009490A4A884207D0521A05D003780130CA
:109270000B700131013AF9D1704700000060002005
:10928000719E010020E30100E01A0020F41A002082
:10929000354936480A1A02D0072291438D4634498F
:1092A00034480A1A06D00722914381F30988022222
:1092B00082F3148830483149314A00F044F831488B
:1092C0003149324A00F03FF831483249324A00F021
:1092D0003AF832483249334A00F035F832483349D7
:1092E000334A00F030F833483349344A00F02BF861
:1092F00033483449344A00F026F8344834490022CF
:1093000000F02CF833483449002200F027F83348A5
:109310003349091A082902DB002202604160314A00
:1093200090471F481F49884205D00268043003B4A3
:10933000904703BCF7E700208646EC46002000215A
:10934000294A9047FEE7884207D0521A05D0037891
:1093500001300B700131013AF9D17047884202D0D7
:1093600002700130FAE770470060002000580020CA
:10937000006000200060002024F40100F41A0020A6
:10938000941B0020EC930100EC93010014E2010017
:1093900024F40100F41A0020F41A002034E3010040
:1093A00034E3010034E3010034E3010034E301005D
:1093B00034E3010034E3010034E3010023F401004D
:1093C000C4F40100941B0020941B0020941B002077
:1093D00028270020282700202827002028270020D1
:0C93E000282F00205F9201003D98010042
:1093EC00A8DF704762DF70470288502A10B40CD196
:1093FC00C4884A88944208D1028A012A05D14B6953
:10940C001BB1827C10BC8088184710BC70470000D0
:10941C00F0B50B6843618FB0224B02AA044603F1EE
:10942C001007164618685968154603C50833BB4221
:10943C002A46F7D104F112013046FFF7D3FF70BB77
:10944C00A37C8DF80630224641F2235301A901205A
:10945C00ADF80430FFF7C4FF08BB0146202206A874
:10946C0004F051FB41F22553ADF81830A37C8DF874
:10947C001A304FF0011307939DF82530224623F044
:10948C000A0343F00A038DF8253032F8020B01234E
:10949C0006A98DF829308DF82A3001F06CFA0FB03E
:1094AC00F0BD00BF34E3010072DF704773DF70471B
:1094BC0076DF70477ADF70477CDF70477FDF70475D
:1094CC008FDF7047B1DF704701F028BE08B5074841
:1094DC00074B0849C01AC008000440F0030003F011
:1094EC0043FDBDE8084000F01DBB00BFB8E2010021
:1094FC0090E2010044E30100014803F08FBF00BF7C
:10950C0050E3010008B5064B01211878FFF7CEFF98
:10951C0008B101F003FEBDE80840002000F046BC95
:10952C00041B00200388212B37B5054665D012D8C3
:10953C00112B42D0132B56D0102B17D0434B444831
:10954C004449C01AC008000440F0030003B0BDE851
:10955C00304003F009BD522B5DD0562B01D03B2B74
:10956C00ECD1A8881321FFF7A3FF43E0374B384C0D
:10957C003949E41AE408240444F00304204603F0B7
:10958C00F3FC364BA9883648198001F079FB08B1F9
:10959C0001F0C4FD334AD5F80930C2F80130B5F8F2
:1095AC000D30A2F8053030490132204603F0E0FCC2
:1095BC002E4B01221A7003B030BD244B24482C4989
:1095CC00C01AC008000440F0030003F0CDFC234B8C
:1095DC004FF6FF721A80254B00221A7003B0BDE8BB
:1095EC003040FFF78FBF1D48002300881A468521A5
:1095FC00FFF764FF0028DED022E0002380888DF87E
:10960C00043001A98DF80530FFF75AFF0028D2D09D
:10961C0001F084FDCFE71148002319461A46008853
:10962C00FFF750FF0A4B1349044608481B1ADB0886
:10963C001B0443F0030003F097FC002CBBD0204626
:10964C0003B0BDE8304001F069BD00BF90E20100FD
:10965C00B8E20100A3E301005AE30100061B00205D
:10966C00FC1B0020081C002064E30100941B00205C
:10967C007DE301008AE3010008B503784BB9054B83
:10968C003B211888FFF714FF18B1BDE8084001F022
:10969C0045BD08BD061B002038B5054D044645F0F8
:1096AC0001054FF47A40A847013CFAD138BD00BF00
:1096BC0050E4010001F032BD4FF0A0434FF40042E2
:1096CC00C3F80C2520220648C3F80C25054B064987
:1096DC00C01AC008000440F0030003F045BC00BFF2
:1096EC00B8E2010090E20100AEE30100FFF7E4BF35
:1096FC002DE9F0410A204FF0A045FFF7CDFF0323E1
:10970C00C5F83C37114CC5F81437114BE41AE40872
:10971C00240444F003040A264FF4004820270D4982
:10972C00C5F808852046C5F8087503F01DFC78209F
:10973C00FFF7B2FFC5F80C853220C5F80C75FFF7A2
:10974C00ABFF013EEAD1BDE8F08100BFB8E20100F9
:10975C0090E20100BEE301000E4B0F480F4970B5BB
:10976C00C01A03244FF0A045E0400004C5F814478C
:10977C00204303F0F9FB2026C820C5F80865FFF745
:10978C008BFFC5F80C65C820FFF786FF013CF3D1B1
:10979C0070BD00BF90E20100B8E20100CDE3010012
:1097AC0010B500F0A9FA1B4C1B4BE41A1B4BE40838
:1097BC0059791A79240442EA012244F00304997974
:1097CC00D0B1186842EA014100F0B8FA38B120462D
:1097DC00134903F0C9FBBDE81040FFF789BF2046D1
:1097EC00104903F0C1FB104B13211888FFF760FEE2
:1097FC00BDE81040FFF7B0BF42EA014200F07F41E4
:10980C001143186800F0ECF920460849BDE81040F7
:10981C0003F0AABBB8E2010090E20100081C002092
:10982C00E4E30100F6E30100061B00200CE4010058
:10983C0000B54FF48041A7B0002003F0F7F908B150
:10984C0001F06CFC03F032F901F048FD08B101F0B5
:10985C0065FC704A7048002101F072FD08B101F0FE
:10986C005DFC6E4A6E48002101F06AFD08B101F002
:10987C0055FC02F07BFF08B101F050FC03F04EFEEA
:10988C0008B101F04BFC002317A90120179303F03A
:10989C0011FF08B101F042FC17A803F0AFFF08B1AB
:1098AC0001F03CFC11235F498DF820300A2208A8F6
:1098BC00FFF702FE08B101F031FC0023ADF8603077
:1098CC005023ADF85C30A023ADF85E3017A84FF4F0
:1098DC00C873ADF86230FFF7EDFD08B101F01EFC66
:1098EC005148002101F0EFF808B101F017FC0023FA
:1098FC0008934E484E4B179317A901F0AFF908B1D6
:10990C0001F00CFC4B4B4C48089308A9FFF780FD69
:10991C0008B101F003FC41F22353ADF80430464B7F
:10992C00464C9B7C8DF806303C22002108A804F0A4
:10993C00EAF802238DF820303C2240F2016300212A
:10994C0017A8ADF8223004F0DEF822460123ADF85A
:10995C006C3052F8041B01AB08A81C9300F056FCA9
:10996C0008B101F0DBFB364AA16817A800F04EFCE9
:10997C0008B101F0D3FB1822002102A804F0C3F8AF
:10998C0001238DF81D308DF808302C492D484023CB
:10999C0002AA0493FFF788FD08B101F0BFFB142263
:1099AC00002117A804F0AFF84FF4A0334FF4A02215
:1099BC00CDE9182303238DF86830234B1C9317A88B
:1099CC00224B1D9300F0ECFE08B101F0A7FB00F058
:1099DC0089F81F4C1F4B2049204E214DE41AE408F6
:1099EC00240444F00304204603F0BEFAFFF764FE9F
:1099FC00FFF788FD33780BB1FFF7D2FE03F068F95F
:109A0C000028F7D102F0DCFE2946204603F0ACFA20
:109A1C00F0E700BFF99601005CE40100D994010065
:109A2C0058E4010023E40100D41B0020FC1B00209F
:109A3C00D594010005950100E41B0020F41A0020C8
:109A4C00001B0020041B002085960100C19601001C
:109A5C00B8E2010090E201002EE40100941B00200A
:109A6C0040E4010041DF7047436810B453B10E4825
:109A7C000E4B0F4910BCC01AC008000440F0030084
:109A8C0003F072BA0378022B0CD1084B064C026916
:109A9C000849E41AE4082404836844F0030010BC69
:109AAC0003F06FBA10BC7047B8E2010090E20100FD
:109ABC0060E40100A1E4010010B50446204602F068
:109ACC00F3FB00B910BD03F003F90028F6D103F045
:109ADC00A3FD10B1FFF7C6FFF0E720BF40BF20BFCA
:109AEC00ECE7000008B50A480A4B0B49C01AC0083D
:109AFC00000440F0030003F037FA0849084800223C
:109B0C0002F02CFA18B1BDE8084001F007BB08BD03
:109B1C00B8E2010090E20100D7E40100D4E80100B2
:109B2C00E01A002008B50C48002301224FF4103134
:109B3C0002F050FB08B101F0F1FA0748FFF7BCFF47
:109B4C00064B07480749C01AC0080004BDE8084086
:109B5C0040F0030003F008BAE01A002090E2010084
:109B6C00B8E20100EDE401007FB506AB03E90300A8
:109B7C000E4B0F489DF811200E49C01A9DF8163057
:109B8C0003939DF815300293C0089DF8143001938F
:109B9C0000049DF81330009340F003009DF8123040
:109BAC0003F005FA07B05DF804FB00BF90E201007A
:109BBC00B8E20100F8E4010082B00A68CDF8012097
:109BCC008A88ADF805200346BDF8041000989DF86E
:109BDC0006201860184699809A7102B070470000F0
:109BEC00F0B5214B214C224E224FE41AE40889B0E7
:109BFC00240402AD44F003040DF1090285E80300CE
:109C0C0020461D4903F0B4F995E80300FFF7ACFFBB
:109C1C00FFF788FF2046194906AC03F0A5F920464A
:109C2C000DF10901FFF7C8FF94E80300FFF79CFF53
:109C3C000DF109044FF4103514F8013B0593002382
:109C4C00009305AA04232946304602F029FA08B1EC
:109C5C0001F064FA304605F58075FFF72DFFBD4223
:109C6C00EAD109B0F0BD00BF90E20100B8E20100FA
:109C7C00E01A00200046020023E501003DE501004A
:109C8C002DE9FF41DFF85C80174F04460DF1090602
:109C9C004FF4103504230DEB03022946404605F51D
:109CAC00807502F08DF9019B06F8013BBD42F1D1A4
:109CBC000E480F4B0F491B1ADB081B0443F0030023
:109CCC0002AD03F051F995E80300FFF74DFF029840
:109CDC00AA88AB7920602046A280A37104B0BDE8AD
:109CEC00F08100BFE01A00200046020090E2010063
:109CFC00B8E2010055E5010013B56846FFF7C0FF57
:109D0C00002401231DF803200133FF2A18BF01246E
:109D1C00072BF7D1064B07480749C01AC0080004A7
:109D2C00224640F0030003F023F9204602B010BD98
:109D3C0090E20100B8E2010065E501007FB56D46D7
:109D4C0002AE85E803003046FFF79AFF124C134B26
:109D5C001349E41AE408240444F00304204603F0F5
:109D6C0003F996E80300FFF7FFFE20460D4903F0C8
:109D7C00FBF895E80300FFF7F7FE9DF801509DF8FE
:109D8C0009200949AB1A5D425D4120462A4603F081
:109D9C00EFF8284604B070BDB8E2010090E2010073
:109DAC0077E501008EE501009EE50100044B1A5C8D
:109DBC00012393404FF0A042C2F80C35704700BF0E
:109DCC00ACE50100BFF34F8F0549064BCA6802F49E
:109DDC00E0621343CB60BFF34F8F00BFFDE700BFC2
:109DEC0000ED00E00400FA054FF08053D3F8300189
:109DFC00421C04BF4FF0704393F8E00F831F58428E
:109E0C00584170474FF0704393F8E02F062A09D160
:109E1C00D3F8E83FC3F30313033B042B02D8024AE5
:109E2C00D05C704700207047BFE501004FF08053B5
:109E3C00D3F83001421C04BF4FF0704393F8E00F8D
:109E4C00062804D0A0F10A0358425841704701205B
:109E5C0070470000024AD2F80034002BFBD0704748
:109E6C0000E0014010B5FFF7BFFF40B14FF0805349
:109E7C009C4AD3F82433C3F30423C2F84035FFF7CC
:109E8C00C1FF10B1984B994A5A67FFF7CFFF48B101
:109E9C004FF080534FF08042D3F84432C3F3423337
:109EAC00C2F83C35FFF7AEFF30B1914AD2F8FC3026
:109EBC0023F08073C2F8FC30FFF7B8FF40B14FF0CD
:109ECC0080430022C3F80C21C3F81021C3F83825B5
:109EDC00FFF798FF20B14FF080430322C3F8A02571
:109EEC00FFF790FF60B1834B0522C3F810260122C7
:109EFC00C3F888260022C3F818263F22C3F814267C
:109F0C004FF08053D3F83021511C09BF4FF07043F0
:109F1C00D3F8343193F8E02FD3F8E83F08BFC3F3FC
:109F2C000313062A4ED1033B042B03D8724AD35C8D
:109F3C00002B49D04FF08052704BD2F80414C3F868
:109F4C002015D2F80814C3F82415D2F80C14C3F851
:109F5C002815D2F81014C3F82C15D2F81414C3F821
:109F6C003015D2F81814C3F83415D2F81C14C3F8F1
:109F7C004015D2F82014C3F84415D2F82414C3F8B1
:109F8C004815D2F82814C3F84C15D2F82C14C3F881
:109F9C005015D2F83014C3F85415D2F83414C3F851
:109FAC006015D2F83814C3F86415D2F83C14C3F811
:109FBC006815D2F84014C3F86C15D2F84424C3F8D1
:109FCC00702501E00A2AB5D0FFF70EFF48B14FF01B
:109FDC0080534FF08042D3F8583203F04F03C2F84D
:109FEC00E43EFFF723FF48B14FF08043D3F8002441
:109FFC00D20744BF6FF00102C3F800244FF0805326
:10A00C00D3F83021062A0ED1D3F83431033B042B7C
:10A01C0002D83B4AD35CBBB13A4AD2F83C3743F442
:10A02C008063C2F83C374FF08053D3F830210A2AB2
:10A03C000AD1D3F834313BB14FF08042D2F8E43E30
:10A04C0043F00F03C2F8E43E4FF08053D3F83021B5
:10A05C00062A0FD1D3F83431033B042B02D82A4AF9
:10A06C00D35C3BB14FF01023D3F808224FF0804360
:10A07C00C3F858254FF01021D1F80032002B03DB28
:10A08C00D1F80432002B17DA204901234FF01020AD
:10A09C00C1F804351524FFF7DDFEC0F80042FFF7C8
:10A0AC00D9FEC0F80442FFF7D5FE0023C1F80435F1
:10A0BC00FFF7D0FEFFF786FED1F80C32DB070DD58B
:10A0CC0012480123C0F804350024FFF7C3FEC1F881
:10A0DC000C42FFF7BFFEC0F80445E9E70C4B0D4AF4
:10A0EC001A6010BD0030014000C007400DF0ADBA41
:10A0FC0000ED00E000500040B0E5010000C0004061
:10A10C00B5E5010000100040BAE5010000E0014097
:10A11C00481B00200090D0036DDF704779DF70473B
:10A12C007DDF704764DF70472DE9F04F85B0002567
:10A13C000E9CBDF83CB0B4F800A0019107469046C7
:10A14C001E46A9463A884A450DDC45B12388013B99
:10A15C00A3EB0A039BB2FF2B3AD806F80A30002077
:10A16C0005B0BDE8F08F7A6852F829000390002200
:10A17C000DF10B0103A8FFF7D5FF0028F0D19DF8D6
:10A18C000B20424521D12288002D14BF0020022033
:10A19C0002EB0801014459451ADC3DB9013292B277
:10A1AC00019B2280B35422880132228022880DF137
:10A1BC000B01324403A8FFF7B5FF0028D0D121884A
:10A1CC009DF80B200A442280012509F10109B9E709
:10A1DC000C20C5E72DE9F341089FBDF824801546F6
:10A1EC00CDE90078022204461E46FFF79DFF50B9C8
:10A1FC003346102229462046CDE9087802B0BDE846
:10A20C00F041FFF791BF02B0BDE8F0812DE9F04FAE
:10A21C0000231788138090F82D3085B006460D4624
:10A22C0014465BB3082F01D80C2028E102A8FFF7D5
:10A23C0073FF002840F023812388DDF809100822E1
:10A24C00EA54238801339BB21B222380EA542388CF
:10A25C0001339BB2EA182380E950BDF80D3093808E
:10A26C0023889DF8082006339BB212F0FE0218BF1B
:10A27C0001222380EA54238801332380B378FBB175
:10A28C0023880433BB42CFD802A8FFF747FF00282E
:10A29C0040F0F58023880322EA54238801339BB2D3
:10A2AC0019222380EA542388BDF8082001339BB27D
:10A2BC00E9182380EA54120A4A7023880233238057
:10A2CC00F2789AB12388D91CB942ADD80221E9544D
:10A2DC00238801339BB201212380E95423880B444A
:10A2EC009BB22380EA5423880B4423807268AAB162
:10A2FC002388D91CB94297D8022192F90020E9543D
:10A30C00238801339BB20A212380E954238801332B
:10A31C009BB22380EA542388013323803389002B9A
:10A32C0040F0A180338A5BB1CDE900472B46072270
:10A33C00032106F11000FFF74DFF002840F09F802D
:10A34C00338B5BB1CDE900472B461522142106F166
:10A35C001800FFF73FFF002840F09180326A002A76
:10A36C0040F09080D6F82480B8F1000F30D0B8F8C7
:10A37C0004302188981C8A1C0244BA423FF654AF20
:10A38C00FE283FF651AF03336B54238801339BB245
:10A39C00FF222380EA54238801339BB22380B8F830
:10A3AC000020EA54E918120A4A702088023080B260
:10A3BC002080B8F804205AB1D8F8081000296BD0C6
:10A3CC00284403F077FB2388B8F804201344238037
:10A3DC0096F82C30002B40F09880307800284ED026
:10A3EC003388012B58D0228802F1020CBC453FF671
:10A3FC001BAF012805D17378023313449F42FFF43D
:10A40C0013AF023FBF1ABFB202A905EB0C00ADF8A7
:10A41C000870FFF785FE90BB3178BDF80830022933
:10A42C0000F0B98072789A4202D39F4280F0B180DA
:10A43C00012940F0B280974293B2C0F0AE80ADF8E3
:10A44C0008300821BDF80830FE2B3FF6EDAE22880F
:10A45C000133AB542288013292B22280A954228853
:10A46C00134423800BE0CDE900472B460622022142
:10A47C0006F10800FFF7AEFE00283FF453AF05B01D
:10A48C00BDE8F08FB4F800C00CF10603BB423FF6F8
:10A49C00CBAE1188052901D80720F0E76FF4486E80
:10A4AC0001EB0E039BB24FF27D3E7345F4D95388FA
:10A4BC00052BF1D96FF44860181880B27045EBD9B0
:10A4CC004FF6FF70814201D09942E5D8052305F87B
:10A4DC000C30238801339BB212212380E95423884A
:10A4EC0001339BB223801188E954E818090A4170A2
:10A4FC00238802339BB223805288EA54E918120A4B
:10A50C004A702388023323802CE7B36A002BC3D014
:10A51C004FF000084FF00C0A4FF0160BB16A5FFABF
:10A52C0088F20AFB02F201EB0209B9F80430981C1C
:10A53C00FE283FF679AE208803332B542388013351
:10A54C009BB2238005F803B0238801339BB2238090
:10A55C008A5AEA54E918120A4A702088023080B2EA
:10A56C002080B9F804205AB1D9F80810002993D0EA
:10A57C00284403F09FFA2388B9F80420134423805D
:10A58C0096F82C2008F101085FFA88F39A42C5D896
:10A59C0023E7092156E79F42FBD2ADF8087050E73C
:10A5AC0075DF704776DF70477ADF70477BDF704767
:10A5BC00034B1A8882420CBF18460020704700BF1C
:10A5CC002C1C0020024B9B6903B11847704700BF3D
:10A5DC00101C002073B585B22846FFF7E9FF04462E
:10A5EC0038B3174E027A337B9A420CD200F10A012F
:10A5FC002846FFF7D5FFF0B111281AD002B0BDE8FC
:10A60C007040FFF7DFBF00230372337C43B13B2163
:10A61C002846FFF7C7FF30F0080301D0FFF7D2FF41
:10A62C00736933B100228DF80420ADF8065001A8EF
:10A63C00984702B070BD237A01332372F9E700BF4B
:10A64C00101C002013B50B46497A02460E4871B90E
:10A65C00D0E901101C7A002C18BF0146586800F094
:10A66C0081FE78B102B0BDE81040FFF7ABBF00210E
:10A67C001972436933B101218DF80410ADF806202D
:10A68C0001A8984702B010BD101C00204B8802880E
:10A69C009A4212D842889A420FD380888B8840F213
:10A6AC00F311884294BF021A421A9A4205D8084400
:10A6BC00984234BF002001207047002070470000F2
:10A6CC000388122B70B5014659D004D8102B1ED01C
:10A6DC00112B44D070BD502BFCD12F4BC288DB8981
:10A6EC009A42F7D1038A022BF4D186883046FFF7C1
:10A6FC005FFF05460028EDD001F1120000F037F99C
:10A70C0038BB686800F05CFE0028E3D009E0C37B2E
:10A71C00012BDFD14FF6FF70FFF74AFF054620B93A
:10A72C000420BDE87040FFF74DBF1C4A8E880680A0
:10A73C00002303721368C0F80A305368C0F80E3057
:10A74C0010310A30FFF7A2FF134B6872DB89002B24
:10A75C00C0D129463046BDE87040FFF773BF8088F2
:10A76C00FFF726FF04460028B4D0406800F028FE0E
:10A77C0008B1FFF727FF4FF6FF732380AAE78688FF
:10A78C003046FFF715FF05460028A3D008310A30E4
:10A79C00FFF77CFF6872DCE7101C0020401C0020D7
:10A7AC00F8B5064648B305460FCD154F3C460FC4C9
:10A7BC0095E8070084E807003068124C3C60B0B1A3
:10A7CC00FFF7F2FEC0B93268136823605368636008
:10A7DC000D480E4A4FF6FF7303800D4B40F8043FB3
:10A7EC00002100F0ADFD002818BF032004E0204636
:10A7FC00FFF7DCFE0028EBD0F8BD0E20FCE700BF15
:10A80C00101C0020401C00202C1C0020E1A5010085
:10A81C00481C00200AB101F0FFB801F006B973B56D
:10A82C000191019C06466CB100252C46294601A8D5
:10A83C0001F005F918B106EB440301349D80013594
:10A84C00142DF3D13046346002B070BD2DE9F043C5
:10A85C0003888488103B8DB00A2B1ED8DFE803F0E8
:10A86C0006361D1D1D1D1D1D1D5B3D002E4FBB689D
:10A87C00DB4300937968684601F019F9009901A847
:10A88C00FFF7CDFF0DF108080026019B9E4207D370
:10A89C00132C12D9042000F041FC0DB0BDE8F0835C
:10A8AC0038F8029B00250135494607EB850001F07D
:10A8BC00BCF81E2DF7D10136E7E721461B4801F005
:10A8CC00ABF81B48214601F0A7F8E6E717482146EC
:10A8DC000DB0BDE8F04301F0A8B8027A15483F2A44
:10A8EC004FEA1215214694BF00220122FFF792FF76
:10A8FC00022D94BF002201220F482146FFF78AFF48
:10A90C00012D0E4894BF0022012221460DB0BDE856
:10A91C00F043FFF77FBF037A002BBED1427A054884
:10A92C00C2F3C0022146F1E7681C0020701C002015
:10A93C006C1C0020801C00207C1C0020781C00203B
:10A94C00AADF7047002301380B70042806D8DFE813
:10A95C0000F00306080A0C0011230B70704721232A
:10A96C00FBE73123F9E71223F7E72223F5E7008809
:10A97C0000F001007047F0B58B7891B00C46012BBC
:10A98C0038BF012300278DF80E3005460B88607CFC
:10A99C00ADF80C306946ADF800708DF80270FFF719
:10A9AC00D1FFA07C0DF10101FFF7CCFF1646237BF4
:10A9BC00E27B217D43EAC203227C43EA02139DF829
:10A9CC000220B94222F0190203F0190314BF02212C
:10A9DC000121134361F342031C22394609A88DF867
:10A9EC00023003F090F8637B13F0300F14D00DF1AC
:10A9FC000901E07CADF808708DF80A70FFF7A2FF32
:10AA0C0011238DF808309DF80A30012102AA61F358
:10AA1C0042038DF80A300E92637B8DF82430A37BB1
:10AA2C008DF825300023CDE90633089303AB04934E
:10AA3C00A388ADF81C30A368CDF814D01BB1E28804
:10AA4C00ADF818200893A36973B301A90022ADF8DF
:10AA5C0004208A701A88ADF82C205A88ADF82E2064
:10AA6C005A680D91187B0A92FFF76CFFA3690DF1E0
:10AA7C000501587BFFF766FFA3699A7A197A41EAB8
:10AA8C00C201DA7A9B7B41EA02119DF80620002B69
:10AA9C0001F0190122F0190214BF02230123114302
:10AAAC0063F342018DF80610E36903B10C9333464E
:10AABC0004AA09A92846FFF743FF11B0F0BDA5DF92
:10AACC007047B5DF704750B14FF0171303601B236D
:10AADC0003711723C160C3808360002070470E2070
:10AAEC007047000013B5034680880C4690B91A884D
:10AAFC003A2A67D010D8102A3DD0112A5ED0A37AFA
:10AB0C0043B1E1880020FFF7DAFF002875D14FF43C
:10AB1C008073638102B010BD552AF0D1DB88C988DF
:10AB2C00A072172B38BF17238B4228BF0B462381EB
:10AB3C00FFF7C7FF60B101F013FF394B39490246EB
:10AB4C0039481B1ADB081B0443F0010002F010FA11
:10AB5C00E27A002AD3D1E368002BD0D040F67721DB
:10AB6C00ADF802202289ADF80010ADF8042069463A
:10AB7C0020469847C3E7DB7B012B04BF0B88CB80B7
:10AB8C00C98823898B42BAD20020FFF798FF10B9ED
:10AB9C000123E372B3E7112802D10123A372AEE7BC
:10ABAC0001F0DEFE1E4B214902461F481B1ADB0832
:10ABBC001B0443F0010002F0DBF9A0E71723CB8064
:10ABCC008B609CE75B89CA88934228BF1346172B7E
:10ABDC00CA6838BF17230B8162B1C97A51B140F6EC
:10ABEC007721ADF80010ADF80200ADF804306946DD
:10ABFC00204690470023638181E711288AD001F019
:10AC0C00AFFE074B0949024607481B1ADB081B0419
:10AC1C0043F0010002B0BDE8104002F0A9B900BF3A
:10AC2C00D8E20100F5E5010090E20100C4E5010065
:10AC3C00B0DF704766DF704710B5002104464088CE
:10AC4C00FFF7F8FF034608B9237210BD112801D194
:10AC5C000123F9E76368BDE81040184760B159B1AA
:10AC6C000378DE2B0AD00B684360DE2303704FF6AB
:10AC7C00FF734380002070470E20704708207047F8
:10AC8C0028B10378DE2B04D14180002070470E20C0
:10AC9C00704708207047F0B5054685B00C46002972
:10ACAC0042D0002840D00B78DE2B3DD182884B88D7
:10ACBC009A4204D10B7A13B10846FFF7BDFF2B88DB
:10ACCC00112B33D0512B0FD0012B2DD12B7A012BE3
:10ACDC002AD1A9886288914226D12046237205B0D8
:10ACEC00BDE8F040FFF7A8BFAE886388B3421BD124
:10ACFC00AF79022F18D1AD7B2B1F022B14D800215A
:10AD0C001022684602F0FFFE052D18BF4FF4C073E9
:10AD1C006946304618BFADF804308DF80070FFF767
:10AD2C0087FF08B16368984705B0F0BD6388AA88AF
:10AD3C009A4204BF4FF6FF736380F5E738B5074CB2
:10AD4C00051E04F1080318BF1C4623682BB11A68B2
:10AD5C0022605B6828469847F7E738BDEC1C00205A
:10AD6C0020B9054B01225A70FFF7E8BF012802D128
:10AD7C00014A9070F8E77047E41C002020B9034B9F
:10AD8C0001225A70FFF7DABF704700BFE41C0020A5
:10AD9C0038B50E4C2378B3B90D486360A3602361BA
:10ADAC00E36000F075F8054602F036FC08B900F0D7
:10ADBC007DF801232370074BD3F800340BB101232A
:10ADCC00A370284638BD8525F5E700BFE41C00209C
:10ADDC006DAD01000000014037B50D4C00230DF1A5
:10ADEC0007008DF8073000F0F7FBE368013BE360E8
:10ADFC00E36833B9074BD3F8005415B900F068F881
:10AE0C00A5709DF8070000F00BFC03B030BD00BF2F
:10AE1C00E41C002000000140012813B50CD00328CD
:10AE2C0020D038B9134B0122C3F88020BFF34F8FC9
:10AE3C00BFF36F8F02B010BD0F4C00230DF1070054
:10AE4C008DF8073000F0C8FB23780BB9FFF7A0FF93
:10AE5C00E3689DF807000133E3600123A37000F061
:10AE6C00DFFBE7E700F022F802B0BDE81040FFF787
:10AE7C00B3BF00BF00E100E0E41C002000F1804003
:10AE8C00002382B0036003680193019B02B07047FA
:10AE9C00054B0246187920B91A60012298719A80E4
:10AEAC0070478520704700BFF81C0020074B1A68BC
:10AEBC00D20704D4C02283F8002301221A604FF079
:10AECC0080430022C3F81825704700BF00E100E062
:10AEDC004FF0804208B50223C2F808334FF4827059
:10AEEC00FFF7CCFF0123D360D2F81834DB03FBD47B
:10AEFC0008BD00004FF0804110B5D1F8003163B1AE
:10AF0C004FF48070FFF7BAFF1F4B58790122C1F83C
:10AF1C00082310B95A711B6898474FF08042D2F839
:10AF2C00043153B14FF48270FFF7A8FF0223C2F82B
:10AF3C000833154B01201B6898474FF08042D2F81C
:10AF4C00103153B14FF48870FFF798FF1023C2F8FB
:10AF5C0008330D4B02201B6898474FF08042D2F803
:10AF6C000C3183B100214FF48670C2F8341CFFF70A
:10AF7C0085FF0823C2F80833034B9971BDE81040D4
:10AF8C001B680320184710BDF81C002000F18040FE
:10AF9C0000F5C040002382B0036003680193019B5D
:10AFAC0002B07047800000F1A040D0F8002722F4D6
:10AFBC004032C0F80027D0F8003743EA0143C0F80C
:10AFCC00003770472DE9F74F00244E4D01944FF494
:10AFDC008072012102F1804303F5C04390B21B68DB
:10AFEC00012B06D1D5F804330B4202D0FFF7CEFF6C
:10AFFC000C430432B2F5907F4FEA4101EAD1414B48
:10B00C00D3F87C31012B0CD14FF4BE70FFF7BEFF8F
:10B01C004FF0A04344F00044D3F820250192C3F82C
:10B02C002025E3B2D3B1384F00250126344210D08D
:10B03C00AB0003F1804303F5C043D3F81005D3F8FC
:10B04C00101557F8253023B1C1F30141C0F304208A
:10B05C0098470135082D4FEA4606E7D1002C48DA0F
:10B06C00294D4FF0A048294E4FF00009012716F941
:10B07C00013B5A1C31D0C3F3C20208326A44DCB221
:10B08C0012F8042C03F03F0A03F0070307FA03F34A
:10B09C001A4222D00AF5E073504658F82330C3F315
:10B0AC00014BBBF1020F0CBF03210221FFF77AFF0A
:10B0BC0007FA0AF3C8F8203505EB0A0393F9303088
:10B0CC0055F823304BB1A109032904D0BBF1020F71
:10B0DC0012D1012901D15046984709F10109B9F162
:10B0EC00040FC4D1D8F820350193C8F82035002BB3
:10B0FC00B9D103B0BDE8F08FBBF1030FEDD102293C
:10B10C00E8E700BF00600040001D0020501D00203B
:10B11C00014B1B68184700BF5C1D00201FB50021A8
:10B12C00039001AA44F20100CDE9011100F004F8EA
:10B13C0005B05DF804FB000038B572B601F06CFF89
:10B14C0001F0C6FD0028FBD1104B114C114D1249DA
:10B15C00E41AE408240444F0010001F005FFD5F8DA
:10B16C00F030DB0700D500BE0C4944F0020001F0C2
:10B17C00FBFEBFF34F8FEA68094B02F4E062134306
:10B18C00EB60BFF34F8F00BFFDE700BF90E2010003
:10B19C00B8E2010000ED00E05EE601006AE60100A5
:10B1AC000400FA0510B5D0E90243D1E90202A0422D
:10B1BC0072EB03032CBF0120002010BD08B50A4818
:10B1CC0000F05FFB094AD2E90031C018084BD3E903
:10B1DC00002341F10001904271EB030303D210F103
:10B1EC00807041F1000108BD4C1B0020681D00203F
:10B1FC00E01D002037B505460C460A4801A900F0B1
:10B20C0096FB60B10570446001A9064800F0B9FBDB
:10B21C0018B1054800F03AFB002003B030BD042003
:10B22C00FBE700BFCC1D00204C1B0020294B73B545
:10B23C001E7804461EB90026304602B070BD0028A8
:10B24C00F9D0FFF7BBFFD4E902239042994139D3DF
:10B25C0000230DF107008DF8073000F0BDF92369CC
:10B26C002BB94FF0FF324FF0FF33C4E902239DF8A6
:10B27C00070000F0D5F9D4E90530984700250DF109
:10B28C0007008DF8075000F0A7F92369C3B1D4E982
:10B29C000212B2F1FF3F08BFB1F1FF3F05D05B18BE
:10B2AC0042F10002C4E9023235469DF8070000F075
:10B2BC00B7F9002DBFD00848214601F00CFBBBE7C5
:10B2CC001D46F2E7B3F1FF3F08BFB2F1FF3FB2D02A
:10B2DC00F1E700BF701D002088E6010013B5114B8B
:10B2EC0011491868019008231048582200F0EAFA16
:10B2FC00044698B90E4A0F4801A900F0B3F9044668
:10B30C0060B90C48012100F09FFA01230A4A094850
:10B31C00194600F001FA094B01221A70204602B0BE
:10B32C0010BD00BF82E60100741D0020CC1D002062
:10B33C0029B401004C1B0020FFFF7F00701D002072
:10B34C0030B56AB103684FF0FF344FF0FF355A61E6
:10B35C004A1E5142C3E9024551411961002030BDDA
:10B36C000720FCE7F7B5044600250DF1070017464A
:10B37C000E468DF8075000F02FF9D4E90223B3F1F3
:10B38C00FF3F08BFB2F1FF3F07D1FFF717FF30189F
:10B39C0041F10001C4E9020101259DF8070000F00C
:10B3AC003FF955B12369A76103B1266121460020FD
:10B3BC0003B0BDE8F040FFF71DBF284603B0F0BD59
:10B3CC0037B5054600240DF107008DF8074000F055
:10B3DC0003F9D5E90223B3F1FF3F08BFB2F1FF3FF8
:10B3EC0006D04FF0FF324FF0FF33C5E902230124A2
:10B3FC009DF8070000F014F934B12946012003B080
:10B40C00BDE83040FFF7F6BE204603B030BD00006B
:10B41C00014800F036BA00BF4C1B00202DE9F74361
:10B42C00064600F019FA40B1634AD2E9003113F133
:10B43C00807341F10001C2E900310021304600F077
:10B44C001AFA38B15D4C236823B12068FFF7EEFE81
:10B45C00002323600121304600F00DFA20B1FFF7E4
:10B46C00ADFE574BC3E900015648544F01A900F0FB
:10B47C0098FA4FF0FF344FF0FF35A0B9DFF8488150
:10B48C004E4D404601F03DFA002800F08680D0E990
:10B49C000223B3F1FF3F08BFB2F1FF3F33D1404667
:10B4AC0001F029FAEDE70378012B21D0022B09D109
:10B4BC00DFF81481404601F01EFA002877D0C0E96D
:10B4CC000245F7E75BB94168D1E90223B3F1FF3FCD
:10B4DC0008BFB2F1FF3F02D03B4801F0FCF901A9D3
:10B4EC00384800F089FA01A9364800F05AFAC4E746
:10B4FC0041683B68994202D100233B60EFE7324838
:10B50C0001F002FAEBE7296891B12968D1E902014F
:10B51C0082428B412FD22B68D3E90223B3F1FF3F38
:10B52C0008BFB2F1FF3F03D02968404601F0D3F9C0
:10B53C00404601F0E0F9D0E902490746FFF73EFE2C
:10B54C00201A69EB0109012879F1000318DBB0F529
:10B55C00350F13D3FFF75CFF1C4A02441C484FF411
:10B56C009603002100F0F8F890B92B6813B9304617
:10B57C0000F0CAF82F6003B0BDE8F0832246EDE777
:10B58C001348002100F06DF93846FFF74FFE01E03B
:10B59C000D28F9D000232B6073E7084B1B68002B98
:10B5AC00E9D1304603B0BDE8F04300F0B1B8094B27
:10B5BC0001221A7093E700BF681D0020E81D0020CF
:10B5CC00E01D0020CC1D002088E60100FFFFB40028
:10B5DC004C1B0020701D002070B5EFF3108672B666
:10B5EC000C4A946801239CB993600B4B0B4DD3F818
:10B5FC00801029401160C3F88050D3F8841051603A
:10B60C004FF0FF32C3F88420047006B962B670BDE7
:10B61C000370FAE7EC1D002000E100E0FC06FFBD22
:10B62C00084B9A6810B55AB150B9EFF3108172B645
:10B63C00054A1C6814605C685460986001B962B675
:10B64C0010BD00BFEC1D002000E100E00346405897
:10B65C0082B028B100225A505B580193019B012003
:10B66C0002B07047F8B5204B4479204E43F82420A3
:10B67C001F4A204B06EBC4049B1A2279DB081B04DF
:10B68C0032B143F002001C4901F06EFC0820F8BDF9
:10B69C0002680C88C2F8084590F904508A7804793D
:10B6AC005201002DD2B219DB14494F1987F800232F
:10B6BC0001226D0904F01F0402FA04F441F825403C
:10B6CC00427906EBC201012446F832000C7143F0BA
:10B6DC0003000B4901F048FC0020D8E7094904F0AD
:10B6EC000F040A55ECE700BF001E0020F81D0020D7
:10B6FC0090E20100C8E2010094E6010000E100E0E4
:10B70C00B6E6010014ED00E0036801221A607047F0
:10B71C00036801225A60704773B501F15005AD0002
:10B72C000068ADB24FF480348C400026C0F808435A
:10B73C00C0F84843465101F5A8714559019522F0CE
:10B74C007F42019D40F82120C0F844430BB1C0F862
:10B75C00044302B070BD00002DE9F74F0D4622F0F6
:10B76C007F4402684FF4803705F150068F408046C5
:10B77C00B60002EB8500C2F84873B6B2C2F8087383
:10B78C00D2F8041599464FF0000BD0F84035C0F8AC
:10B79C00401542F806B05B1A9259009223F07F4391
:10B7AC00012B009A4FEA850A0CD1264B4FF480608E
:10B7BC0043F001039847D8F8003043F806B09B5982
:10B7CC000193019BD8F80010D1F80465C1F84473BB
:10B7DC00A31B23F07F43012B1CD11A4B05F5A87535
:10B7EC00013443F0010341F825404FF48060984741
:10B7FC00D8F80030D3F804359E4209D1D8F800307F
:10B80C000020C3F84473C3F8047303B0BDE8F08F91
:10B81C000D20FAE78A44C9F1FF13CAF84045D1F864
:10B82C000405221A013A22F07F4203F57F4393422A
:10B83C00EED3002AE2D10134CAF84045D1F80435E0
:10B84C009842DAE7D0E6010003680222C3F84423E9
:10B85C0009B1C3F80423704700684FF48271FFF7F5
:10B86C00F5BE4FF4803303FA01F10368C3F84813B3
:10B87C00C3F80813704750318900006889B2FFF78C
:10B88C00E5BE0368D3F804057047000090F9043056
:10B89C00002B09DB5A09012103F01F0301FA03F302
:10B8AC004032024941F82230704700BF00E100E00D
:10B8BC00024B034A1B681068184700BF001E00208B
:10B8CC00F81D002030B5054659B1B2FBF3F403FB6B
:10B8DC001424A0B238B9C5E90010A860AA81EB8184
:10B8EC0030BD0E20FCE70920FAE782B050E8022FA9
:10B8FC00C188B2EB324F4FF0000317BF92B241EA4E
:10B90C00014142EA014104E04268B2EB324F08BF08
:10B91C00012340E80212002AE8D18DF807309DF887
:10B92C000730002B0CBF1120002002B0704737B538
:10B93C0050E8013F9DB2C48925448489A54228BFA3
:10B94C002D1B0489A54202BFBFF32F8F002207E0F5
:10B95C00C5EA030540E80154002CE9D14FF001027F
:10B96C008DF803200193019A0A609DF8031001F0F1
:10B97C00FF0321B1006810FA82F003B030BD184605
:10B98C00FBE70A884B889A4209D150E8012FC2EA9A
:10B99C00024240E80123002BF7D101207047002020
:10B9AC00704737B550E8023F1FFAA3F5C488A5428B
:10B9BC0002BFBFF32F8F00220DE0C4892544848978
:10B9CC00A54228BF2D1BC3EA054540E80254002CB4
:10B9DC00E8D14FF001028DF803200193019A0A601F
:10B9EC009DF8031001F0FF0321B1006800EB124039
:10B9FC0003B030BD1846FBE70A884B889A4209D140
:10BA0C0050E8022FC2EA224240E80223002BF7D171
:10BA1C00012070470020704701F01F024B090121E3
:10BA2C00914000EB830000F02AB801F01F030122C3
:10BA3C009A404B0900EB8300D14300F038B84B0916
:10BA4C0001F01F0150F82300C84000F001007047BE
:10BA5C0010B5034653E8000F0A4643E8002494F05F
:10BA6C00000FF7D110BD10B5034653E8000F40EAA4
:10BA7C00010243E8002494F0000FF6D110BD10B57C
:10BA8C00034653E8002F42EA010043E8000494F017
:10BA9C00000FF6D110BD10B5034653E8000F00EAB5
:10BAAC00010243E8002494F0000FF6D110BD10B54C
:10BABC00034653E8002F02EA010043E8000494F027
:10BACC00000FF6D110BD10B5034653E8002F02EB62
:10BADC00010043E8000494F0000FF6D110BD10B53E
:10BAEC00034653E8002FA2EB010043E8000494F056
:10BAFC00000FF6D110BD0121FFF7B5BF0121FFF7F3
:10BB0C00BEBF0021FFF7C7BF10B590B1D0E901232C
:10BB1C0001689B1ADBB20A60013BDBB2FF2B0268A7
:10BB2C0002D10020107110BD11684C1C14600B70F8
:10BB3C00F2E70E20F7E737B5054600240DF10700B4
:10BB4C008DF80740FFF748FD2A686B681168994229
:10BB5C000ED9481E106011F8013CEC68298A01FBD3
:10BB6C000344AB6811791B1ADBB2994238BF1371CD
:10BB7C009DF80700FFF754FD204603B030BD37B5E4
:10BB8C00054600230DF107000C468DF80730FFF732
:10BB9C0023FD2A681368591C1160E968641A298A04
:10BBAC00B4FBF1F41C709DF80700FFF739FD03B0EE
:10BBBC0030BD826810B504462AB14369016800693A
:10BBCC0098470023A36010BD0EB403B5039921B1AF
:10BBDC0004AB01AA019300F077F802B05DF804EB16
:10BBEC0003B070470A2938B504460D4602D10D2121
:10BBFC00FFF7F8FFA3682268591CA160D554D4E95B
:10BC0C0001329A4204D32046BDE83840FFF7D1BF39
:10BC1C0038BD00002DE9F84F9846DDE90A4315467A
:10BC2C0082460F460A464FF00109AA420FD2C1457F
:10BC3C0038BFC14613F0010B01D16CB900240126A9
:10BC4C00B8F1010F1BD908F1FF386E43F8E709F181
:10BC5C000109B2FBF5F2E8E79B070ED5B8F1000F2E
:10BC6C000CBF30262026A145E9D2013C3146504676
:10BC7C00FFF7B8FF002CF6D1E0E72026F3E7B7FB7F
:10BC8C00F6F39D42E1D9DFF83C80B7FBF6F3504662
:10BC9C0018F8031006FB1377FFF7A4FF3346AB42EB
:10BCAC00B6FBF5F6F1D2BBF1000F02D00CB1A145F9
:10BCBC0001D3BDE8F88F20215046013CFFF792FFDD
:10BCCC00F4E700BFD6E601002DE9F74F054617460D
:10BCDC008846002900F03E8118F8011B49B92B7BDE
:10BCEC00002B00F03781284603B0BDE8F04FFFF77A
:10BCFC0060BF252940F0B780002698F800302D2B26
:10BD0C00424608F1010823D0302B24D02B2B25D010
:10BD1C0000242A2B02F1010123D13B681A1D1B6858
:10BD2C003A601C440A4613782E2B26D101324FF070
:10BD3C00000A104610F8011BA1F1300CBCF1090FE0
:10BD4C001DD80A2303FB0A13A3F1300A0246F0E7BD
:10BD5C0046F00106D1E746F00206CEE746F00406AF
:10BD6C00CBE711F8013CA3F130000928DBD80A22FB
:10BD7C0002FB0434303C0A46CBE74FF0000A12F8C1
:10BD8C00011B01F0FB0068289046F8D0782909D8EF
:10BD9C006F290CD8632962D022D8252963D0582961
:10BDAC0000F0888098F80030002B95D197E7703917
:10BDBC000829F7D801A353F821F000BF3BBF0100BD
:10BDCC00B1BD0100B1BD0100D1BE0100B1BD01008A
:10BDDC00AFBE0100B1BD0100B1BD0100C1BE01008B
:10BDEC00642901D06929DDD13A68D2F80090111D7F
:10BDFC0089EAE9723960A2EBE9724FF0010B092A6A
:10BE0C0035DCD34538BFD3462CB1B9F1000F01DB7B
:10BE1C00720700D5013CB30702D5BAF1000F03D06D
:10BE2C00F00701D44CBB0024B9F1000F2DDAC9F195
:10BE3C0000092D212846FFF7D5FE06F00302022A41
:10BE4C0004D1BAF1000F01D11CBB0024CDE900468E
:10BE5C0053460A2249462846FFF7DCFEA2E73B6818
:10BE6C001A1D19783A602846FFF7BCFE9AE70A2398
:10BE7C000BF1010BB2FBF3F2C1E7A345D4D22021A5
:10BE8C002846013CFFF7AEFECCE77107D5D52B2138
:10BE9C00D0E7A345DAD230212846013CFFF7A2FEB9
:10BEAC00D2E73968CDE900460A1D3A6053460A22AA
:10BEBC000968D0E739680A1D3A60CDE90046534657
:10BECC001022F5E73B681A1D3A6016F00106D3F80C
:10BEDC00009024D1B9F1000F03D0484601F068FE60
:10BEEC000646B4421DD809F1FF3919F8011F002983
:10BEFC003FF458AF2846FFF775FEF6E728460136A3
:10BF0C00FFF770FE19F806100029F7D1A642BFF40E
:10BF1C0049AF20212846013CFFF764FEF6E70026D6
:10BF2C00F0E720212846013CFFF75CFED9E73B688F
:10BF3C001A1D3A60302128461C68FFF753FE782101
:10BF4C002846FFF74FFE00220823CDE90032214698
:10BF5C00102280E703B0BDE8F08F00BF13B50B468D
:10BF6C00114680B9104B1148114AC01A0E23C00853
:10BF7C000093104B0004104940F0010001F00BF845
:10BF8C000E2002B010BD4BB9074B08480B4AC01A23
:10BF9C00C0080E2300930004064BECE703601B68FB
:10BFAC0002B0BDE81040184790E20100E0E2010049
:10BFBC00E6E60100B4E80100EBE601001AE7010037
:10BFCC00F7B580B92C4B2D482D4AC01AC0080E2449
:10BFDC002C4B009400042C4940F0010000F0DBFFD6
:10BFEC00204603B0F0BD4AB9234B2448274AC01A57
:10BFFC00C0080E24234B00940004ECE707684FB9EB
:10C00C001D4B1E48224AC01AC00808241D4B009420
:10C01C000004E0E74BB9184B18481E4AC01AC00878
:10C02C000924184B00940004D5E711F0030F09D034
:10C03C00114B1248184AC01AC0081024114B009416
:10C04C000004C8E7D0F80CC061450AD305694C1E42
:10C05C001C44AC4205D8BC68A44603B0BDE8F04013
:10C06C006047054B05480D4AC01AC0081024054B03
:10C07C0000940004AFE700BF90E20100E0E2010091
:10C08C00E6E60100A2E80100EBE6010020E7010072
:10C09C0014E7010027E701002BE7010042E701004C
:10C0AC002DE9F743DDF8288088B93E4B3E483F4ADE
:10C0BC00C01AC0080E243E4B009400043D4940F0C9
:10C0CC00010000F068FF204603B0BDE8F0834AB9D8
:10C0DC00344B3548384AC01AC0080E24344B0094EF
:10C0EC000004EBE7D0F800E0BEF1000F09D12D4BB6
:10C0FC002D48324AC01AC00808242D4B0094000465
:10C10C00DCE74BB9274B28482D4AC01AC008092434
:10C11C00274B00940004D1E74768D7F80490B3FB91
:10C12C00F9F709FB17374FB11E4B1F48254AC01AA8
:10C13C00C00809241E4B00940004BFE78F0709D0E8
:10C14C00184B1948204AC01AC0081024184B0094E8
:10C15C000004B3E712F0030F09D0124B12481B4A2C
:10C16C00C01AC0081024124B00940004A6E7C7683C
:10C17C00B9420DD305694C1E1C44AC4208D8CDF80D
:10C18C002880DEF80C40A44603B0BDE8F0436047BD
:10C19C00044B05480E4AC01AC0081024044B0094E6
:10C1AC0000048BE790E20100E0E20100E6E601000A
:10C1BC008FE80100EBE6010068E7010014E70100DD
:10C1CC0027E701006EE7010098E70100B0E70100E6
:10C1DC00D3E70100F7B580B92A4B2B482B4AC01A7C
:10C1EC00C0080E242A4B009400042A4940F0010098
:10C1FC0000F0D1FE204603B0F0BDD0F800C0BCF179
:10C20C00000F09D11F4B2048234AC01AC00808242C
:10C21C001F4B00940004E8E74AB91A4B1A481F4A0E
:10C22C00C01AC00809241A4B00940004DDE74768C3
:10C23C00D7F800E00EF1FF370F4209D0114B12482E
:10C24C00174AC01AC0081024114B00940004CCE704
:10C25C00C768B9420CD305694C1E0EFB0244AC42B4
:10C26C0006D8DCF81040A44603B0BDE8F0406047A7
:10C27C00044B05480B4AC01AC0081024044B009408
:10C28C000004B2E790E20100E0E20100E6E6010002
:10C29C007CE80100EBE6010014E7010027E7010050
:10C2AC00FAE7010020E8010070B550B90E4D0F4CB3
:10C2BC000026641B1423B4FBF3F4B44208D1002011
:10C2CC0010E00368002BF1D0BDE87040DB69184723
:10C2DC002B6813B901361435EFE7DB69284698470C
:10C2EC000028F7D070BD00BFE01A0020F41A00201F
:10C2FC0029DF704728DF704770B503689E6886B0E9
:10C30C0004460D466EB114220021684601F0FBFB79
:10C31C00A3680593237901952BB1012B0DD06846A9
:10C32C00B04706B070BD01238DF80030236902932D
:10C33C00E368039363690493F1E702238DF80030FB
:10C34C00E3681B030293F5E708467047002070472B
:10C35C00024B187A003818BF01207047A01E00202D
:10C36C00034B187A0122B0FA80F05A7440097047D6
:10C37C00A01E002008B510461A4601F09BFB0020B9
:10C38C0008BD000008B514220021044801F0BBFBD5
:10C39C000348FFF7AAFA002008BD00BFA01E00202A
:10C3AC00901E002010B5094C094B43602046FFF746
:10C3BC00A2FB40B901F030F9064920741C23064851
:10C3CC008C22FFF77FFA002010BD00BFA01E0020BA
:10C3DC00C8E80100041E0020901E002038B5234D33
:10C3EC00234C2B7A3BB923492348FFF7DAFA206018
:10C3FC0008B9686038BD022324682B72237973B1A5
:10C40C00012B24D020460321FFF776FF00232B724B
:10C41C006B6018491848BDE83840FFF7EDBAD4E90D
:10C42C000523D21AB2F5805FD4E9031028BF4FF46C
:10C43C0080529208012A38BF012219441844FFF790
:10C44C0057FF50B11128DDD101232B72D2E7D4E96B
:10C45C0003031844FFF74EFFF3E72B7C002BC9D1E5
:10C46C00BDE83840022000F009B800BFA01E002033
:10C47C00B81E0020B41E0020901E002038B5234C9E
:10C48C00237A002B41D0022B09D1032830D0204B2A
:10C49C0000221B68E2601A793AB1012A22D0637C2F
:10C4AC007BBBBDE83840FFF799BFD3E905128D1A65
:10C4BC00B5F5805F94BF521902F580529A61914292
:10C4CC00EDD102284FF0000308BF19462372104B20
:10C4DC0018BF0D211868FFF70FFF0E490E48FFF724
:10C4EC008BFADCE71A6901321A615B699A42E7E759
:10C4FC00E3680133082B01D8E360D0E70023E36045
:10C50C00DFE7BDE8384001F077B838BDA01E002049
:10C51C00B81E0020B41E0020901E0020831E012B8C
:10C52C0001D8FFF7ABBF704700F0FD03012B08D11A
:10C53C00044B00225A74421E504250411874FFF7AB
:10C54C004DBF7047A01E002010B5064C201DFFF7F4
:10C55C00D2FA28B9637C1BB9BDE81040FFF73EBF87
:10C56C0010BD00BFA01E00202DE9F34180460D46F2
:10C57C00104801A916461F46FFF7D9F90446B0B179
:10C58C0018220021043001F0BEFA2D0B0123237177
:10C59C0001A90848C4F80080A760E5606661FFF750
:10C5AC00F0F9FFF7D1FF002002B0BDE8F0810420C4
:10C5BC00FAE700BF901E00202DE9F34180460F469C
:10C5CC000F4801A916461D46FFF7B1F90446A8B15C
:10C5DC0018220021043001F096FA089BA36001A9EF
:10C5EC00C4E903670648C4F800806561FFF7C9F920
:10C5FC00FFF7AAFF002002B0BDE8F0810420FAE7A3
:10C60C00901E00202DE9F84FB0F806A04579D2F81D
:10C61C0000B09DF828900AFB05F5043D88460BEB0D
:10C62C000301A94203F1040488BFA5EB030BB4FB7F
:10C63C00FAF607460AFB1644C2F800B04EB9AAEB4C
:10C64C0004055D4528BF5D46BBF1000F04D1BDE874
:10C65C00F88F3F68013EF1E7043408EB06003C44D8
:10C66C002A46B9F1000F0DD02146ABEB050B01F0BA
:10C67C0021FADA452E443F6855464FF0000428BF96
:10C68C005D46E1E701462046EFE7FFF73DBAF8B516
:10C69C0046790146721E0546002393422D6803D34A
:10C6AC000024A64202D8F8BD0133F6E70F682846ED
:10C6BC00FFF765FA01343946F3E72DE9F843068AAA
:10C6CC00CD1C0746FFF737FA043E35440446B5FB4C
:10C6DC00F6F5F0B14FF48073EDB28380C680013D66
:10C6EC00076081464FF00008A84512D23846FFF784
:10C6FC0022FA064648B163790133637108F10108E7
:10C70C00C9F8000007608146EEE72046FFF7BFFF3F
:10C71C0034462046BDE8F88301210430FFF7D3B935
:10C72C0010B5012104460430FFF7D9F9C0B220B985
:10C73C002046BDE81040FFF7AABF10BD1FB50392FD
:10C74C000022009203AAFFF75DFF05B05DF804FB21
:10C75C001FB503920122009203AAFFF753FF05B005
:10C76C005DF804FB33DF704741DF70470D4A08B5B5
:10C77C00002313700C4A1360BFF35F8F0B490C48F6
:10C78C0000F093F80B4A0C480121FEF7D9FD024644
:10C79C0030B9BDE8084009484FF48041FEF7E2BDCE
:10C7AC0008BD00BFC51E0020C81E002004E9010002
:10C7BC00BC1E002091C8010000E90100581B00209C
:10C7CC0008B500F029FF18B1BDE80840FFF7CCBF51
:10C7DC0020BF40BF20BF08BD70B5244D04460121C9
:10C7EC002846FFF735F9BFF35F8F38B9042C0AD010
:10C7FC001F4B1A781AB1BFF35F8F286070BD1D4AAA
:10C80C00147001221A701C4C1A4E6368BBB900F0EC
:10C81C0003FC00F05DFA0028FBD1164B1B78023BA1
:10C82C00012B15D8BFF34F8F1449154BCA6802F46E
:10C83C00E0621343CB60BFF34F8F00BFFDE71B6873
:10C84C00307898470028D6D0204600F038F8DCE73E
:10C85C0000F0E2FE08B1FFF785FF4FF080430122A4
:10C86C00C3F80025BFF34F8F20BFFDE7C81E002083
:10C87C00C51E0020C41E0020BC1E002000ED00E0E0
:10C88C000400FA05034B1B7813B10420FFF7A4BF77
:10C89C00704700BFC51E0020836800225A60C3E9A0
:10C8AC0004229A60DA601A6070470B684A68436029
:10C8BC00934208BF0023016008BF43607047436880
:10C8CC0043B10268916852680B449342436004BFC1
:10C8DC0000234360704770B5446806460D462068D7
:10C8EC0018B1B3682946984718B923682B6025609E
:10C8FC0070BD2468F3E74368186808B102681A60D1
:10C90C0070474368186870474368186800B97047E7
:10C91C00884203D102681A60012070470346006800
:10C92C00F4E7000010B50D49A1F59472914201D8BD
:10C93C0000200FE08C1AE30F03EBE4035B1002EB17
:10C94C00C30452F83330834205D802D204F10802F2
:10C95C00ECE7606810BD2146E8E700BF10EE01006F
:10C96C0008B5FFF7DFFF024B002808BF184608BDCB
:10C97C00D3EC01007047000007B5044B0093044A48
:10C98C00402300F032F803B05DF804FBA1C90100AC
:10C99C00CD1E00202DE9F84388461446B2B10F4B4A
:10C9AC000F4E0325002743F00109224608EB07012F
:10C9BC00002000F0E1FC0744241A48B933782BB16D
:10C9CC004FF47A40C847013D02D13570BDE8F88379
:10C9DC0001233370002CE8D1F8E700BF10EE010002
:10C9EC00CC1E0020704700F017BDF0B595B01D4669
:10C9FC00164608460C46FFF78FFE1A9B0D93CDE9A1
:10CA0C00086500252B46082205A920460A958DF8B5
:10CA1C002C500C95FFF79CFE079B0293069B0393EF
:10CA2C009DF814308DF8115003F00302012A1DD12A
:10CA3C00BDF81420059DC3F3C203C2F383168DF811
:10CA4C001030B20008230EA92046FFF781FEC5F373
:10CA5C00952508AB0093324602AB0EA9284600F090
:10CA6C0049FB2046FFF75CFE15B0F0BD022AF8D159
:10CA7C00BDF81650C3F3C203C5F389158DF81030F9
:10CA8C000827082D2E4628BF08263B4632460EA9FD
:10CA9C002046FFF75DFEAD1B08AB02AA31460EA87F
:10CAAC00374400F08BFB002DEBD1DAE708B5FFF72C
:10CABC009AFF0448042100F08DFA034B01225A71AD
:10CACC0008BD00BF10E30100781B0020037802466C
:10CADC0013F0040006D003F00300012803D0022851
:10CAEC0009D0012070470B6812880233C2F38312FD
:10CAFC0013440B6070470B685288023303EB92139C
:10CB0C000B60EEE72DE9F04FDFF81CA187B00F4664
:10CB1C0000230446861C0DF1070015468DF80730DE
:10CB2C00FEF75AFDDAF804203A60DAF8083003F51B
:10CB3C0080739B1A0AF21C470AF583690AF214489F
:10CB4C00B3421AD30020002D69D004F00F039B01CF
:10CB5C0043F0050363F30F00DAF80430DAB2033262
:10CB6C0033444AF822009DF80700CAF80430FEF757
:10CB7C0057FD012007B0BDE8F08F01213846FEF7C4
:10CB8C00A2FF4846FEF7BAFF4046FEF7B7FFDAF8B9
:10CB9C0008000290C0B203300AEB800002A9FFF734
:10CBAC0095FF029B30BBDAB20AEB8202D16803918B
:10CBBC009A1C0133DBB20AEB83030292D3F80CB05C
:10CBCC0001F00303012B22D0022B15D083464046E3
:10CBDC00FEF797FF10B1029BCAF808305946384649
:10CBEC00FEF771FFDAF80830DAF8042003F58073E9
:10CBFC009B1AA5E7D8B2CEE7BDF80E30C3F3891364
:10CC0C0003334FEA1B4B02EB93030293DFE7BDF8B0
:10CC1C000C30C3F383134FEA1B4B1344F5E7A40505
:10CC2C0044F0060098E700BFE01F0020064B0748C1
:10CC3C0010B500221A70FFF728FD044610B90448FD
:10CC4C00FFF72AFE204610BDE01F00207CE2010009
:10CC5C004CEE010030B50A4C71B10A4A0A49121B5C
:10CC6C00D20800239A4201D1002030BD31F8235064
:10CC7C00854202D00133F5E7034654F83300F4E75C
:10CC8C0090E2010010E30100F41A0020094B013975
:10CC9C0003EBC000032909D8DFE801F00A020406FF
:10CCAC000420704700797047407970470020704726
:10CCBC000220704790E2010070470000034BD3E95B
:10CCCC000130C31A58425841704700BFE01F002082
:10CCDC002DE9F04186B0FFF7F1FF0546002840F042
:10CCEC00ED80774CC4F81804BFF34F8FA368029300
:10CCFC00DBB2033304EB830002A9FFF7E7FE029BD0
:10CD0C0018B1D4F81824002A5AD0DAB2991C01337D
:10CD1C0004EB8202DBB204EB8303D268DB6804937E
:10CD2C0002F00303022B0392029154D1BDF80E3092
:10CD3C006448C3F38917502F3E4628BF502606F18E
:10CD4C00080166F38F13C1F30901ADF80E30FFF73C
:10CD5C00B4FC0546002800F09C80FFF7DDFC0023A6
:10CD6C00082203A92846FFF7E9FC0299CB43DBB262
:10CD7C000133C9B20331B6EB830F4FEA830204EBE4
:10CD8C00810125D95FFA82F80823A6EB080628460C
:10CD9C00FFF7D4FCF6B208F108034B4903F0FC038F
:10CDAC0032462846FFF7CAFC029B033703EB970772
:10CDBC000297D4F81834002B43D1D4F8106453E004
:10CDCC0062689A4294D8A260284606B0BDE8F08109
:10CDDC0008233246E5E7012B5BD1BDF80C3039480E
:10CDEC00C3F38311062928BF062161F3891302318D
:10CDFC0001F00F018900ADF80C30FFF75EFC054621
:10CE0C00002846D0FFF788FC0023082203A92846F7
:10CE1C00FFF794FC0026BDF80C20C2F38312B3007C
:10CE2C00964203F10803C4D202994A1CC9B20331D9
:10CE3C00029204EB810104222846FFF77FFC0136A5
:10CE4C00E9E72846FFF76CFCFFF738FF80F0010597
:10CE5C00EDB2B9E7F3685B7923B1336829461B68F7
:10CE6C0030469847F3681E68002EF3D12846FFF72A
:10CE7C0057FC0DF107008DF80760FEF7ADFBD4F8F9
:10CE8C0018340BB9029BA3609DF80700FEF7C8FB92
:10CE9C00DAE7D4F8104454B90C4B0D480D49C01ABC
:10CEAC00C008000440F0020000F05EF8CCE72368F4
:10CEBC0020469B689847E3681C68ECE7002583E7ED
:10CECC00E01F00207CE20100EC1F002090E201003A
:10CEDC00B8E2010034EE01002DE9F34704460E469A
:10CEEC00924601A9012218469946FFF70BFE1C4FEA
:10CEFC0010B3019D4FF00008AA1CC84508EB0201B5
:10CF0C0025D118480021FEF7A3FD80F31000000482
:10CF1C0040EA1440E4006B1C04F03804DBB2EDB2C0
:10CF2C0044F0010407EB8303033544EA881444EA14
:10CF3C008624D86047F825403B781BB1FFF7C8FE24
:10CF4C000028FBD1FFF7B8FE02B0BDE8F087C9B2EC
:10CF5C0007EB81015AF82830CB6008F10108CCE7C7
:10CF6C00E01F0020FC23002000231A46FFF7B4BF6B
:10CF7C0007B50123019201AAFFF7AEFF03B05DF8DC
:10CF8C0004FB07B5CDE9002302236A46FFF7A4FF93
:10CF9C0003B05DF804FB1FB5CDE90123069B039399
:10CFAC0001AA0323FFF798FF05B05DF804FB7FB5DA
:10CFBC00CDE90023089B0293099B03930A9B0493DE
:10CFCC000B9B05936A460623FFF786FF07B05DF8B7
:10CFDC0004FB000030B50F4CD4F81024034600209D
:10CFEC00114631B9D96808714AB9C4F810340A60CD
:10CFFC0030BDC9680D79854206D00968F1E7D26861
:10D00C0014680C601360F3E701300A28E8D14FF084
:10D01C00FF30EDE7E01F002038B5084B0125D3F8B1
:10D02C0010441D7004B938BDE3685D712368204657
:10D03C005B689847E3681C68F4E700BFE01F0020BA
:10D04C00C38873B504460D4633B1144A0092144993
:10D05C00144A2846FEF7B8FD217A05291CD0637ABC
:10D06C004BB1A088FFF712FE0F4B104953F820204C
:10D07C002846FEF7A9FD227A0D4BA08853F82260B2
:10D08C000021FFF7E7FD0B4903463246284602B064
:10D09C00BDE87040FEF798BD02B070BD78EE01009F
:10D0AC0060EE010058EE0100E4EE01007DEE01009F
:10D0BC0008EF010080EE010010B5037A052B0C4639
:10D0CC000FD0437A23B1084A08492046FEF77CFD6D
:10D0DC0007492046FEF778FD2046BDE81040FEF7D4
:10D0EC0068BD002AF8D0F3E778EE01007DEE010070
:10D0FC0075EE01002DE9F04385B01F460C9D002311
:10D10C0095F80C902B7306460C46904629463846EB
:10D11C00FFF796FFB8F1060F09D8DFE808F0041204
:10D12C00181F2833400031462846FEF74DFD0022DB
:10D13C0029463846FFF7C0FF85F80C9005B0BDE8CE
:10D14C00F083226831462846FEF73EFDEFE7D4E92E
:10D15C00002331462846FEF737FDE8E7A368009325
:10D16C003146D4E900232846FEF72EFDDFE7E368BD
:10D17C000193A36800933146D4E900232846FEF7B7
:10D18C0023FDD4E723690293E3680193A36800931A
:10D19C003146D4E900232846FEF716FDC7E763693C
:10D1AC00039323690293E3680193A36800933146C8
:10D1BC00D4E900232846FEF707FDB8E708292DE936
:10D1CC00F74F80460E4617461C463DD800251B7B64
:10D1DC002573214610460193FFF732FFDFF888A034
:10D1EC00DFF888B0AE4232D918F8052059462046EF
:10D1FC00FEF7EAFC0135082DF4D11D49DFF874A0C7
:10D20C00DFF874B02046FEF7DFFC4FF000094E4506
:10D21C0024D918F809507E2D1ED8284600F01EFC83
:10D22C00002814BF2A462E2259462046FEF7CCFC75
:10D23C0009F10109B9F1080FE9D10122214638465B
:10D24C00FFF73AFF019B237303B0BDE8F08F514603
:10D25C002046FEF7B9FCCDE72E22E5E751462046E5
:10D26C00FEF7B2FCE4E700BF90EE01008AEE01008D
:10D27C0094EE010092EE010096EE01000369C26883
:10D28C0093429CBF80681B18013B981A70472DE98C
:10D29C00F843D0E902940546A9EB04084068904590
:10D2AC0020440F46144404D900F004FCEC60BDE8A3
:10D2BC00F8834246A4EB090400F0FCFB68682246A4
:10D2CC0007EB0801F0E72DE9F843C56806468946E7
:10D2DC0017464FF000083469B3687068A54228BF40
:10D2EC00E418013C621B5C1BBC4228BF3C469442C8
:10D2FC0028BF144649462844224600F0DBFBB3689D
:10D30C002544AB4208BF00253F1BA044A144F56057
:10D31C00E1D14046BDE8F88310B5114C114AA26129
:10D32C000223C4E90433104BE361A2644FF400738D
:10D33C000E4A0F492362E26400231022E01DA3620F
:10D34C006362E362A3656365E365226500F00EFC2E
:10D35C000849204600F00AFC2023A37110BD00BF31
:10D36C00982400201CEF010020250020102500200F
:10D37C0025EF010029EF010070B5164B182400FBB6
:10D38C0004451D4404FB00331646DC6A012C0ED008
:10D39C00022C18D0E4B92846FFF770FF864204D857
:10D3AC0032462846FFF773FF3446204670BD2846A8
:10D3BC00FFF764FF8642344628BF044622462846BF
:10D3CC00FFF765FFF1E72846BDE87040FFF77BBF2C
:10D3DC000024EAE79824002073B50E4B1B78044612
:10D3EC000D4616460BB9FFF797FF00230DF107000A
:10D3FC008DF80730FEF7F0F8324629462046FFF745
:10D40C00BBFF04469DF80700FEF70AF9204602B060
:10D41C0070BD00BF98240020FFF77EBF0FB410B57D
:10D42C00A2B024AB802153F8042B019302A800F086
:10D43C0031FB802804460ADD802202A90020FFF778
:10D44C00CBFF204622B0BDE8104004B07047002846
:10D45C00F7DD0246F1E710DF704711DF704700007F
:10D46C0013B5044609496846FFF71FFA019808B935
:10D47C0002B010BDD0E900312046984718B168467B
:10D48C00FFF71DFAF2E71120F2E700BF3CEF0100B5
:10D49C0013B5044607496846FFF707FA019B0BB919
:10D4AC0002B010BD2046D3E9002190476846FFF733
:10D4BC0006FAF3E754EF0100084B9A6822B11A6898
:10D4CC0022F480021A607047054B4FF48002C3F8B7
:10D4DC008020BFF34F8FBFF36F8F7047EC1D002080
:10D4EC0000E100E00B4991F816335A09EC23134183
:10D4FC00DB0706D5084B9A683AB94FF480030B60EA
:10D50C00704742F20200FDF709BE1A6842F480022D
:10D51C001A60704700E100E0EC1D0020F7B5194FD0
:10D52C003C7864BB184E012520463570FFF798FFF8
:10D53C00112821D02046FFF7ABFF144B8DF8034088
:10D54C00186801900DF10300FEF746F8104901A888
:10D55C00FFF781FF0446B0FA80F0400938709DF85F
:10D56C000300FEF75DF83CB90A4B34701C70FFF7F2
:10D57C00B9FF2846FFF78CFF204603B0F0BD082406
:10D58C00FAE700BF212700202027002038EF0100F8
:10D59C0045B1010022270020F7B5154F3B781BB38E
:10D5AC00144E01203070FFF75BFF11284FF000057F
:10D5BC001CD00220FFF76CFF0DF107008DF807500F
:10D5CC00FEF70AF8FFF749FF04469DF807003D7087
:10D5DC00FEF726F82CB903203470FFF76DFFFFF728
:10D5EC0057FF204603B0F0BD0824FAE72C46F8E7B5
:10D5FC002127002020270020054B1B7833B1054B39
:10D60C001B780BB1FFF7C8BFFFF788BF0820704726
:10D61C002027002021270020014B1878704700BFDD
:10D62C002127002007B508496846FFF73EF9019B02
:10D63C0013B903B05DF804FBD3E9002090476846AA
:10D64C00FFF73DF9F3E700BF48EF0100FFF7EABF32
:10D65C0060DF704769DF704761DF704730B5134B8F
:10D66C001B7891B0FBB1124D34240DF1020103A8CB
:10D67C00ADF80240FFF7F0FF70B9294601A8FFF79B
:10D68C0014F9029B002BF0D003A8D3E9002190479A
:10D69C0001A8FFF714F9F4E7052804D011B0BDE890
:10D6AC003040FDF73BBD11B030BD00BF232700203B
:10D6BC0098F1010030B50C4685B0002900F08C8043
:10D6CC000023CDE90133454A039301230A608DF809
:10D6DC0004008DF8063001A906232020ADF808308F
:10D6EC00FFF7B8FF60B1FFF73BF93D4B3D490246F0
:10D6FC003D481B1ADB081B0443F00100FFF738FC04
:10D70C000023CDE9013303932268012301A94020B2
:10D71C008DF80530FFF79EFF60B1FFF721F9304B14
:10D72C003249024630481B1ADB081B0443F0010047
:10D73C00FFF71EFC0023CDE901330393226802237B
:10D74C0001A901208DF80430FFF784FF60B1FFF7C9
:10D75C0007F9234B2649024623481B1ADB081B04F6
:10D76C0043F00100FFF704FC0023CDE902332268EB
:10D77C004FF4B06301A9A1200193FFF76BFF60B1D7
:10D78C00FFF7EEF8164B1B49024617481B1ADB082D
:10D79C001B0443F00100FFF7EBFB0123002522687B
:10D7AC00039501A9A020CDE901558DF80430FFF7B0
:10D7BC0051FF034668B1FFF7D3F8094B0E490246F7
:10D7CC0009481B1ADB081B0443F00100FFF7D0FBD0
:10D7DC002B46184605B030BD0E23FAE7E01A0020A0
:10D7EC00F0E2010060EF010090E20100A6EF010001
:10D7FC00F2EF01003EF001008FF00100F8B5064693
:10D80C000768FFF725FF3368BB4205461DD9194849
:10D81C00194C1A49241AE408240444F00204204642
:10D82C00FFF7A2FB336816493A462046FFF7A9FBDF
:10D83C004FF080533268D3F80C3112499B0203F13C
:10D84C0000539A1A2046FFF793FB25B90E4B012281
:10D85C001A702846F8BD2846FFF782F8064B0B498C
:10D86C00024604481B1ADB081B0443F00100FFF7B7
:10D87C007FFBEEE790E20100F0E20100E2F0010034
:10D88C0011F1010042F10100232700206CF101008D
:10D89C004BDF70471FB50E4C01A8FFF7F9FF70B9AD
:10D8AC00214602A8FFF701F8039B002BF4D0019846
:10D8BC00D3E90021904702A8FFF701F8F4E7052807
:10D8CC0004D004B0BDE81040FDF728BC04B010BD76
:10D8DC00B0F101007F2805D8034A044B105C5B5C57
:10D8EC001840704700207047C8F1010048F2010051
:10D8FC00A0F16103192B98BF20387047A0F14103A8
:10D90C00192B98BF203070477F299ABF01700120D6
:10D91C006FF02E00704700BF5AB10A787F2A0AD8E0
:10D92C0000B102600021501AC3E9001118BF012098
:10D93C007047104670476FF02E007047A0F16103DE
:10D94C00192B98BF20387047A0F14103192B98BFB1
:10D95C00203070477F2805D8034A044B105C5B5C71
:10D96C001840704700207047C8F1010048F20100D0
:10D97C0038B585680446084645B122686168531C71
:10D98C008B4208BF00208A420AD2A854E26823685E
:10D99C002AB161688B4202D2214690472368013339
:10D9AC00236038BD70B54D1E22D413681446C6B220
:10D9BC000EE0D0542368E2682AB16168994202D91A
:10D9CC00214690472368013D01336A1C23600FD028
:10D9DC00A26872B1616803F1010C8C4514BF30462A
:10D9EC0000209942E5D8013D63466A1C2360EFD1C3
:10D9FC0070BD3046DFE700BFC3062BD410F4007FA8
:10DA0C0070B514BF302620264D1E22D41368144640
:10DA1C00F6B20EE0D0542368E2682AB161689942EC
:10DA2C0002D9214690472368013D01336A1C2360CB
:10DA3C000FD0A2687AB1616803F1010C8C4514BF58
:10DA4C00304600209942E5D8013D63466A1C2360AC
:10DA5C00EFD170BD70473046DEE700BF024B5B680C
:10DA6C009B6809211B681847801B0020027862B153
:10DA7C0069B100EB010C034601E0634503D013F8D8
:10DA8C00011F0029F9D1181A704710467047084633
:10DA9C00704700BF30B5944685B00025CDE902052E
:10DAAC000C461A4661466846019400F0B1F805B080
:10DABC0030BD00BF844640EA010313F0030F18D1B8
:10DACC008446202A0BD32DE9F007B1E8F807A0E82B
:10DADC00F807A2F12002202AF7D2BDE8F007042AA9
:10DAEC0007D351F8043B40F8043BA2F10402042A8A
:10DAFC00F7D2002A05D011F8013B00F8013B013A9E
:10DB0C00F9D1604670478446002A2DD010F0030FDF
:10DB1C0004D000F8011B013A26D0F7E7C9B241EA5C
:10DB2C00012141EA0141202A12D3A2F120022DE960
:10DB3C00F0030B460C460D460E460F4688468946AA
:10DB4C00A0E8FA03203AFBD2BDE8F00320320BD058
:10DB5C00042A05D340F8041B043A05D0042AF9D250
:10DB6C0000F8011B013AFBD160467047024610F0E9
:10DB7C00030F16D111F0030F13D12DE9F0004FF064
:10DB8C0001374FF0803351F8044BA4EB070525EA1D
:10DB9C0004051D4002D142F8044BF4E7A1F1040145
:10DBAC00F0BC11F8013B02F8013B002BF9D1704796
:10DBBC0000F1010110F0030F11D010F8012B002A15
:10DBCC0023D010F0030F0AD010F8012B002A1CD020
:10DBDC0010F0030F03D010F8012B002A15D02DE9FB
:10DBEC0070004FF001324FF0803350F8044BA4EB2F
:10DBFC00020525EA04051D4000D1F6E7A0F104005A
:10DC0C0070BC10F8012B002AFBD1A0EB010070476F
:10DC1C002DE9F04F00230C46036089B014F8011B6A
:10DC2C0003920746002900F0E582DFF8489207E0EE
:10DC3C003846FFF79DFE14F8011B002900F05B81AC
:10DC4C002529F5D12246002612F8010B302800F2C6
:10DC5C009E801F280ED9A0F12003102B0AD8DFE8D4
:10DC6C0003F0AC0909A8090909A4090909A0099C30
:10DC7C0009098D002A2840F0FF80039B10781D684D
:10DC8C000433002D0393BCBF6D4246F01006A21C5A
:10DC9C002E2800F007810021742800F092807A2849
:10DCAC0000F08F806C2800F035814C2800F0388112
:10DCBC00682800F0C1811446002800F08880A0F18B
:10DCCC002503DAB2532A00F22E81532B00F22B815A
:10DCDC00DFE813F0EE0129012901290129012901AD
:10DCEC0029012901290129012901290129012901D8
:10DCFC0029012901290129012901290129012901C8
:10DD0C0029012901290129012901290129012901B7
:10DD1C0029012901290129012901290129012901A7
:10DD2C002901290129012901290129012901290197
:10DD3C00290129012901290129018200290129012F
:10DD4C002901290129012901290129012901290177
:10DD5C00D901F9002901290129012901F900290119
:10DD6C0029012901290153024B021602290129011B
:10DD7C00F0012901CE0129012901840046F4007625
:10DD8C001446224612F8010B30287FF662AF5E284B
:10DD9C0072D146F480561446F3E746F0100614464A
:10DDAC00EFE746F020061446EBE746F4004614462F
:10DDBC00E7E746F080061446E3E746F040061446D3
:10DDCC00DFE7144614F8010B00287FF478AF4FF00E
:10DDDC00FF3009B0BDE8F08F46F4005616F0800A0B
:10DDEC0006D043F2780A43F25803782818BF9A46B3
:10DDFC0016F4807307BF06F48042B04626F4007810
:10DE0C0006F48042002A64D1039A18F0040F02F140
:10DE1C0004060396126800F0A38092B2002B68D01F
:10DE2C0028F400785838202800F2A080DFE810F0A1
:10DE3C0076019E009E009E009E009E009E009E000D
:10DE4C009E009E009E009E00D7009E009E009E009D
:10DE5C009E00D7009E009E009E009E009E000C011E
:10DE6C0076019E009E009E009E00D7009E009E00A4
:10DE7C00760100BFCDCCCCCCA0F13004E3B2092BA1
:10DE8C004FF000053FF604AF12F8010B05EB8505CA
:10DE9C0004EB4505A0F13004E3B2092BF4D92E288C
:10DEAC007FF4F9AE10782A2840F07781039B5078E4
:10DEBC001968941C0433002903932246FFF6ECAE38
:10DECC0046F48076E8E646F4804806F480734FF01A
:10DEDC00000A039A18F0040F02F104060396126864
:10DEEC0030D012B2002A31DA52424FF02D0A002BF8
:10DEFC0096D1012196E73868BB68002B3FF469AFD7
:10DF0C007A6882427FF665AF00221A54386809B0ED
:10DF1C00BDE8F08F144646F0010614F8010BCBE671
:10DF2C0046F001061446B44BD3F80080B8F1000F4C
:10DF3C003FF481AE009103A901912B46324639463C
:10DF4C00C04778E618F0080FCCD0D2B218F0200FEA
:10DF5C0040F03B8118F0400F18BF4FF0200A5DE7EE
:10DF6C0018F0080F3FF45AAFD2B257E74FF0FF3614
:10DF7C00002321EAE17BA5EB0B05BAF1FF0FA5EB22
:10DF8C00030540F20481CAF307213846023DFFF72E
:10DF9C00EFFC5FFA8AF13846FFF7EAFC40463A4656
:10DFAC002946FFF729FD3A4659463020FFF7FAFC7F
:10DFBC00731C0AD001360DF1140A564416F8011DD3
:10DFCC003846FFF7D5FCB245F8D118F0100F3FF4E6
:10DFDC0032AE29463A462020FFF7E4FC2BE61046E9
:10DFEC00002A00F0038108F4004C624600238C46A2
:10DFFC004FF02C0E114603F0030209B1032A14D082
:10E00C001E46A9FB0032D20802EB820306F1200B5C
:10E01C00A0EB4303EB44303309280BF80C3C06F11E
:10E02C00010340F29F801046E5E703F120026A44A9
:10E03C005E1C02F80CECE4E71078682800F0D18044
:10E04C00541C46F0040637E61046002A00F0CE8039
:10E05C000DF1140C002302F007023032C0080CF84A
:10E06C00012B1E46024601330028F4D1C91A80E761
:10E07C0016F4807300F0AC8026F4007806F480422D
:10E08C004FF0000ABEE6039B013D191D93F800807A
:10E09C0003913A4629463046FFF7AEFC41463846D6
:10E0AC00FFF766FCB3461BF0100F3FF4C4AD90E7CE
:10E0BC002521BDE5039B514A181D0390D3F800A000
:10E0CC00BAF1000F08BF9246F205D04626F4007B49
:10E0DC00504640F18280FFF7C9FC0646AD1B3A461C
:10E0EC0029465846FFF788FC002EDCD018F8011B97
:10E0FC003846FFF73DFCAAEB0803F342F6D1D2E712
:10E10C00039B1A1D039216F0800F1A6846F4807850
:10E11C000CBF4FF0000A4FF0230A08211046002ACA
:10E12C0064D008F4005C634605AA8C4600261946A8
:10E13C0009E0334B000913F80E3002F8013B06F1ED
:10E14C0001030FD01E4600F00F0E73460029F0D1CC
:10E15C00DFF8B0E000091EF8033002F8013B06F1CD
:10E16C000103EFD16146C91A03E716F0800F0CBF0B
:10E17C004FF0000A4FF0300A3AE6039B3A68191D3B
:10E18C0003911B6831074CBF1A701A6053E5BAF142
:10E19C00000F3FF403AF013DFBE6A0F13004E3B206
:10E1AC00092B02F101024FF000013FF689AE12F883
:10E1BC00010B01EB810104EB4101A0F13004E3B24E
:10E1CC00092BF4D946F4807666E54FF02B0A25E648
:10E1DC0006F48042B0469A4614E6FFF7E9FC064680
:10E1EC007CE7507846F00806941C65E513464FF022
:10E1FC00FF36BEE608467FE6242700201CF401000B
:08E20C000CF40100FCF3010019
:10E2140089AD01000000000029C5010000000000D4
:10E2240059A8010000000000F1AA0100D41B00203D
:10E23400CDA6010000000000A3AC0100FC1B0020DF
:10E24400F5930100E41B002031950100000000005B
:10E2540025AE01000000000035C5010000000000EB
:10E2640069D6010000000000A1D8010000000000F0
:08E274006DC301000000000071
:10E27C00101F0020D81F0020E01F0020181F0020B6
:04E28C001800000076
:10E2900037E60100000000003DE60100000000003C
:10E2A00044E601000000000048E601000000000014
:10E2B0004DE601000000000045EE010000000303F0
:10E2C00053E601000000030377E6010000000000B0
:10E2D00031E601000000000024E601000000030315
:10E2E0006FE801000000030330EF010000000303AA
:10E2F00089F1010000000303A4F101000000030301
:10E30000F4E801000000000010E901000000000036
:10E3100018EE01000000000024EE0100781B002030
:10E320000000000000000000759A0100004002009B
:04E330000050020097
:10E3340023D1BCEA5F782315DEEF1212000000003F
:10E3440045726173696E67206D6163005265636530
:10E35400697665642000436F6E6E6563746564005E
:10E364006D61635F61646472657373206164647278
:10E37400657373203A20257800446973636F6E6E69
:10E384006563746564004741545420457674207372
:10E39400797320617472206D697373696E670069A3
:10E3A4006E2064656661756C740042555A5A455214
:10E3B4002064697361626C65640042555A5A45521F
:10E3C40020656E61626C6564004C45445F4469730A
:10E3D400636F6E6E65637420656E61626C65640064
:10E3E4006D61635F61646472657373206D617463EE
:10E3F40068006D61635F61646472657373206E6F3E
:10E4040074206D617463680053617665642061648F
:10E41400647265737320746F20666C617368005056
:10E4240065726970686572616C00526563656976CE
:10E43400657220737461727465642E0072756E6EF9
:10E44400696E672069646C65200000000338FDD89C
:10E4540070470000081B0020281B00202D2D3E20A3
:10E464004576656E742072656365697665643A20E5
:10E474004552524F52207768696C65206578656310
:10E484007574696E6720616E206673746F7261675C
:10E4940065206F7065726174696F6E2E002D2D3E5C
:10E4A400204576656E742072656365697665643AA5
:10E4B400206572617365642025642070616765203E
:10E4C40066726F6D206164647265737320307825A1
:10E4D400782E00496E697469616C697A696E672087
:10E4E4004673746F72616765004572617365642079
:10E4F4004D616300424C4520416464726573733A14
:10E5040020253032783A253032783A253032783A3C
:10E51400253032783A253032783A25303278006A1C
:10E5240075737420696E7369646520736176655FC1
:10E534006D6163203A202578004265666F7265201C
:10E5440077726974696E6720746F20666C61736892
:10E5540000526561642066726F6D20666C61736839
:10E5640000497320617661696C61626C65203A20B0
:10E574002564004D61632061646472657373206671
:10E58400726F6D20666C617368004D616320616415
:10E59400647265737320626C65004973206D6174E5
:10E5A4006368203A20256400110A13140000010155
:10E5B4000100000001010000000001010000000052
:10E5C40073645F626C655F67617474635F657863CD
:10E5D40068616E67655F6D74755F7265717565738B
:10E5E4007428292072657475726E65642025732EF3
:10E5F4000073645F626C655F67617474735F6578F0
:10E604006368616E67655F6D74755F7265706C7960
:10E6140028292072657475726E65642025732E0036
:10E624006E72665F626C655F6761747400636C6FC1
:10E63400636B00434C4F434B004750494F544500D4
:10E6440050525300554152540055415254450061B3
:10E6540070705F627574746F6E00466174616C20D3
:10E664006572726F720053797374656D207265738D
:10E674006574006170705F74696D657200000100FB
:10E684000600000000000000641D0020B1B101007C
:10E6940052544320696E7374616E636520616C72B9
:10E6A4006561647920696E697469616C697A65640D
:10E6B4002E005254433A20696E697469616C697A18
:10E6C40065642E0000000000000000000338FDD83F
:10E6D4007047303132333435363738394142434468
:10E6E4004546705F667300257320636865636B201D
:10E6F4006661696C656420696E202573282920771A
:10E704006974682076616C756520307825782E00F0
:10E71400705F66732D3E705F61706900705F646541
:10E724007374006C656E00616464725F69735F6129
:10E734006C69676E6564333228737263290061649F
:10E7440064725F69735F77697468696E5F626F751D
:10E754006E647328705F66732C207372632C206C54
:10E76400656E2900705F7372630021286C656E20EA
:10E774002520705F66732D3E705F666C6173685F01
:10E78400696E666F2D3E70726F6772616D5F756E34
:10E7940069742900616464725F69735F616C69679D
:10E7A4006E6564333228646573742900616464722D
:10E7B4005F69735F616C69676E65643332282875BD
:10E7C400696E7433325F7429705F737263290061F8
:10E7D4006464725F69735F77697468696E5F626F9E
:10E7E400756E647328705F66732C20646573742C73
:10E7F400206C656E2900616464725F69735F706187
:10E8040067655F616C69676E656428705F66732C09
:10E8140020706167655F6164647229006164647279
:10E824005F69735F77697468696E5F626F756E6440
:10E834007328705F66732C20706167655F61646420
:10E84400722C20286C656E202A20705F66732D3E22
:10E85400705F666C6173685F696E666F2D3E65728A
:10E864006173655F756E69742929006E72665F66EF
:10E8740073746F72616765006E72665F6673746F3E
:10E88400726167655F6572617365006E72665F666B
:10E8940073746F726167655F7772697465006E7215
:10E8A400665F6673746F726167655F726561640049
:10E8B4006E72665F6673746F726167655F696E69B5
:10E8C40074000000001000000400000001000000BB
:10E8D400B1C3010091C3010081C30100C5C501009A
:10E8E40075C5010055C3010059C301005DC3010092
:10E8F4007077725F6D676D7400000000581B002014
:10E9040024E2010024E2010004000000736F727429
:10E914006C697374004E52465F53554343455353D9
:10E92400004E52465F4552524F525F5356435F4822
:10E93400414E444C45525F4D495353494E47004E56
:10E9440052465F4552524F525F534F4654444556C8
:10E954004943455F4E4F545F454E41424C45440048
:10E964004E52465F4552524F525F494E5445524EA5
:10E97400414C004E52465F4552524F525F4E4F5FDC
:10E984004D454D004E52465F4552524F525F4E4FD9
:10E99400545F464F554E44004E52465F4552524FC7
:10E9A400525F4E4F545F535550504F52544544009C
:10E9B4004E52465F4552524F525F494E56414C4962
:10E9C400445F504152414D004E52465F4552524FB2
:10E9D400525F494E56414C49445F5354415445009B
:10E9E4004E52465F4552524F525F494E56414C4932
:10E9F400445F4C454E475448004E52465F45525280
:10EA04004F525F494E56414C49445F464C4147532F
:10EA1400004E52465F4552524F525F494E56414C4A
:10EA240049445F44415441004E52465F4552524F5F
:10EA3400525F444154415F53495A45004E52465F28
:10EA44004552524F525F54494D454F5554004E5212
:10EA5400465F4552524F525F4E554C4C004E524603
:10EA64005F4552524F525F464F5242494444454ECD
:10EA7400004E52465F4552524F525F494E56414CEA
:10EA840049445F41444452004E52465F4552524FFE
:10EA9400525F42555359004E52465F4552524F52AF
:10EAA4005F434F4E4E5F434F554E54004E52465FA8
:10EAB4004552524F525F5245534F555243455300AE
:10EAC4004E52465F4552524F525F4D4F44554C454E
