:020000022000DC
:10600000000001205D630200456302004763020057
:10601000496302004B6302004D6302000000000070
:106020000000000000000000000000004F630200BC
:106030005163020000000000536302005563020038
:1060400095C702005763020051D502005763020052
:1060500057630200576302004DD4020057630200E9
:106060005763020057630200576302005763020040
:106070005763020057630200576302005763020030
:1060800057630200DD90020057630200576302006D
:106090005763020057630200393803005763020058
:1060A0005763020057630200576302005763020000
:1060B0005763020057630200000000000000000068
:1060C00057630200576302005763020057630200E0
:1060D000576302005763020057630200000000008C
:1060E00000000000000000000000000000000000B0
:1060F00000000000000000000000000000000000A0
:10610000000000000000000000000000000000008F
:10611000000000000000000000000000000000007F
:10612000000000000000000000000000000000006F
:10613000000000000000000000000000000000005F
:10614000000000000000000000000000000000004F
:10615000000000000000000000000000000000003F
:10616000000000000000000000000000000000002F
:10617000000000000000000000000000000000001F
:10618000000000000000000000000000000000000F
:1061900000000000000000000000000000000000FF
:1061A00000000000000000000000000000000000EF
:1061B00000000000000000000000000000000000DF
:1061C00000000000000000000000000000000000CF
:1061D00000000000000000000000000000000000BF
:1061E00000000000000000000000000000000000AF
:1061F000000000000000000000000000000000009F
:10620000314932480A1A02D0072291438D4630495B
:1062100030480A1A06D00722914381F309880222E6
:1062200082F314882C482D492D4A00F03CF82D4863
:106230002D492E4A00F037F82D482E492E4A00F0FD
:1062400032F82E482E492F4A00F02DF82E482F49BB
:106250002F4A00F028F82F482F49304A00F023F841
:106260002F483049304A00F01EF8304830490022AB
:1062700000F024F82F483049002200F01FF82F4A80
:1062800090471F481F49884205D00268043003B474
:10629000904703BCF7E700208646EC46002000212B
:1062A000274A9047FEE7884207D0521A05D0037864
:1062B00001300B700131013AF9D17047884202D0A8
:1062C00002700130FAE770470000012000E0002072
:1062D0000000012000000120C8670300CC1D002041
:1062E000E4240020B8630200B8630200163F0300F4
:1062F000C8670300CC1D0020CC1D0020A040030077
:10630000A0400300A0400300A0400300A040030001
:10631000A0400300A0400300A0400300C6670300A4
:10632000E06E0300E4240020E4240020E4240020A4
:10633000ED320020F0320020F032002085630200B0
:10634000F1FD0200FEE7FEE7FEE7FEE7FEE7FEE7FF
:10635000FEE7FEE7FEE7FEE700F002B8FFF7FCBF4E
:106360000F484FF00701884385460E4880470E4886
:10637000016841F470010160BFF34F8FBFF36F8F6D
:10638000FFF73EBF09480A490A4A884207D0521A15
:1063900005D0037801300B700131013AF9D1704713
:1063A00000000120EDBB020088ED00E08C400300FE
:0863B000B81D0020CC1D0020E7
:1063B80000B585B00190019B002B0AD0074B43F034
:1063C80001030393019B9B010293039B0298984747
:1063D80000E000BF05B05DF804FB00BFB04003005B
:1063E80000B583B00190019B002B0AD04FF47A705E
:1063F800FFF7DEFF019B013B0193019B002BF5D1C9
:1064080000E000BF03B05DF804FB08B50AF0D4FA59
:1064180000BF08BD00B589B0039002910192019BAD
:10642800002B33D00023079303230693029A079B7C
:106438001344019A194600200AF06EFA0590079A4B
:10644800059B13440793019A059BD31A0193059B57
:10645800002B13D10F4B1B7883F00103DBB2002B09
:1064680013D10120FFF7BCFF069B013B0693069B57
:10647800002B03D1074B00221A7007E0054B0122BD
:106488001A70019B002BD1D100E000BF00BF09B0FA
:106498005DF804FBE424002000B585B00390029168
:1064A800054B00934023054A0299039800F012F81F
:1064B80000BF05B05DF804FB1D640200E82400205D
:1064C80082B0019000BF02B0704782B0019000BF57
:1064D80002B0704700B5A1B00590049103920293F1
:1064E800049803F0CBFD039B1593029B169300239E
:1064F800179300238DF8603000231993229B1A9379
:1065080000231F930FA91F9B0822049803F090FEF5
:1065180008231F93119B1293BDF84030ADF84C30FF
:10652800BDF84230ADF84E3000238DF851309DF85B
:106538003C3003F00303DBB2012B26D10F9BC3F3DE
:1065480095231C939DF83C30C3F3C203DBB28DF84E
:106558005030BDF83C30C3F38313DBB21B931B9B55
:106568009A0009A91F9B049803F062FE1B9B9B00DD
:106578001F9A13441F9312AA09A915AB0093134637
:106588001B9A1C9801F026F82FE09DF83C3003F088
:106598000303DBB2022B28D1BDF83E30C3F38913C5
:1065A8009BB21E939DF83C30C3F3C203DBB28DF857
:1065B80050301E9B082B28BF08231D9307A91F9B3B
:1065C8001D9A049803F034FE1F9A1D9B13441F93D1
:1065D8001E9A1D9BD31A1E9315AB12AA07A81D99C4
:1065E80001F09AF81E9B002BE3D1049803F055FDA7
:1065F80000BF21B05DF804FB00B583B00190019B9A
:106608001B781A460C4B9B5C002B05D0019B04336E
:10661800184608F065FA0BE0019B1B781A46064BF2
:106628009B5C002B04D1019B0C33184607F0EAFB56
:1066380000BF03B05DF804FBB82C002000B587B09C
:106648000390029113468DF8073000230593039BAE
:106658001B781A46114B9B5C002B09D0039B043313
:106668009DF807200299184608F09CFA05900FE05B
:10667800039B1B781A46094B9B5C002B08D1039B94
:106688000C339DF807200299184607F033FC059053
:10669800059B184607B05DF804FB00BFB82C002026
:1066A80082B001900091034B01221A7000BF02B022
:1066B800704700BF6825002030B58DB003468DF8BF
:1066C80007301A4B02AC1D460FCD0FC495E80F00DA
:1066D80084E80F00062302934FF0FF3303934FF033
:1066E800FF3304934FF0FF3305934FF0EB73089398
:1066F8009DF80730002B01D00D4A00E0002202ABC4
:1067080019460C4805F05CFE0B900B9B0A930A9BFC
:10671800002B04D0084A43210A9801F0A3FB074A3A
:106728009DF80730137000BF0DB030BD4041030025
:10673800A9660200CC1D0020B8400300692500208E
:1067480000B583B001238DF807309DF8073018464F
:10675800FFF7B2FF00BF03B05DF804FB00B589B0D6
:10676800039002910192019B8DF81F30124B002279
:106778001A709DF81F301A4602991048FFF75EFFFD
:106788000690069B0593059B002B04D00C4A5321C9
:10679800059801F067FB00BF0A4B1B78002B07D058
:1067A800054B1B78DBB283F00103DBB2002BF3D17E
:1067B80000BF09B05DF804FB68250020CC1D00204F
:1067C800B84003006925002000B585B00390029108
:1067D800054B00934023054A02990398FFF77AFE78
:1067E80000BF05B05DF804FB65670200282500209E
:1067F80082B0019000BF02B07047000000B583B0BE
:1068080001900548FFF7F8FE0020FFF755FF00BF8D
:1068180003B05DF804FB00BFCC1D002082B00190DE
:10682800019BDB6801225A7100BF02B0704700006B
:1068380000B583B04FF0FF330193FFF7E6FD042165
:10684800114800F0E3FD0190019B002B03DA0F498A
:10685800412008F0A5FD0C48FFF7E0FFFFF770FFA7
:1068680004210B4800F0D2FD0190019B002B03DAB4
:106878000649482008F094FD0548FFF7CFFF00BF00
:1068880003B05DF804FB00BF6C40030090410300B7
:106898007C40030000B583B001900091019B1B6808
:1068A8001B6800990198984700BF03B05DF804FB86
:1068B80000B583B00190019B1B685B6801989847FD
:1068C80000BF03B05DF804FB00B583B00190019BE5
:1068D8001B689B680198984700BF03B05DF804FBEC
:1068E80082B001900B468DF80330019BDB689DF860
:1068F80003201A7100BF02B0704782B00190019B5B
:10690800DB681B79184602B0704782B00190019B82
:10691800DB6801225A7100BF02B0704782B0019053
:10692800019BDB685B79184602B0704700B585B0FB
:10693800019000910C4B00221A700C4803F002FBE6
:106948000390039B002B01D0039B08E0084803F049
:1069580009FF084A084BD31ADB080293002318469C
:1069680005B05DF804FB00BFD426002008400300F2
:106978000442030008400300683F0300024A034B37
:10698800D31ADB081846704708400300683F030025
:1069980000B587B001900B468DF803309DF80330A1
:1069A800002B1FD0FFF7EAFF04900023059313E0A4
:1069B800059B9B000E4A13440393039B1B881A46AE
:1069C800019B1B689A4204D1019B059A1A60002317
:1069D80009E0059B01330593059A049B9A42E7D386
:1069E800052300E00023184607B05DF804FB00BF4C
:1069F800B81D002000B585B001900B468DF8033016
:106A08009DF8032001AB11461846FFF7C1FF034666
:106A1800002B07D1019BDB00054A13440393039B1A
:106A28001B6800E00023184605B05DF804FB00BFB2
:106A3800683F030084B001900B468DF80330019B3A
:106A4800DB00174A134402939DF80330013B032BE4
:106A58001CD801A252F823F0716A0200796A020078
:106A6800816A02008B6A020002238DF80F3011E060
:106A780004238DF80F300DE0029B1B798DF80F3041
:106A880008E0029B5B798DF80F3003E000238DF856
:106A98000F3000BF9DF80F30184604B0704700BF94
:106AA800683F030084B00190009100238DF80F30F7
:106AB800019B1B7803F00403DBB2002B24D0019B5D
:106AC8001B78C3F30103DBB2012B02D0022B0CD0DD
:106AD80017E0009B1B68019A1288C2F38312D2B296
:106AE80013449A1C009B1A600BE0009B1B68019AD8
:106AF8005288C2F3891292B213449A1C009B1A60FE
:106B080000BF01238DF80F309DF80F30184604B0F0
:106B18007047000000B58BB00023ADF826303E4822
:106B280002F01CFD3D4802F019FD3D4B9B680493A3
:106B38003C4B1B680693049A069B134002339B0048
:106B4800374A13440433089304AB19460898FFF7EF
:106B5800A9FF0346002B09D0049A069B1340023371
:106B68009B002F4A134404330893EDE700BF00232A
:106B7800079311E0049B5A1C0492069A1340079A43
:106B8800920001A90A44264902339B000B445B6822
:106B98001360079B01330793079B012BEAD99DF8E4
:106BA8000430C3F30103DBB2012B10D0022B1CD13C
:106BB800BDF80A30ADF82630BDF80630C3F38913A6
:106BC8009BB203339A08049B1344049313E0BDF863
:106BD8000A30ADF82630BDF80430C3F38313DBB2B6
:106BE8001A46049B1344049305E00F494FF4C270FE
:106BF80008F0D6FB00BF094802F0BCFC0590059BD5
:106C0800002B02D0049B064A9360BDF82630184634
:106C18000BB05DF804FB00BFEC2A0020E82A002036
:106C2800D4260020F01D00201442030000B585B0D2
:106C38000021074802F0DFFB0390039B0293029BAD
:106C480083F310030193019B184605B05DF804FB1C
:106C5800F02A002000B589B00390029101920093B8
:106C6800039B1B0C0793FFF7E1FF0690FFF786FED7
:106C78000246079B934204D3214940F2A91008F029
:106C88008FFB069B1904009B5A1C0A9B1340079A0A
:106C98000A431C4902339B000B445A60009A0A9B22
:106CA800134002339B00174A134404330593039B94
:106CB80003F00703D9B2059A137861F3C50313707B
:106CC800019B03F00F03D9B2059A138861F3891366
:106CD8001380029BC3F31501059A136861F39F2380
:106CE8001360059A1378012161F301031370059A63
:106CF80013786FF38203137000BF09B05DF804FBCB
:106D080014420300D426002000BF704700B58DB0A0
:106D18000390029113468DF80730039B02330A93C0
:106D280001238DF8273000238DF81B300DF11B034C
:106D3800184601F0A3FD404B5A68029B1A603F4B6E
:106D48001A683D4B99683C4B5B68CB1A1344013376
:106D58000B9314E001213A4802F0C4FBFFF7DAFE76
:106D680007900799364802F0BDFB344B1A68324B3E
:106D78009968314B5B68CB1A134401330B930A9A19
:106D88000B9B9A42E6D89DF82730002B48D0002369
:106D980005939DF80730002B17D09DF81430012279
:106DA80062F301038DF814309DF8143043F00403A6
:106DB8008DF81430039B03F00F03DAB2BDF81430DA
:106DC80062F38913ADF8143016E09DF814300222EE
:106DD80062F301038DF814309DF8143043F0040376
:106DE8008DF81430039BC3F309039AB2BDF816302B
:106DF80062F38F13ADF816300F4B5A680F4B1B68B0
:106E0800134002339B000C4A134404330893059A39
:106E1800089B1A60084B5A680A9B1344064A536039
:106E28009DF81B30184601F03FFD9DF827301846A5
:106E38000DB05DF804FB00BFD4260020F01D002033
:106E4800F02A002000B58BB00590049103920293BC
:106E5800204B1B68079306AB012219460298FFF7DF
:106E680055FF0346002B24D0069B023309930023C9
:106E7800089311E0089B9B00039A1A44099B591C2C
:106E8800099107990B401268134902339B000B4480
:106E98005A60089B01330893089A029B9A42E9D3E7
:106EA800069A079B00931346029A04990598FFF7E0
:106EB800D1FE094B1B78002B05D000BF00F09CF8D1
:106EC8000346002BFAD1FFF71FFF00BF0BB05DF898
:106ED80004FB00BFF01D0020D426002000B583B0BD
:106EE800019000910023002200990198FFF7AAFF62
:106EF80000BF03B05DF804FB00B587B003900291B2
:106F08000192019B059305AA012302990398FFF7B3
:106F180099FF00BF07B05DF804FB00B587B0039088
:106F2800029101920093019B0493009B059304AA8C
:106F3800022302990398FFF785FF00BF07B05DF8A9
:106F480004FB00B589B00390029101920093019B64
:106F58000593009B06930A9B079305AA03230299AE
:106F68000398FFF76FFF00BF09B05DF804FB00B599
:106F78008BB00390029101920093019B0593009BB3
:106F880006930C9B07930D9B08930E9B099305AAE8
:106F9800052302990398FFF755FF00BF0BB05DF872
:106FA80004FB00B58BB00390029101920093019B02
:106FB8000493009B05930C9B06930D9B07930E9BD4
:106FC80008930F9B099304AA062302990398FFF7D5
:106FD80039FF00BF0BB05DF804FB0000054B9A6851
:106FE800044B5B689A420CBF01230023DBB21846AE
:106FF800704700BFD426002000B599B0FFF7EEFF18
:107008000346002B01D00023C0E19B4B0022C3F8AC
:107018001824BFF34F8F00BF974B9B680493974B7F
:107028001B681093049A109B134002339B00924AEA
:10703800134404331193002317930023169300235A
:107048000F9304AB19461198FFF72CFD0346002B4C
:1070580019D0894BD3F81834002B14D1864B5A68B1
:10706800049B9A4205D8844B5B68834A936000234B
:107078008CE1049A109B134002339B007E4A134410
:1070880004331193DDE70023159311E0049B5A1C88
:107098000492109A1340159A920001A90A4476495D
:1070A80002339B000B445B681360159B01331593F7
:1070B800159B012BEAD99DF8043003F00303DBB2DA
:1070C800022B40F09C80BDF80630C3F389139BB2B5
:1070D8000D93BDF80630C3F389139BB2502B28BF1C
:1070E80050239BB20C930C9BC3F309039AB2BDF8CF
:1070F800063062F38F13ADF806300C9B08330B9300
:107108009DF80430C3F3C203DBB20F930B995C48BC
:1071180002F023FF1790179B002B00F0D3801798DD
:1071280002F0ACFF01A9169B0822179803F062F839
:10713800169B08331693049BDA43109B13400133C4
:107148009B000A930C9A0A9B9A4242D90A9B002BED
:1071580008D0049A109B134002339B00464A1344FC
:10716800043300E0474B08930A9B002B02D00A9B8C
:10717800DBB201E00C9BDBB28DF81F300A9B002BC1
:1071880001D0404B00E0002306930A9B002B06D059
:107198000C9BDAB20A9BDBB2D31ADBB200E0002305
:1071A8008DF817309DF81F20169B0899179803F043
:1071B80021F89DF81F30169A13441693069B002B4E
:1071C80016D09DF81720169B0699179803F012F809
:1071D8000EE0049A109B134002339B00264A134486
:1071E80004330993169B0C9A0999179803F002F82F
:1071F8000D9B03339A08049B1344049362E09DF8A3
:10720800043003F00303DBB2012B5BD1BDF804307B
:10721800C3F38313DBB2062B28BF0623DAB2BDF80B
:10722800043062F38913ADF80430BDF80430C3F3B9
:107238008313DBB202330E939DF80430C3F3C20309
:10724800DBB20F930E9B9B0019460D4802F085FE9A
:107258001790179B002B35D0179802F00FFF01A944
:10726800169B0822179802F0C5FF169B0833169341
:10727800002315931DE000BFD4260020F01D002038
:1072880008400300E0260020049B5A1C0492109A30
:10729800134002339B003F4A1344191D169B0422D6
:1072A800179802F0A7FF169B04331693159B01331A
:1072B8001593BDF80430C3F38313DBB21A46159B4C
:1072C8009342E1D3179B002B40D0324BD3F81034B4
:1072D8001493304BD3F81834002B1BD0179802F0B6
:1072E800DCFE4DE000238DF84F301498FFF716FBB5
:1072F8000346002B02D001238DF84F309DF84F3004
:10730800002B03D017991498FFF7C4FA149BDB6875
:107318001B681493149B002BE4D1179802F0BDFE50
:1073280000238DF803300DF10303184601F0A6FA87
:10733800184BD3F81834002B02D1049B154A9360DC
:107348009DF80330184601F0AFFA19E0114BD3F855
:107358001034129306E01298FFF7B6FA129BDB6816
:107368001B681293129B002BF5D10B4A0B4BD31AB7
:10737800DB081B0443F0020309491846FFF7AEFD7A
:10738800FFF72CFE034683F00103DBB2184619B061
:107398005DF804FBD4260020903F0300683F0300FB
:1073A8009842030000B585B00023039323E0164BF1
:1073B800D3F81034029301238DF807300FE00298B8
:1073C800FFF79BFA03461A46039B934203D1002317
:1073D8008DF8073006E0029BDB681B680293029B6E
:1073E800002BECD19DF80730002B01D0039B07E060
:1073F800039B01330393039B092BD8DD4FF0FF3325
:10740800184605B05DF804FBD426002000B585B009
:1074180001900B468DF80330FFF7C4FF0390039BE0
:10742800B3F1FF3F01D1039B22E0039BDBB2194676
:107438000198FFF755FA104BD3F81034002B08D1F8
:107448000D4A019BC2F81034019BDB6800221A60C8
:107458000DE0094BD3F81034DA68019BDB68126839
:107468001A60054BD3F81034DB68019A1A60039B45
:10747800184605B05DF804FBD426002000B583B09B
:107488000C4BD3F8103401930A4B01221A7009E00F
:107498000198FFF73AFA0198FFF70AFA019BDB68AF
:1074A8001B680193019B002BF2D100BF00BF03B002
:1074B8005DF804FBD426002082B00190009100BF43
:1074C80002B0704710B584B003900291039BDB882B
:1074D800002B0AD0039BDB881A461F4B00931346E8
:1074E8001E4A1F49029802F081F9039B1B7A052B5B
:1074F8002ED0039B5B7A002B12D0039B9B881A46E5
:10750800039B1B7A19461046FFF794FA03461A465E
:10751800144B53F822301A461349029802F066F9C0
:10752800039B1B6819460298FFF7C6FF039B1B7A4B
:107538001A460E4B53F82240039B9B88002118469D
:10754800FFF758FA034622460949029802F04EF915
:1075580000BF04B010BD00BFCC420300DC420300F2
:1075680014430300081E00202C430300F41D0020D0
:107578003043030000B585B00390029113468DF89F
:107588000730039B1B7A052B0FD0039B5B7A002BDC
:1075980006D00D4B1B681A460C49029802F026F9D2
:1075A8000B49029802F022F907E09DF80730002BFA
:1075B80003D00749029802F019F9029802F0F4F88A
:1075C80000BF05B05DF804FB081E00202C43030033
:1075D8003C43030030B58BB00790069105920493A5
:1075E8000E9B1B7B8DF827300E9B00221A730E9979
:1075F8000498FFF767FF059B062B7FD801A252F876
:1076080023F000BF29760200337602004376020099
:1076180057760200757602009D760200CD7602004C
:1076280007990E9802F0E2F869E0069B1B681A4673
:1076380007990E9802F0DAF861E0069B1A68069B33
:1076480004331B6807990E9802F0D0F857E0069BA0
:107658001A68069B04331968069B08331B68009355
:107668000B4607990E9802F0C1F848E0069B196886
:10767800069B04331868069B08331B68069A0C326D
:1076880012680192009303460A4607990E9802F081
:10769800ADF834E0069B1868069B04331C68069B0B
:1076A80008331B68069A0C3212680699103109686B
:1076B8000291019200932346024607990E9802F020
:1076C80095F81CE0069B1C68069B04331D68069B06
:1076D80008331B68069A0C3212680699103109683B
:1076E80006981430006803900291019200932B468B
:1076F800224607990E9802F079F800E000BF0022B0
:107708000E990498FFF736FF0E9B9DF827201A73F1
:1077180000BF0BB030BD00BF00B587B00390029129
:1077280001920093029B082B60D8009B1B7B8DF86D
:107738001330009B00221A7300990198FFF7C2FECC
:107748000023059314E0059A029B9A4209D2039AF2
:10775800059B13441B781A462649009802F046F800
:1077680003E02549009802F041F8059B0133059391
:10777800059B072BE7D92149009802F037F8002329
:10778800059326E0059A029B9A421BD2039A059B11
:1077980013441B788DF812309DF812307E2B0AD8CE
:1077A8009DF8123018460CF0BDFA0346002B02D0A3
:1077B8009DF8123000E02E231A461149009802F075
:1077C80015F803E00F49009802F010F8059B013303
:1077D8000593059B072BD5D9012200990198FFF73E
:1077E800C9FE009B9DF813201A7300E000BF07B084
:1077F8005DF804FB40430300484303004C43030087
:10780800504303005443030084B003468DF8073007
:107818009DF807305B08DBB21A460D4B9B5C8DF870
:107828000F309DF8073003F00103002B04D09DF8BA
:107838000F301B09DBB204E09DF80F3003F00F0393
:10784800DBB28DF80E309DF80E30184604B0704744
:10785800082B002084B003460A468DF807301346EB
:107868008DF806309DF8073003F00103002B01D096
:107878000F2300E0F0238DF80F309DF8073003F058
:107888000103002B04D09DF806301B01DBB201E098
:107898009DF806308DF80E309DF807305B08DBB296
:1078A8001A46114B9A5C9DF807305B08DBB2194603
:1078B8009DF80F301340DAB20B4B5A549DF807303D
:1078C8005B08DBB21A46084B9A5C9DF807305B08E8
:1078D800DBB219469DF80E301343DAB2024B5A5404
:1078E80000BF04B0704700BF082B002000B585B06A
:1078F80003468DF807300023039310E00F4B1A68F6
:10790800039BDB0013440293029B1B789DF807201E
:107918009A4201D1029B0DE0039B01330393084B6C
:107928001B781A46039B9342E8DB0649882007F038
:1079380037FD0023184605B05DF804FBF42A002043
:10794800F82A00206443030000B585B003460A46C0
:107958008DF8073013468DF806309DF80730184625
:10796800FFF7C4FF0390039B002B0BD0039B5B68BE
:10797800002B07D0039B5B689DF806109DF8072035
:107988001046984700BF05B05DF804FB2DE9F04F9D
:1079980087B003460A468DF80F3013468DF80E302F
:1079A8009DF80F301846FFF72FFF0346042B00F20F
:1079B800C28001A252F823F0D5790200497A020068
:1079C800657A0200957A0200AB7A02009DF80E30C3
:1079D800002B00F0AD809DF80F3001211846FFF70D
:1079E80039FF00238DF817300DF11703184600F002
:1079F80045FF9DF80F104FF001024FF00003A1F171
:107A08002004C1F1200003FA01F702FA04F4274325
:107A180022FA00F0074302FA01F6494BD3E90023A2
:107A280046EA020100913B430193454BDDE9001210
:107A3800C3E900129DF81730184600F035FF77E0CB
:107A48009DF80E30002B01D0022200E000229DF8A4
:107A58000F3011461846FFF7FDFE6CE09DF80E301A
:107A6800002B0CD09DF80F3003211846FFF7F2FECB
:107A78009DF80F3001211846FFF766FF5BE09DF87F
:107A88000F3001211846FFF7E5FE54E09DF80E304F
:107A9800002B4FD19DF80F3004211846FFF7DAFE6E
:107AA80048E09DF80E30002B06D09DF80F300321DA
:107AB8001846FFF7CFFE3EE09DF80F30002118462C
:107AC800FFF7C8FE9DF80F3000211846FFF73CFF6E
:107AD80000238DF816300DF11603184600F0CEFE7F
:107AE8009DF80F104FF001024FF00003A1F120069E
:107AF800C1F1200003FA01F502FA06F6354322FA2D
:107B080000F0054302FA01F46FEA04086FEA050978
:107B18000B4BD3E9002308EA020A09EA030B084BD6
:107B2800C3E900AB9DF81630184600F0BDFE02E030
:107B380000BF00E000BF00BF07B0BDE8F08F00BF86
:107B4800002B002000B583B00648074B1B685B0874
:107B58000022194600F0B0FD019000BF03B05DF8A7
:107B680004FB00BF301E0020FC2A002000B587B0AF
:107B780001900023059328E01C4B1A68059BDB0045
:107B880013440493049B1B78184605F0ABFB03468B
:107B98008DF80F30049B5B78012B0CBF0123002369
:107BA800DBB21A469DF80F309A420CBF012300231E
:107BB8008DF80E30049B1B789DF80E201146184650
:107BC800FFF7E4FE059B01330593094B1B781A4622
:107BD800059B9342D0DB074BD3E90023134301D025
:107BE800FFF7B0FF00BF07B05DF804FBF42A0020E0
:107BF800F82A0020002B002000B585B001900B4624
:107C08008DF80330019BDBB21846FFF76FFE039037
:107C1800039B1B78184605F065FB03468DF80B306F
:107C2800039B5B78012B0CBF01230023DBB21A46B0
:107C38009DF80B309A420CBF012300238DF80A30BF
:107C48009DF80A30002B06D0054BD3E900231343D7
:107C580001D1FFF777FF00BF05B05DF804FB00BF57
:107C6800002B002000B58BB003900B4601928DF8D5
:107C78000B30019B092B01D8072367E005F026FA92
:107C8800034683F00103DBB2002B09D005F0BAF9F3
:107C98000990099B0893089B002B01D0089B55E08D
:107CA8002C4A039B13602C4A9DF80B3013702B4A07
:107CB800019B13601022002129480CF09EF82949E5
:107CC8004FF000024FF00003C1E9002331E09DF8B6
:107CD8000B30DB00039A1344079303238DF8143009
:107CE80000238DF815309DF816306FF300038DF8DA
:107CF80016309DF816306FF341038DF816309DF855
:107D080016306FF382038DF81630079B9B788DF839
:107D18001530079B1B78184605AB134A194605F022
:107D2800E1F90990099B0693069B002B01D0069B5D
:107D38000CE09DF80B305A1E8DF80B20002BC6D195
:107D48000A4A00210A4800F07DFC034618460BB099
:107D58005DF804FBF42A0020F82A0020FC2A002001
:107D6800082B0020002B0020017C0200757B0200FC
:107D7800E443030000B583B0114B1B68002B04D10A
:107D8800104940F2351007F00BFB002301930CE07B
:107D98000B4B1A68019BDB0013441B780121184622
:107DA80005F01CFA019B01330193074B1B781A4617
:107DB800019B9342ECD30023184603B05DF804FB03
:107DC800F42A002064430300F82A002086B00390B8
:107DD8000291019201238DF817309DF81730204A3F
:107DE800039B13601E4A029B53601D4A019B9360CC
:107DF800039B44F20102934212D0039B44F2020215
:107E0800934220D1019B164AD360154BDB681B684F
:107E1800134A9361124BDB685B68114AD36112E025
:107E2800019B0F4A13610E4B1B699B680C4A5361F7
:107E38000B4B1B691B680A4A9361094B1B695B68FA
:107E4800074AD36100BF72B600BF00BF9DF8173064
:107E5800DBB2002BFAD162B600BF00BF06B0704794
:107E6800182B002000B583B002900091019244F2D3
:107E7800010071466A4600F003F803B000BD00BF78
:107E880030B58BB007900691059272B600BFFFF728
:107E9800F5FA00BFFFF7B0F80346002BFAD1079BAD
:107EA80044F2020293422FD0079B44F2020293420B
:107EB80069D8079B44F20102934237D0079B44F2EA
:107EC800010293425FD8079B012B05D0079B41F223
:107ED800010293420CD056E0394A3A4BD31ADB08D8
:107EE8001B0443F0010338491846FEF7F7FF57E033
:107EF800334A344BD31ADB081B0443F001033349DC
:107F08001846FEF7EBFF4BE0059B09932C4A2D4BD7
:107F1800D31ADB081B0443F00100099B5B681A466F
:107F2800099B1B682A49FEF7F8FF39E0059B08936F
:107F3800234A244BD31ADB081B0443F00104089B93
:107F48009D68089B9B68184602F02CFD034618465E
:107F5800089B5B681946089B1B68069A0292019366
:107F6800009103462A461B492046FFF700F8144AA9
:107F7800144BD31ADB081B0443F0010316491846B7
:107F8800FEF7ACFF0CE00E4A0E4BD31ADB081B04BD
:107F980043F00103069A11491846FEF7ADFF00BFEA
:107FA8000F4B1B6803F00103002B00D000BE059A9D
:107FB80006990798FFF70AFF00BF0BB030BD00BF56
:107FC800903F0300683F0300E843030008440300B0
:107FD8002C44030048440300704403008444030015
:107FE800F0ED00E02DE9F04383B0144801F057F8B4
:107FF800034600221C461546114BD3E9002314EB17
:10800800020845EB0309CDE900890E4BD3E90023AB
:10801800DDE90001904271EB030307D2DDE900239B
:1080280012F1807643F10007CDE90067DDE900230E
:108038001046194603B0BDE8F08300BF501E00206B
:10804800402B0020482B002088B001900091019B14
:108058000793009B0693079BD3E90223CDE90423EA
:10806800069BD3E90223CDE90223DDE90423DDE9F8
:108078000201904271EB03032CBF01230023DBB202
:10808800184608B070470000F0B585B00190019B14
:108098005B69002B03D14349A52007F081F9002330
:1080A8008DF80F30404B1B78002B75D0019B002BAF
:1080B80072D0FFF797FF019BD3E90223904271EB3F
:1080C800030358D300238DF80D300DF10D03184626
:1080D80000F0D4FB019B1B69002B06D101994FF0DE
:1080E800FF324FF0FF33C1E902239DF80D301846E7
:1080F80000F0DAFB019B5B69019A92691046984788
:1081080000238DF80C3003AB184600F0B7FB019B39
:108118001B69002B1AD0019BD3E90223B3F1FF3F5F
:1081280008BFB2F1FF3F11D0019BD3E902230199A7
:10813800096900200C460546161943EB0507019B03
:10814800C3E9026701238DF80E3002E000238DF8A1
:108158000E309DF80C30184600F0A6FB9DF80E3046
:10816800002B19D0019B1946104802F075FB01231A
:108178008DF80F3010E0019BD3E90223B3F1FF3FE4
:1081880008BFB2F1FF3F07D0019B1946074802F02C
:1081980063FB01238DF80F309DF80F30184605B0AA
:1081A800F0BD00BFA84403003C2B00202845030075
:1081B80030B58BB0019000910D230993009B0022EC
:1081C8001A70019BD3E90223CDE90623FFF70AFFC2
:1081D800DDE90623141A63EB0105CDE90445DDE961
:1081E8000423012A73F1000318DB049BB3F5350F50
:1081F80005D300F0C5FA0246144B134400E0069B71
:1082080003934FF49603039A0021114800F03AFEB5
:108218000990099B002B05D1012314E000210C488B
:1082280000F008FF099B0D2B07D10198FFF72CFFE1
:1082380003461A46009B1A7004E006494FF48670FC
:1082480007F0AEF8002318460BB030BDFFFFB400AE
:10825800501E0020A844030000B583B0044802F073
:1082680035FB0190019B184603B05DF804FB00BF85
:108278002845030000B583B0044802F049FB01908B
:10828800019B184603B05DF804FB00BF28450300B6
:1082980000B583B0FFF7E0FF0190019B002B06D0EB
:1082A80001994FF0FF324FF0FF33C1E90223019BE0
:1082B800002BEFD100BF00BF03B05DF804FB000046
:1082C800054BD3E9002312F1807043F10001024B02
:1082D800C3E9000100BF7047402B002010B582B0F1
:1082E8000190124B1B68002B1DD0019800F0D7FE9F
:1082F80004460021019800F0C3FE034619462046B3
:1083080000F032FA0346B3F5960F04D3084940F259
:10831800411007F045F8054B1B681846FFF7B4FEF7
:10832800024B00221A6000BF02B010BD382B00209B
:10833800A844030000B583B00190FFF753FE02463E
:108348000B460349C1E9002300BF03B05DF804FBF5
:10835800482B002000B587B00190FFF78BFF0490F1
:1083680000238DF81730049B002B58D0049BD3E9C9
:108378000223B3F1FF3F08BFB2F1FF3F02D1FFF77D
:108388006BFF54E02E4B1B68002B03D101238DF8A3
:1083980017301DE0049BD3E90201294B1B68D3E980
:1083A8000223904271EB030312D201238DF8173098
:1083B800234B1B68D3E90223B3F1FF3F08BFB2F197
:1083C800FF3F05D01E4B1B6819461E4802F044FAB1
:1083D8009DF81730002B2BD0FFF73EFF04900DF1CE
:1083E8000F0319460498FFF7E3FE0346002B12D04B
:1083F800134B1B68002B02D1019800F04FFC104A68
:10840800049B13609DF80F3083F00103DBB2002B4F
:10841800A3D000BF0FE00A4B00221A609DE7084B6B
:108428001B68002B06D1019800F04EFC02E094E78F
:1084380000BF00E000BF00BF07B05DF804FB00BF4D
:10844800382B00202845030000B587B001902B4A3F
:1084580003AB1946104600F058FF049045E0049B12
:108468001B78022B2BD0022B2FDC002B02D0012BE8
:1084780011D02AE0049B5B68D3E90223B3F1FF3FE4
:1084880008BFB2F1FF3F22D0049B5B6819461C4825
:1084980002F0E2F91BE0049B5A681A4B1B689A42E7
:1084A80003D1184B00221A6012E0049B5B6819463E
:1084B800134802F041FA03468DF8173008E0FFF739
:1084C800E7FE114B01221A7002E000BF00E000BF76
:1084D8000A4A03AB1946104600F030FF074A03ABBF
:1084E8001946104600F011FF0490049B002BB6D1EA
:1084F80000BF00BF07B05DF804FB00BFA82B002039
:1085080028450300382B00203C2B002000B583B001
:108518000190019800F081FD0346002B01D0FFF780
:10852800CFFE0021019800F096FD0346002B02D0F3
:108538000198FFF7D3FE0121019800F08CFD034656
:10854800002B02D00198FFF7F5FE0198FFF77CFF9A
:108558000198FFF7FFFE00BF03B05DF804FB0000C1
:1085680008B5024800F0A8FD00BF08BD501E002055
:1085780000B585B0034600918DF80730114A02AB6B
:108588001946104600F094FE0390039B002B13D06D
:10859800039B9DF807201A70039B009A5A60094AAA
:1085A80002AB1946104600F09CFE0346002B01D092
:1085B800FFF7D6FF002300E00423184605B05DF856
:1085C80004FB00BFA82B002000B583B0164B1B6826
:1085D8000093164808235822154900F022FE0190FE
:1085E800019B002B01D0019B19E06B46114A1946EB
:1085F800114800F0D5FA0190019B002B01D0019B96
:108608000DE001210C4800F0F7FC01230B4A012181
:10861800094800F06FFB0A4B01221A70019B1846AB
:1086280003B05DF804FB00BF24450300A82B00201D
:10863800502B002015850200501E0020FFFF7F00F0
:108648003C2B002000B587B003900B4601928DF8B3
:108658000B30039B002B04D1164940F25A2006F038
:108668009FFE019B002B04D1124940F25B2006F0CB
:1086780097FE019B002B01D1072317E0039B1B6882
:10868800059305994FF0FF324FF0FF33C1E90223FC
:10869800059B019A5A619DF80B30012B0CBF0123F1
:1086A8000023DBB21A46059B1A610023184607B05F
:1086B8005DF804FBA8440300F0B589B0039002916B
:1086C8000192039B002B04D1264940F26B2006F04F
:1086D80067FE039B069300238DF817300DF11703EF
:1086E800184600F0CBF8069BD3E90223B3F1FF3F0D
:1086F80008BFB2F1FF3F11D1FFF774FC02460B46E9
:10870800029900200C460546161943EB0507069BFF
:10871800C3E9026701238DF81F3002E000238DF8BA
:108728001F309DF81730184600F0BEF89DF81F302E
:1087380083F00103DBB2002B01D000230EE0069B7F
:10874800019A9A61069B1B69002B02D0069B029A2C
:108758001A6106990020FFF70BFF0346184609B077
:10876800F0BD00BFA844030082B001900091019AB7
:10877800009BD31A23F07F43184602B070470000CD
:1087880008B5034800F08BFC0346184608BD00BF37
:10879800501E002082B0EFF310830093009B0193DA
:1087A80072B600BF019B184602B0704762B600BFA0
:1087B80000BF704700B585B00190FFF7EBFF03904D
:1087C800164B9B68002B1BD1144B01229A60144B4B
:1087D800D3F88020134B1340104A1360104B114AF2
:1087E800C3F880200E4BD3F884300C4A53600C4BEE
:1087F8004FF0FF32C3F88420019B00221A7002E078
:10880800019B01221A70039B002B01D1FFF7CEFFB9
:108818000023184605B05DF804FB00BFBC2B002000
:1088280000E100E0FC06FFBD00B585B003468DF809
:108838000730104B9B68002B16D09DF80730002B93
:1088480012D1FFF7A7FF03900B4A0A4B1B6813606E
:10885800094A084B5B685360064B00229A60039BE9
:10886800002B01D1FFF7A2FF0023184605B05DF8E1
:1088780004FB00BFBC2B002000E100E000B583B082
:10888800019000F02BF80346012B03D00549432043
:1088980006F086FD0198FFF78DFF00BF03B05DF875
:1088A80004FB00BF3445030000B583B003468DF8D0
:1088B800073000F013F80346012B03D00649512076
:1088C80006F06EFD9DF807301846FFF7ADFF00BFB4
:1088D80003B05DF804FB00BF3445030084B0EFF338
:1088E80005830193019BC3F308030393039B002BA8
:1088F8000DD1EFF314830093009B0293029B03F0C6
:108908000103002B0CBF01230023DBB200E001238D
:10891800184604B07047000082B003468DF807304F
:108928009DF90730002B0CDB9DF8073003F01F0280
:1089380005499DF907305B09012000FA02F241F868
:10894800232000BF02B0704700E100E082B0034678
:108958008DF807309DF90730002B0DDB9DF80730A7
:1089680003F01F0206499DF907305B09012000FA50
:1089780002F2403341F8232000BF02B0704700BF25
:1089880000E100E082B0034600918DF807309DF9C0
:108998000730002B0ADB009BDAB20C499DF907303F
:1089A8005201D2B20B4483F800230BE0009BDAB2E9
:1089B80007499DF8073003F00F03043B5201D2B278
:1089C8000B441A7600BF02B0704700BF00E100E018
:1089D80000ED00E000B583B003460A468DF8073085
:1089E80013468DF806309DF80630012B03D99DF803
:1089F8000630032B0BD99DF80630042B03D99DF8BC
:108A08000630072B03D908496B2006F0C9FC9DF8EE
:108A180006209DF9073011461846FFF7B3FF00BF3F
:108A280003B05DF804FB00BFB845030000B583B090
:108A380003468DF807309DF907301846FFF76CFF9D
:108A480000BF03B05DF804FB00B585B00190019B41
:108A5800002B0AD0074B43F001030393019B9B01B2
:108A68000293039B0298984700E000BF05B05DF8A9
:108A780004FB00BFE046030084B00390029101921A
:108A8800039B029A02F5A872019943F8221000BFCD
:108A980004B0704782B001900091019B009A02F5E2
:108AA800A87253F82230184602B0704782B001907D
:108AB8000091019B009AC3F8042300BF02B07047DD
:108AC80082B001900091019B009AC3F8082300BF6F
:108AD80002B0704782B001900B46ADF80230BDF885
:108AE8000230019A13441B68184602B0704784B0DC
:108AF80001900B46ADF80230BDF80230019A1344DC
:108B080000221A60BDF80230019A13441B680393CF
:108B1800039B00BF04B0704782B00190019BD3F85B
:108B28000435184602B0704700B583B00190009133
:108B3800009BB3F5805F04D306494FF4BE7006F07E
:108B48002FFC019B009AC3F8082500BF03B05DF80D
:108B580004FB00BFE445030082B001900B468DF88A
:108B680003309DF80320019B13441A460123136028
:108B780000BF02B0704782B001900091019B009A3B
:108B8800C3F8442300BF02B0704782B0019000913F
:108B9800019B009AC3F8482300BF02B07047000049
:108BA80000B587B0039002910192039B002B03D17B
:108BB8003349552006F0F4FB029B002B03D13049C2
:108BC800562006F0EDFB019B002B03D12C495720C2
:108BD80006F0E6FB039B5B7919462A4A019B42F89B
:108BE8002130039B5B79284ADB0013441B79002B57
:108BF8000ED008230593254A254BD31ADB081B04FE
:108C080043F0020323491846FEF768F9059B32E052
:108C1800039B1A68029B1B8819461046FFF784FFBE
:108C2800039B93F90420029B9B7819461046FFF793
:108C3800D1FE039B93F904301846FFF7F7FE039B18
:108C48005B79114ADB00134401221A71039B5B799B
:108C580019460D4A039B42F83130002305930B4A0D
:108C68000B4BD31ADB081B0443F003030A491846CD
:108C7800FEF734F9059B184607B05DF804FB00BF02
:108C880010460300C82B0020CC2B0020A03F030077
:108C9800683F03008C460300B046030000B583B06C
:108CA8000190019B002B03D10649872006F078FB31
:108CB800019B1B6800211846FFF74EFF00BF03B059
:108CC8005DF804FB1046030000B583B00190019BDA
:108CD800002B03D106498D2006F062FB019B1B681F
:108CE80004211846FFF738FF00BF03B05DF804FB06
:108CF8001046030000B587B00390029101928DF8E9
:108D08000330039B002B03D12149962006F048FB32
:108D18004FF48032029B02FA03F30593029B50330F
:108D28009BB29B00ADF81230019B23F07F43019367
:108D3800039B1B6805991846FFF7C2FE039B1B6837
:108D480005991846FFF721FF039B1B68BDF8122001
:108D580011461846FFF7CBFE039B1B68019A029940
:108D68001846FFF789FE039B1B6805991846FFF70D
:108D780002FF9DF80330002B05D0039B1B68059963
:108D88001846FFF793FE00BF07B05DF804FB00BF6D
:108D98001046030000B585B00390029113468DF884
:108DA8000730039B002B03D10B49A92006F0F8FAE2
:108DB800039B1B6802991846FFF7DDFE9DF80730F4
:108DC800002B05D0039B1B6802991846FFF76EFE1F
:108DD80000BF05B05DF804FB1046030000B583B082
:108DE80001900091019B002B03D10A49B32006F0A2
:108DF800D7FA019B1B6800991846FFF7C6FE019B2E
:108E08001B6800991846FFF75BFE00BF03B05DF8CA
:108E180004FB00BF1046030000B583B001900B4669
:108E2800ADF80230019B002B03D10F49BA2006F0A0
:108E3800B7FA019B1B68BDF8022011461846FFF7D8
:108E480049FE0346002B09D0019B1B68BDF8022090
:108E580011461846FFF74BFE012300E00023184691
:108E680003B05DF804FB00BF1046030082B0019018
:108E78000091019A009BD31A23F07F43184602B051
:108E88007047000000B58BB00390029101920093E7
:108E9800039B002B03D15749CD2006F081FA4FF4EC
:108EA8008032029B02FA03F30993029B50339BB270
:108EB8009B00ADF82230019B23F07F430193099971
:108EC8000398FFF78BFF039B1B681846FFF724FEE8
:108ED8000790039B1B6802991846FFF7DBFD069075
:108EE800039B1B68079A02991846FFF7C5FD039B69
:108EF8001B68BDF8222011461846FFF7F8FD0799B0
:108F08000698FFF7B3FF0346012B0AD11020FFF79D
:108F18009BFD039B1B68BDF8222011461846FFF7EE
:108F2800E6FD039B1B681846FFF7F6FD07900799B7
:108F38000198FFF79BFF0590039B1B68099918464A
:108F4800FFF719FE059B012B15D1039B1868019BA0
:108F580001331A460299FFF78FFD1020FFF774FDC1
:108F6800039B1B681846FFF7D7FD0246079B9342F1
:108F780035D00D2339E0039B1B68019A02991846E6
:108F8800FFF77AFD039B1B681846FFF7C5FD07909E
:108F9800019B013B07991846FFF768FF0590009B66
:108FA800C3F1FF1303F57F43059A9A4201D90D23B4
:108FB8001BE0059B002B12D1039B1868019B013312
:108FC8001A460299FFF758FD039B1B681846FFF7DE
:108FD800A3FD0246079B934201D00D2305E0012221
:108FE80009990398FFF7D6FE002318460BB05DF8E1
:108FF80004FB00BF1046030000B583B001900B4688
:109008008DF803309DF803301A4602210198FFF7C6
:10901800C1FE00BF03B05DF804FB00B583B001904A
:109028004FF482710198FFF7F7FE0346184603B024
:109038005DF804FB00B583B0019000914FF48032D5
:10904800009B02FA03F319460198FFF7C7FE00BF19
:1090580003B05DF804FB00B585B001900091009B5A
:1090680050339BB29B00ADF80E30BDF80E30194658
:109078000198FFF7D1FE0346184605B05DF804FBDA
:1090880000B583B001900091019B1B6800991846B8
:10909800FFF700FD0346184603B05DF804FB00B572
:1090A80083B00190019B1B681846FFF735FD034606
:1090B800184603B05DF804FB00B583B00190019B2E
:1090C80093F904301846FFF741FC00BF03B05DF880
:1090D80004FB000008B5044B1B68044A12681046DC
:1090E800984700BF08BD00BFC82B0020CC2B00202C
:1090F80086B001900091019B53E8011F8AB2D8897C
:1091080002449889824228BF121A1889824202BFF3
:10911800BFF32F8F002307E0C2EA010243E80120D2
:109128000028E9D14FF001038DF80F300590029126
:109138000492029A009B1A609DF80F30DBB2184621
:1091480006B0704784B00190019951E8013FC3EA25
:10915800034341E80132002AF7D10392029300BF8A
:1091680004B0704786B001900091019B53E8021F3C
:109178001FFAA1F2D888824202BFBFF32F8F0023C3
:109188000DE0D88902449889824228BF121AC1EAA0
:10919800024243E802200028E8D14FF001038DF88D
:1091A8000F30059002910492029A009B1A609DF874
:1091B8000F30DBB2184606B0704784B001900199B1
:1091C80051E8023FC3EA234341E80232002AF7D1BB
:1091D8000392029300BF04B0704786B00190019BD0
:1091E80053E8021FDA88B1EB314F4FF0000017BF88
:1091F80089B242EA024241EA024204E05968B1EB0C
:10920800314F08BF012043E802210029E8D18DF839
:109218000F00059104929DF80F30DBB2184606B096
:10922800704784B00390029111461A460B46ADF878
:1092380006301346ADF80430029B002B01D10E23F3
:109248001FE0BDF80630BDF80420B3FBF2F101FBC6
:1092580002F29B1A9BB2002B01D0092311E0039B59
:10926800029A1A60039B00225A60039B00229A60AC
:10927800039BBDF806209A81039BBDF80420DA8180
:109288000023184604B0704700B585B001900198D6
:10929800FFF7A3FF03468DF80F309DF80F30002B22
:1092A80001D0002300E01123184605B05DF804FB47
:1092B80000B585B001900091009B19460198FFF711
:1092C80017FF0346002B07D0019B1B68009A1288E2
:1092D80013440393039B00E00023184605B05DF890
:1092E80004FB00B583B001900091009B1A88009B95
:1092F8005B889A4204D10198FFF724FF012300E01C
:109308000023184603B05DF804FB00B585B0019052
:109318000091009B19460198FFF724FF0346002B94
:1093280007D0019B1B68009A528813440393039B40
:1093380000E00023184605B05DF804FB00B583B0D3
:1093480001900091009B1A88009B5B889A4204D187
:109358000198FFF732FF012300E00023184603B00D
:109368005DF804FB00B585B001900091009B5B0996
:109378009B00019A1A44009B03F01F03012101FA84
:1093880003F31946104600F065F8039000BF05B0D6
:109398005DF804FB00B585B001900091009B5B0966
:1093A8009B00019A1A44009B03F01F03012101FA54
:1093B80003F3DB431946104600F07CF8039000BF26
:1093C80005B05DF804FB82B001900091009B5B0939
:1093D8009B00019A13441A68009B03F01F0322FAAA
:1093E80003F303F00103002B14BF01230023DBB2B6
:1093F800184602B0704710B487B001900091019BE5
:10940800009A53E8004F104643E8000191F0000F1E
:10941800F7D1059404900391059B184607B05DF8B1
:10942800044B704710B487B001900091019B009ADB
:1094380053E8004F44EA020043E8000191F0000FAE
:10944800F6D1059404900391059B184607B05DF882
:10945800044B704710B487B001900091019B009AAB
:1094680053E8004F44EA020043E8000191F0000F7E
:10947800F6D1059404900391049B184607B05DF853
:10948800044B704710B487B001900091019B009A7B
:1094980053E8004F04EA020043E8000191F0000F8E
:1094A800F6D1059404900391059B184607B05DF822
:1094B800044B704710B487B001900091019B009A4B
:1094C80053E8004F04EA020043E8000191F0000F5E
:1094D800F6D1059404900391049B184607B05DF8F3
:1094E800044B704710B487B001900091019B009A1B
:1094F80053E8004F04EB020043E8000191F0000F2D
:10950800F6D1059404900391049B184607B05DF8C2
:10951800044B704710B487B001900091019B009AEA
:1095280053E8004FA4EB020043E8000191F0000F5C
:10953800F6D1059404900391049B184607B05DF892
:10954800044B704700B583B0019001210198FFF7E3
:1095580069FF0346184603B05DF804FB00B583B005
:10956800019001210198FFF775FF0346184603B0E3
:109578005DF804FB00B583B0019000210198FFF766
:1095880081FF0346184603B05DF804FB00B583B0BD
:1095980001900B468DF80330019B002B03D108493D
:1095A800E82005F0FDFE019BDA689DF8033001997B
:1095B800098A01FB03F31344184603B05DF804FB62
:1095C800E846030000B583B001900091019B002B91
:1095D80003D10849F52005F0E3FE009B019AD26803
:1095E8009B1A019A128AB3FBF2F3DBB2184603B056
:1095F8005DF804FBE846030000B585B00190019BC7
:10960800002B01D10E234CE0019B1B68002B03D1DA
:109618002649FF2005F0C4FE019B5B68002B04D19E
:1096280022494FF4807005F0BBFE019B9B68002B1C
:1096380004D11E4940F2011005F0B2FE019BDB681F
:10964800002B04D119494FF4817005F0A9FE019B44
:109658001B8A002B04D1154940F2031005F0A0FE27
:10966800019B9A68019B5B68D31A8DF80F30019BA8
:109678001B68019A52681A6007E0019B1A68136810
:10968800591C11609DF80F201A709DF80F305A1E52
:109698008DF80F20002BF0D1019B1B6800221A7156
:1096A8000023184605B05DF804FB00BFE846030038
:1096B80000B585B00190019B002B04D11F494FF4E0
:1096C800927005F06DFE0023039300238DF80A3095
:1096D8000DF10A031846FFF7D1F8019B1B681A68B9
:1096E800019B5B689A421FD9019B1B681A68013A63
:1096F8001A601B681B7819460198FFF747FF03900B
:10970800019B9A68019B1B681B68D31A8DF80B3064
:10971800019B1B681B799DF80B209A4204D9019B79
:109728001B689DF80B201A719DF80A301846FFF740
:10973800BBF8039B184605B05DF804FBE846030038
:1097480010B584B001900091019B002B04D11549FC
:1097580040F2471005F024FE009B002B04D111496C
:109768004FF4A47005F01CFE009B039300238DF8B2
:109778000B300DF10B031846FFF780F8019B1B68AF
:109788001C68621C1A6003990198FFF71BFF0346C7
:1097980023709DF80B301846FFF786F800BF04B019
:1097A80010BD00BFE846030000B583B00190019BDF
:1097B800002B03D10C49312005F0F2FD019B9B6879
:1097C800002B0CD0019B5B69019A1069019A116802
:1097D800019A92689847019B00229A6000E000BFB6
:1097E80003B05DF804FB00BF684703000EB400B582
:1097F80084B00190019B002B03D11849422005F049
:10980800CFFD019B5B69002B03D11449432005F070
:10981800C7FD019B1B68002B03D11049442005F0AC
:10982800BFFD019B5B68002B03D10C49452005F067
:10983800B7FD059B002B0AD00023039306AB0393C7
:1098480003AB1A460599019800F0B8F900E000BF8B
:1098580004B05DF804EB03B0704700BF684703002D
:1098680000B583B001900B468DF803309DF80330A6
:109878000A2B03D10D210198FFF7F2FF019B1A680B
:10988800019B9B68581C0199886013449DF803202C
:109898001A70019B9A68019B5B689A4202D30198EF
:1098A800FFF782FF00BF03B05DF804FB00B587B087
:1098B800039002910192009300230593009B03F00B
:1098C8000103002B24D00BE0029B01330293059B7C
:1098D800013305939DF8133019460398FFF7C0FF2D
:1098E800029B1B788DF813309DF81330002BEBD1B9
:1098F80006E0019B013B019320210398FFF7B0FF8D
:10990800019A059B9A422ED9019B002BF1D12AE09E
:10991800029B002B0BD002980AF0C9FA059006E0CA
:10992800019B013B019320210398FFF799FF019ABE
:10993800059B9A420FD9019B002BF1D10BE0029BAA
:1099480001330293059B013305939DF813301946A3
:109958000398FFF785FF029B1B788DF813309DF85D
:109968001330002BEBD100BF07B05DF804FB0000FB
:1099780000B589B00390029101920093029B07936E
:109988000123069307E0079A019BB2FBF3F30793C1
:10999800069B01330693079A019B9A42F3D2009AD9
:1099A800069B9A4201D9009B06930B9B03F0010387
:1099B800002B22D10A9B002B1FD00B9B03F0020324
:1099C800002B06D0009B002B03D130238DF81730D5
:1099D80002E020238DF8173008E00A9B013B0A9328
:1099E8009DF8173019460398FFF73AFF0A9B002B9A
:1099F80003D0069A0A9B9A42EFD301230793009B50
:109A0800012B03D9009B013B009309E0029A079BB5
:109A1800B2FBF3F30493049A019B9A4200D205E047
:109A2800079B019A02FB03F30793E8E7029A079B57
:109A3800B2FBF3F30493049B079A02FB03F3029A25
:109A4800D31A0293154A049B13441B7819460398AA
:109A5800FFF706FF079A019BB2FBF3F30793079BF7
:109A6800002BE3D10B9B03F00103002B11D00A9BC1
:109A7800002B0ED006E00A9B013B0A932021039895
:109A8800FFF7EEFE0A9B002B03D0069A0A9B9A4228
:109A9800F1D300BF09B05DF804FB00BF58480300CC
:109AA80000B589B00590049103920293049B002BA2
:109AB800B8BF5B4206930123079307E0039B069A0E
:109AC80092FBF3F30693079B01330793039B069AD4
:109AD8009A42F3DA029A079B9A4201D9029B0793AA
:109AE8000A9B002B0AD0049B002B04DB0B9B03F082
:109AF8000403002B02D00A9B013B0A930B9B03F043
:109B08000203002B02D0029B002B16D00B9B03F004
:109B18000103002B11D10A9B002B0ED006E00A9BF3
:109B2800013B0A9320210598FFF79AFE0A9B002B18
:109B380003D0079A0A9B9A42F1D3049B002B07DAB9
:109B4800049B5B4204932D210598FFF789FE08E0EA
:109B58000B9B03F00403002B03D02B210598FFF780
:109B68007FFE0B9B03F00203002B19D00B9B03F025
:109B78000103002B14D1029B002B11D10A9B002B4F
:109B88000ED006E00A9B013B0A9330210598FFF7A7
:109B980067FE0A9B002B03D0079A0A9B9A42F1D3CF
:109BA80004990B9B01930A9B0093029B039A0598C7
:109BB800FFF7DEFE00BF09B05DF804FB00B58FB00B
:109BC800059004910392059B002B04D1AD4940F206
:109BD800522005F0E5FB059B5B69002B04D1A949E0
:109BE8004FF4157005F0DCFB059B1B68002B04D1B6
:109BF800A44940F2552005F0D3FB059B5B68002B78
:109C080004D1A04940F2562005F0CAFB049B002B62
:109C180000F09381049B1B788DF83730049B013347
:109C280004939DF83730002B00F07E819DF8373083
:109C3800252B40F06D8100230A9301230C93049B8C
:109C48001B788DF837309DF83730302B0DD0302BFE
:109C58001BDC2B2B11D02D2B17D10A9B43F00103B2
:109C68000A93049B0133049312E00A9B43F0020316
:109C78000A93049B013304930AE00A9B43F004030C
:109C88000A93049B0133049302E000230C9300BF62
:109C98000C9B002BD3D1002309939DF837302A2B36
:109CA8000CD1039B1B68191D039A11601B68099A44
:109CB80013440993049B013304931AE0049B1B7813
:109CC8008DF837309DF837302F2B12D99DF8373063
:109CD800392B0ED8049B01330493099A13469B0031
:109CE80013445B001A469DF837301344303B099300
:109CF800D3E700230B93049B1B788DF837309DF82E
:109D080037302E2B1DD1049B01330493049B1B7801
:109D18008DF837309DF837302F2B12D99DF8373012
:109D2800392B0ED8049B013304930B9A13469B00DE
:109D380013445B001A469DF837301344303B0B93AD
:109D4800E4E7049B1B788DF837309DF837306C2B8F
:109D580003D09DF83730682B07D1049B0133049357
:109D6800049B1B788DF83730EFE79DF83730252BAB
:109D780000F0C480252BC0F2C680782B00F3C38086
:109D8800582BC0F2C080583B202B00F2BC8001A2A7
:109D980052F823F0919E02000F9F02000F9F0200CD
:109DA8000F9F02000F9F02000F9F02000F9F0200EB
:109DB8000F9F02000F9F02000F9F02000F9F0200DB
:109DC800219E0200439E02000F9F02000F9F020087
:109DD8000F9F02000F9F0200439E02000F9F020088
:109DE8000F9F02000F9F02000F9F02000F9F0200AB
:109DF8000F9F0200D19E02000F9F02000F9F0200DA
:109E0800B59E02000F9F0200679E02000F9F02008E
:109E18000F9F0200919E0200039B1B68191D039A65
:109E280011601B680C930C9B8DF81F309DF81F3038
:109E380019460598FFF714FD66E0039B1B68191D7A
:109E4800039A11601B680C930A9B0193099B00936A
:109E58000B9B0A220C990598FFF722FE54E0039BFE
:109E68001B68191D039A11601B680C930C990A9BB7
:109E78000193099B00930B9B0A220598FFF778FD35
:109E880042E000BFDC470300039B1B68191D039ACF
:109E980011601B680C930C990A9B0193099B009312
:109EA8000B9B10220598FFF763FD2DE0039B1B68B1
:109EB800191D039A11601B6808930A9B099A08994F
:109EC8000598FFF7F3FC1FE0039B1B68191D039A15
:109ED80011601B680C9330210598FFF7C1FC7821AD
:109EE8000598FFF7BDFC0C99002301930823009304
:109EF800082310220598FFF73BFD05E0252105986A
:109F0800FFF7AEFC00E000BF049B0133049305E0BB
:109F18009DF8373019460598FFF7A2FC049B1B787B
:109F2800002B7FF477AE00E000BF059B1B7B002B66
:109F380004D00598FFF738FC00E000BF0FB05DF8CB
:109F480004FB00BF00B583B001900198FFF754FBF4
:109F58000346184603B05DF804FB00B58BB00190CA
:109F68000091019B1B8A043B0793009A079B1344AB
:109F7800DA1C079BB2FBF3F38DF81B300198FFF74F
:109F880097FB0590059B002B01D1002338E0059B2A
:109F980000221A71059B01225A71079B9AB2059BF0
:109FA800DA80059B09939DF81B30013B0493099BBC
:109FB800019A1A60002308931DE00198FFF778FBC7
:109FC8000390039B002B0ED0059B5B790133DAB21B
:109FD800059B5A71099B039A1A60039B019A1A60A0
:109FE800039B099304E0059800F00EF8002307E0AE
:109FF800089B01330893089A049B9A42DDD3059B7A
:10A0080018460BB05DF804FB00B58BB00190019BBE
:10A018000793079B5B798DF81B30019B08939DF88C
:10A028001B30013B05930023099305E0089B1B683F
:10A038000893099B01330993099A059B9A42F5D322
:10A04800089B1B680493019B0893002309930BE06A
:10A05800089B1B68039308990498FFF771FB039BFF
:10A068000893099B013309939DF81B30099A9A427A
:10A07800EED300BF00BF0BB05DF804FB00B585B0A0
:10A088000190019B0393039B043301211846FFF7BA
:10A0980029FA00BF05B05DF804FB00B587B0019050
:10A0A800019B0593059B043301211846FFF732FAFB
:10A0B8000346039303AB0493049B1B78002B02D144
:10A0C8000198FFF7A1FF00BF07B05DF804FB00008F
:10A0D80000B591B00390029101920093039B002B6D
:10A0E80003D14349B62005F05BF9039B0993039B11
:10A0F8000F93099BDB881A46099B5B7902FB03F3E4
:10A10800043B0893009A089B9A4203D33849C42019
:10A1180005F046F9099BDB880793009B1A1D079BEE
:10A12800B2FBF3F30E93009B0433079AB3FBF2F2EE
:10A13800079901FB02F29B1A0D93019B1A68009B79
:10A148001344089A9A4203D2089A009BD31A01E052
:10A15800019B1B680C93019B0C9A1A6005E00F9BEE
:10A168001B680F930E9B013B0E930E9B002BF6D1A1
:10A1780000230B93079A0D9BD31A0A930A9A0C9BF8
:10A18800934228BF13460A932AE0029A0B9B134472
:10A1980006930F9A0D9B1344043305939DF848309A
:10A1A800002B05D00A9A0599069809F0FDFD04E0F0
:10A1B8000A9A0699059809F0F7FD00230D930F9B5D
:10A1C8001B680F930C9A0A9BD31A0C930B9A0A9B41
:10A1D80013440B93079A0C9B934228BF13460A9388
:10A1E8000C9B002BD1D100BF00BF11B05DF804FB60
:10A1F8006848030000B589B0059004910392029362
:10A20800039B079307AA00230093029B04990598D0
:10A21800FFF75EFF079B039A9A4203D00349F62093
:10A2280005F0BEF800BF09B05DF804FB68480300FC
:10A2380000B589B00590049103920293039B07939C
:10A2480007AA01230093029B04990598FFF740FF92
:10A25800079B039A9A4204D004494FF4807005F092
:10A268009FF800BF09B05DF804FB00BF6848030011
:10A2780082B003468DF807309DF90730002B0DDBBF
:10A288009DF8073003F01F0206499DF907305B0966
:10A29800012000FA02F2603341F8232000BF02B027
:10A2A800704700BF00E100E000B583B00190019B5A
:10A2B800002B03D10649722005F072F8019B002299
:10A2C8001A60BFF35F8F00BF00BF03B05DF804FBE7
:10A2D8003849030041DF704700BF184600B585B014
:10A2E80000238DF807300DF107031846FEF7C6FA6C
:10A2F800F1EE103A0393039B23F09F030293029B12
:10A30800E1EE103A00BFBFF35F8F00BF2620FFF7D2
:10A31800AFFF9DF807301846FEF7C6FA039B03F017
:10A328000703002B03D004497D2005F039F800BF4E
:10A3380005B05DF804FB00BF7849030008B5064B7B
:10A3480000221A700548FFF7AFFF0549054800F0DD
:10A3580027FA0023184608BDD82B0020D42B00204C
:10A36800FC490300DC2B002000B583B0FFF7B6FFE3
:10A3780009F030FA0346002B0ED0FFF7ABFF01902F
:10A38800019B002B0BD0019B022B08D006494FF4F0
:10A39800B07005F005F802E020BF40BF20BF00BF45
:10A3A80003B05DF804FB00BF7849030082B0019058
:10A3B800019B9B68024A12781344184602B0704702
:10A3C800834A030000B583B001900091019B002BE4
:10A3D80003D10849832004F0E3FF019B9B68009A9E
:10A3E8009A4202D2009B013300E00023184603B0D2
:10A3F8005DF804FB084A030000B585B00190019B95
:10A408001B681B680393019B1B685B680293029A95
:10A41800039B9A4203D3029A039BD31A07E001983D
:10A42800FFF7C4FF0246039BD21A029B1344184647
:10A4380005B05DF804FB000000B585B00190019BF4
:10A44800002B03D10D49982004F0AAFF019B1B683B
:10A458001B680393019B1B685B6802930299019830
:10A46800FFF7B0FF0246039B93420CBF0123002372
:10A47800DBB2184605B05DF804FB00BF084A0300CC
:10A4880010B588B00190009100230793019B002B21
:10A4980003D15649A32004F083FF009B002B03D16E
:10A4A8005249A42004F07CFF00238DF80F300DF1F1
:10A4B8000F031846FEF7E2F90198FFF7BDFF0346C0
:10A4C8008DF81B309DF81B3083F00103DBB2002BA5
:10A4D80003D1019B1B7C002B7BD1019B1B685B6814
:10A4E8000593019B1B685A68019B1C6811460198DB
:10A4F800FFF768FF034663609DF81B30002B0AD006
:10A50800019B1B681A68019B1C6811460198FFF79C
:10A5180059FF03462360019BDB68013B072B38D8B2
:10A5280001A252F823F000BF51A5020061A5020064
:10A538009BA5020073A502009BA502009BA5020033
:10A548009BA5020085A50200019B5A68059B134440
:10A55800009A12781A702DE0019B5A68059B5B00DF
:10A568001344009A12881A8024E0019B5A68059BBC
:10A578009B001344009A12681A601BE0019B5A68FA
:10A58800059BDB00D118009BD3E90023C1E9002318
:10A5980010E0019B5B681946019BDB68059A02FB8A
:10A5A80003F30B441846019BDB681A46009909F02F
:10A5B800FBFB00BF0198FFF71FFF0490019B1B687E
:10A5C8009B68049A9A4207D9019B1B68049A9A606F
:10A5D80002E00423079300E000BF9DF80F301846FF
:10A5E800FEF762F9079B184608B010BD084A030039
:10A5F80010B588B00390029113468DF807300023F8
:10A608000793039B002B03D14549E72004F0C8FEBC
:10A61800029B002B03D14249E82004F0C1FE00232D
:10A628008DF817300DF117031846FEF727F9039830
:10A6380000F078F8034683F00103DBB2002B63D007
:10A64800039B1B681B6806939DF8073083F0010382
:10A65800DBB2002B0AD0039B1B681A68039B1C689B
:10A6680011460398FFF7AEFE03462360039BDB68A1
:10A67800013B072B37D801A252F823F0A5A6020008
:10A68800B5A60200EFA60200C7A60200EFA60200C8
:10A69800EFA60200EFA60200D9A60200039B5A68A3
:10A6A800069B13441A78029B1A702FE0039B5A6882
:10A6B800069B5B0013441A88029B1A8026E0039BC2
:10A6C8005A68069B9B0013441A68029B1A601DE097
:10A6D800039B5A68069BDB001344D3E900230299C5
:10A6E800C1E9002312E0039B5B681946039BDB6802
:10A6F800069A02FB03F30B441946039BDB681A46D0
:10A70800029809F051FB01E0052307939DF81730E3
:10A718001846FEF7C9F8079B184608B010BD00BFD9
:10A72800084A030000B585B00190019B002B04D1B5
:10A738000B4940F22B2004F033FE019B1B681B6879
:10A748000393019B1B685B680293039A029B9A42DE
:10A758000CBF01230023DBB2184605B05DF804FBEB
:10A76800084A030082B00190019B9B6800229A600E
:10A77800019B9B6800221A61019B9B6800225A6119
:10A78800019B9B680022DA60019B9B6800225A604B
:10A79800019B9B6800221A6000BF02B0704700004E
:10A7A80000B583B001900091019B002B03D11049A3
:10A7B800502004F0F5FD009B002B03D10C495120DB
:10A7C80004F0EEFD019B009A1A60019B1B681A6851
:10A7D800019B5A60019B5A68019B1B685B689A42FF
:10A7E80002D1019B00225A6000BF03B05DF804FB50
:10A7F800844A030000B583B00190019B002B03D16C
:10A808001449632004F0CCFD019B1B68002B03D185
:10A818001049642004F0C4FD019B5B68002B14D030
:10A82800019B5B681A46019B1B689B6813441A4688
:10A83800019B5A60019B5A68019B1B685B689A429E
:10A8480004D1019B00225A6000E000BF03B05DF80C
:10A8580004FB00BF844A030000B585B00190009155
:10A86800019B002B03D118493A2004F099FD009B65
:10A87800002B03D114493B2004F092FD019B5B6837
:10A8880003930FE0019B9B68039A12680099104696
:10A898009847034683F00103DBB2002B07D1039BE3
:10A8A8001B680393039B1B68002BEBD100E000BFE0
:10A8B800039B1A68009B1A60039B009A1A6000BFEA
:10A8C80005B05DF804FB00BF284B030000B585B058
:10A8D8000190019B002B03D10C49512004F060FD2D
:10A8E800019B5B681B680393019B5B681B68002BDB
:10A8F80006D0019B5B681A68019B5B6812681A6046
:10A90800039B184605B05DF804FB00BF284B030005
:10A9180000B583B00190019B002B03D105495D2050
:10A9280004F03EFD019B5B681B68184603B05DF8A8
:10A9380004FB00BF284B030000B585B001900091CF
:10A94800019B002B03D11649692004F029FD009BC7
:10A95800002B03D112496A2004F022FD00238DF850
:10A968000B30019B5B6803930FE0039B1B68009A05
:10A978009A4207D1009B1A68039B1A6001238DF83D
:10A988000B3006E0039B1B680393039B1B68002B9B
:10A99800EBD19DF80B30184605B05DF804FB00BFFD
:10A9A800284B030000B585B00190019800F00EF81F
:10A9B8000390039B002B01D0039B00E0024B184639
:10A9C80005B05DF804FB00BFAC4B030086B00190F6
:10A9D800164B0593164B04931FE0049A059BD31A54
:10A9E800DB10DA0F13445B10DB00059A1344039362
:10A9F800039B1B680293029A019B9A4202D9039B0C
:10AA080004930AE0029A019B9A4203D2039B0833FB
:10AA1800059302E0039B5B6804E0059A049B9A4255
:10AA2800DBD30023184606B0704700BFAC4F0300C5
:10AA3800D450030000B587B0059004910392059B9C
:10AA4800002B10D1194A1A4BD31ADB081B0443F008
:10AA58000100184A18490E2300930B461749FCF7C2
:10AA680070FA0E231DE0049B002B10D10F4A104BE7
:10AA7800D31ADB081B0443F00100114A0E490E23C8
:10AA880000930B460D49FCF75CFA0E2309E0059B81
:10AA9800049A1A60059B1B681B68039905989847D8
:10AAA8000346184607B05DF804FB00BFD83F030013
:10AAB800683F0300E450030088520300EC50030091
:10AAC8001851030010B586B00590049103920293C3
:10AAD800059B002B10D1454A454BD31ADB081B04B4
:10AAE80043F00100434A44490E2300930B4643496F
:10AAF800FCF727FA0E2375E0039B002B10D13B4A85
:10AB08003B4BD31ADB081B0443F001003C4A3A498B
:10AB18000E2300930B463949FCF713FA0E2361E024
:10AB2800059B1B68002B10D1304A314BD31ADB0828
:10AB38001B0443F00100334A2F49082300930B46B6
:10AB48002E49FCF7FEF908234CE0029B002B10D19C
:10AB5800264A274BD31ADB081B0443F001002A4A74
:10AB68002549092300930B462449FCF7EAF90923F0
:10AB780038E0049800F026FA0346002B10D11B4A4F
:10AB88001B4BD31ADB081B0443F001001F4A1A4968
:10AB9800102300930B461949FCF7D3F9102321E041
:10ABA800029A0499059800F0F3F90346002B10D196
:10ABB8000E4A0F4BD31ADB081B0443F00100144A5A
:10ABC8000D49102300930B460C49FCF7BAF91023E2
:10ABD80008E0059B1B689C68029B039A04990598EA
:10ABE800A0470346184606B010BD00BFD83F030073
:10ABF800683F0300E45003009C520300EC5003003C
:10AC08002C51030020510300345103003851030034
:10AC18005051030010B586B0059004910392029339
:10AC2800059B002B10D1604A604BD31ADB081B042C
:10AC380043F001005E4A5F490E2300930B465E49CC
:10AC4800FCF77FF90E23ABE0039B002B10D1564A8B
:10AC5800564BD31ADB081B0443F00100574A5549E9
:10AC68000E2300930B465449FCF76BF90E2397E02B
:10AC7800059B1B68002B10D14B4A4C4BD31ADB08A1
:10AC88001B0443F001004E4A4A49082300930B462F
:10AC98004949FCF756F9082382E0029B002B10D1A2
:10ACA800414A424BD31ADB081B0443F00100454AD2
:10ACB8004049092300930B463F49FCF742F9092311
:10ACC8006EE0059B5B685A68029BB3FBF2F101FBDF
:10ACD80002F29B1A002B10D0334A344BD31ADB08EC
:10ACE8001B0443F00100384A3249092300930B46FC
:10ACF8003149FCF726F9092352E0049800F062F97B
:10AD08000346002B10D1284A284BD31ADB081B0412
:10AD180043F001002D4A2749102300930B4626498A
:10AD2800FCF70FF910233BE0039B184600F04AF9A3
:10AD38000346002B10D11C4A1C4BD31ADB081B04FA
:10AD480043F00100224A1B49102300930B461A497D
:10AD5800FCF7F7F8102323E0029A0499059800F00D
:10AD680017F90346002B10D10F4A104BD31ADB08F2
:10AD78001B0443F00100174A0E49102300930B46A9
:10AD88000D49FCF7DEF810230AE0059B1B68DC6818
:10AD9800089B0093029B039A04990598A0470346D1
:10ADA800184606B010BD00BFD83F0300683F030037
:10ADB800E4500300B0520300EC5003007851030044
:10ADC800205103003451030080510300AC510300AB
:10ADD800C4510300E851030010B586B005900491F2
:10ADE80003920293059B002B10D13E4A3E4BD31A87
:10ADF800DB081B0443F001003C4A3D490E23009345
:10AE08000B463C49FCF79DF80E2368E0059B1B6840
:10AE1800002B10D1334A344BD31ADB081B0443F000
:10AE28000100354A3249082300930B463149FCF7A3
:10AE380088F8082353E0039B002B10D1294A2A4B9A
:10AE4800D31ADB081B0443F001002C4A28490923C4
:10AE580000930B462749FCF774F809233FE004994F
:10AE6800059800F0BCF80346002B10D11D4A1E4B74
:10AE7800D31ADB081B0443F00100214A1C491023A4
:10AE880000930B461B49FCF75CF8102327E0059B51
:10AE98005B681B68039A02FB03F31A46049905983A
:10AEA80000F076F80346002B10D10E4A0E4BD31A49
:10AEB800DB081B0443F00100124A0D4910230093DC
:10AEC8000B460C49FCF73DF8102308E0059B1B686E
:10AED8001C69029B039A04990598A04703461846E3
:10AEE80006B010BDD83F0300683F0300E4500300DC
:10AEF800C4520300EC5003002051030034510300F6
:10AF0800105203003852030000B585B00190019B30
:10AF1800002B03D0019B1B68002B28D1002303932F
:10AF280019E0039A13469B0013449B001A46154BDD
:10AF380013440193019B1B68002B09D0019B1B68DC
:10AF4800DB69019898470346002B01D0012314E0E0
:10AF5800039B013303930C4A0A4BD31A0B4AA2FBF7
:10AF680003231B09039A9A42DBD3002305E0019BC4
:10AF78001B68DB69019898470346184605B05DF8D9
:10AF880004FB00BFB81D0020CC1D0020CDCCCCCCCC
:10AF980084B0039002910192039BDB68029A9A4263
:10AFA80009D3029A019B13445A1E039B1B699A42B8
:10AFB80001D8012300E0002303F00103DBB21846A7
:10AFC80004B0704782B00190019B03F00303002B8B
:10AFD8000CBF01230023DBB2184602B0704782B0D1
:10AFE80001900091019B5B681B685A1E009B1340EF
:10AFF800002B0CBF01230023DBB2184602B07047B8
:10B0080029DF704700BF184628DF704700BF184681
:10B0180000B589B001900091019B1B689B68002BCB
:10B0280035D002AB00221A605A609A60DA601A6161
:10B038005A61009B0393019B9B680793019B1B79B3
:10B04800002B02D0012B0DD01AE001238DF8083017
:10B05800019B1B690493019BDB680593019B5B695A
:10B0680006930DE002238DF80830019BDB684FF44E
:10B07800805202FB03F30493019B5B69069300BFB4
:10B08800019B1B689B6802AA1046984700E000BF16
:10B0980009B05DF804FB00B587B00190019B5A69BF
:10B0A800019B9B69D31AB3F5805F28BF4FF4805387
:10B0B80005930422059BB3FBF2F3012B38BF012350
:10B0C8000593019B1A69019B9B6913440493019B97
:10B0D800DB681A46019B9B6913440393059A0399FD
:10B0E8000498FFF78DFF0346184607B05DF804FB88
:10B0F80000B583B00190019BDA68019B1B6913447A
:10B108001846FFF781FF0346184603B05DF804FBB5
:10B1180008B5034B03491846FEF710F900BF08BDF0
:10B12800702C0020982C002008B5084B08491846B8
:10B13800FEF7EBF80346074A1360064B1B68002B23
:10B1480014BF01230023DBB2184608BD702C002071
:10B15800982C0020942C002000B583B02A4B1B7A31
:10B16800002B0BD1FFF7E0FF034683F00103DBB2AE
:10B17800002B03D0244B00225A6042E0224B0222CB
:10B188001A72224B1B681B79002B02D0012B07D0A7
:10B198000DE01E4B1B681846FFF77DFF019009E084
:10B1A8001A4B1B681846FFF7A3FF019002E0032320
:10B1B800019300BF019B002B03D0019B112B0CD0E6
:10B1C8000FE0114B1B7C83F00103DBB2002B17D07F
:10B1D8000021022000F060F912E00B4B01221A72E4
:10B1E8000FE00A4B1B6803211846FFF711FF064BB7
:10B1F80000221A72044B00225A60FFF789FF00E010
:10B2080000BF03B05DF804FB802C0020942C0020C4
:10B2180008B50848FEF796F90346002B08D1064BF7
:10B228005B7C83F00103DBB2002B01D0FFF794FFB6
:10B2380000BF08BD842C0020802C002084B0019021
:10B248001B4B0022DA60019B1B79002B02D0012BDB
:10B2580019D028E0019B5A69019B9B69D31AB3F561
:10B26800805F28BF4FF480530393019B9A69039B27
:10B278001A44019B9A61019B9A69019B5B699A42F6
:10B288000ED1012310E0019B1B695A1C019B1A6116
:10B29800019B1A69019B5B699A4203D1012303E070
:10B2A80000BF00E000BF0023184604B0704700BF8D
:10B2B800802C002082B00190084BDB680133074ADC
:10B2C800D360064BDB68082B04D9044B0022DA60F4
:10B2D800012300E00023184602B07047802C0020AC
:10B2E80000B583B001900091019B0C4A5A600C484C
:10B2F800FEF728F90346002B0BD108F06BFA03463A
:10B308001A46074B1A7407481C238C220649FDF776
:10B3180088FF0023184603B05DF804FBD8520300E9
:10B32800802C0020702C0020E42B002000B583B076
:10B338000190009114220021054808F05EFD054B9C
:10B348001846FDF7A1FF0023184603B05DF804FB7B
:10B35800802C0020702C002000B587B0039002914B
:10B3680001920093174A04AB19461046FDF7A0FF57
:10B378000590059B002B01D104231FE01C2200210E
:10B38800059808F03AFD059B00221A71059B039A5F
:10B398001A60059B089A9A60059B029A1A61059B98
:10B3A800019ADA60059B009A5A61064A04AB19466D
:10B3B8001046FDF796FFFFF72BFF0023184607B04E
:10B3C8005DF804FB702C002000B585B00390029155
:10B3D80001920093029B009A1946019808F0E4FC38
:10B3E8000023184605B05DF804FB000000B587B0DF
:10B3F8000390029101920093184A04AB1946104633
:10B40800FDF756FF0590059B002B01D1042320E092
:10B418001C220021059808F0F0FC059B01221A71F6
:10B42800059B039A1A60059B009A9A604FF4805214
:10B43800029BB3FBF2F2059BDA60059B019A5A6105
:10B44800064A04AB19461046FDF74BFFFFF7E0FE2E
:10B458000023184607B05DF804FB00BF702C0020DD
:10B4680082B001900091009B184602B0704782B0EC
:10B47800019000910023184602B0704782B00190F5
:10B48800044B1B7A002B14BF01230023DBB21846A0
:10B4980002B07047802C002000B585B00190009163
:10B4A800019B022B02D0019B032B48D1274B1B7A0F
:10B4B800022B05D0022B35DC002B42D0012B31E0CA
:10B4C80000238DF80F30019B022B03D0019B032B27
:10B4D80009D011E01E4B1B681846FFF7AFFE034664
:10B4E8008DF80F3008E01A4B1B681846FFF7E2FE8C
:10B4F80003468DF80F3000BF9DF80F30002B10D099
:10B50800124B00221A72124B1A68019B022B01D1AE
:10B51800002300E00D2319461046FFF779FDFFF7D9
:10B52800F7FD00BF094B5B7C83F00103DBB2002B06
:10B5380002D0FFF711FE05E008F030F902E000BF85
:10B5480000E000BF05B05DF804FB00BF802C0020C0
:10B55800942C002082B0034600918DF80730064BEA
:10B5680001225A74044B1B7A002B0CBF01230023C1
:10B57800DBB2184602B07047802C002000B583B0BB
:10B58800034600918DF807309DF80730012B03D052
:10B598009DF80730032B0DD1084B00225A749DF8F3
:10B5A8000730012B0CBF01230023DAB2034B1A74B6
:10B5B800FFF7D2FD00BF03B05DF804FB802C00202C
:10B5C800BFF34F8F00BF064BDB6803F4E06204490A
:10B5D800044B1343CB60BFF34F8F00BF00BFFDE7A1
:10B5E80000ED00E00400FA0582B01D4B1B68B3F1C2
:10B5F800FF3F0AD11B4B1B68DBB201931A4B1B6838
:10B608001B0903F00F03009305E0154B1B6801931A
:10B61800164B1B680093019B062B1DD1009B033B17
:10B62800042B17D801A252F823F000BF49B6020034
:10B638004DB6020051B6020055B6020059B60200D6
:10B6480001230AE0012308E0012306E0012304E0C6
:10B65800012302E0012300E00023184602B07047EE
:10B6680030010010E00F00F0E80F00F03401001086
:10B6780082B0174B1B68DBB20193164B1B681B0982
:10B6880003F00F030093019B062B1DD1009B033B86
:10B69800042B17D801A252F823F000BFB9B6020054
:10B6A800BDB60200C1B60200C5B60200C9B60200A6
:10B6B80001230AE0002308E0002306E0002304E059
:10B6C800002302E0002300E00023184602B0704780
:10B6D800E00F00F0E80F00F082B01D4B1B68B3F1DB
:10B6E800FF3F0AD11B4B1B68DBB201931A4B1B6847
:10B6F8001B0903F00F03009305E0154B1B6801932A
:10B70800164B1B680093019B062B1DD1009B033B26
:10B71800042B17D801A252F823F000BF39B7020052
:10B728003DB7020041B7020045B7020049B7020021
:10B7380001230AE0012308E0012306E0012304E0D5
:10B74800012302E0012300E00023184602B07047FD
:10B7580030010010E00F00F0E80F00F03401001095
:10B7680082B0174B1B68DBB20193164B1B681B0991
:10B7780003F00F030093019B062B1DD1009B033B95
:10B78800042B17D801A252F823F000BFA9B7020072
:10B79800ADB70200B1B70200B5B70200B9B70200F1
:10B7A80001230AE0002308E0002306E0002304E068
:10B7B800002302E0002300E00023184602B070478F
:10B7C800E00F00F0E80F00F082B01D4B1B68B3F1EA
:10B7D800FF3F0AD11B4B1B68DBB201931A4B1B6856
:10B7E8001B0903F00F03009305E0154B1B68019339
:10B7F800164B1B680093019B062B1DD1009B033B36
:10B80800042B17D801A252F823F000BF29B8020070
:10B818002DB8020031B8020035B8020039B802006C
:10B8280001230AE0012308E0012306E0012304E0E4
:10B83800012302E0012300E00023184602B070470C
:10B8480030010010E00F00F0E80F00F034010010A4
:10B8580082B0174B1B68DBB20193164B1B681B09A0
:10B8680003F00F030093019B062B1DD1009B033BA4
:10B87800042B17D801A252F823F000BF99B8020090
:10B888009DB80200A1B80200A5B80200A9B802003C
:10B8980001230AE0002308E0002306E0002304E077
:10B8A800002302E0002300E00023184602B070479E
:10B8B800E00F00F0E80F00F082B0174B1B68DBB216
:10B8C8000193164B1B681B0903F00F030093019BA0
:10B8D800062B1DD1009B033B042B17D801A252F85D
:10B8E80023F000BF01B9020005B9020009B902003E
:10B8F8000DB9020011B9020001230AE0002308E093
:10B90800002306E0002304E0002302E0002300E017
:10B918000023184602B07047E00F00F0E80F00F06F
:10B9280082B01D4B1B68B3F1FF3F0AD11B4B1B684C
:10B93800DBB201931A4B1B681B0903F00F0300933A
:10B9480005E0154B1B680193164B1B680093019B80
:10B95800062B1DD1009B033B042B17D801A252F8DC
:10B9680023F000BF81B9020085B9020089B902003D
:10B978008DB9020091B9020000230AE0002308E013
:10B98800012306E0012304E0012302E0012300E093
:10B998000023184602B0704730010010E00F00F095
:10B9A800E80F00F03401001082B01D4B1B68B3F1A2
:10B9B800FF3F0AD11B4B1B68DBB201931A4B1B6874
:10B9C8001B0903F00F03009305E0154B1B68019357
:10B9D800164B1B680093019B062B1DD1009B033B54
:10B9E800042B17D801A252F823F000BF09BA0200AD
:10B9F8000DBA020011BA020015BA020019BA020003
:10BA080001230AE0012308E0012306E0012304E002
:10BA1800012302E0012300E00023184602B070472A
:10BA280030010010E00F00F0E80F00F034010010C2
:10BA380082B01D4B1B68B3F1FF3F0AD11B4B1B683B
:10BA4800DBB201931A4B1B681B0903F00F03009329
:10BA580005E0154B1B680193164B1B680093019B6F
:10BA6800062B1DD1009B033B042B17D801A252F8CB
:10BA780023F000BF91BA020095BA020099BA0200F9
:10BA88009DBA0200A1BA020001230AE0012308E0DE
:10BA9800012306E0012304E0012302E0012300E082
:10BAA8000023184602B0704730010010E00F00F084
:10BAB800E80F00F03401001082B0154B1B680193A9
:10BAC800144B1B680093019B062B1DD1009B033B65
