:020000022000DC
:10600000000001205D630200456302004763020057
:10601000496302004B6302004D6302000000000070
:106020000000000000000000000000004F630200BC
:106030005163020000000000536302005563020038
:106040001187020057630200598B02005763020058
:106050005763020057630200E189020057630200A0
:106060005763020057630200576302005763020040
:106070005763020057630200576302005763020030
:10608000576302000577020057630200576302005E
:1060900057630200576302006DAF020057630200AE
:1060A0005763020057630200576302005763020000
:1060B0005763020057630200000000000000000068
:1060C00057630200576302005763020057630200E0
:1060D000576302005763020057630200000000008C
:1060E00000000000000000000000000000000000B0
:1060F00000000000000000000000000000000000A0
:10610000000000000000000000000000000000008F
:10611000000000000000000000000000000000007F
:10612000000000000000000000000000000000006F
:10613000000000000000000000000000000000005F
:10614000000000000000000000000000000000004F
:10615000000000000000000000000000000000003F
:10616000000000000000000000000000000000002F
:10617000000000000000000000000000000000001F
:10618000000000000000000000000000000000000F
:1061900000000000000000000000000000000000FF
:1061A00000000000000000000000000000000000EF
:1061B00000000000000000000000000000000000DF
:1061C00000000000000000000000000000000000CF
:1061D00000000000000000000000000000000000BF
:1061E00000000000000000000000000000000000AF
:1061F000000000000000000000000000000000009F
:10620000314932480A1A02D0072291438D4630495B
:1062100030480A1A06D00722914381F309880222E6
:1062200082F314882C482D492D4A00F03CF82D4863
:106230002D492E4A00F037F82D482E492E4A00F0FD
:1062400032F82E482E492F4A00F02DF82E482F49BB
:106250002F4A00F028F82F482F49304A00F023F841
:106260002F483049304A00F01EF8304830490022AB
:1062700000F024F82F483049002200F01FF82F4A80
:1062800090471F481F49884205D00268043003B474
:10629000904703BCF7E700208646EC46002000212B
:1062A000274A9047FEE7884207D0521A05D0037864
:1062B00001300B700131013AF9D17047884202D0A8
:1062C00002700130FAE770470000012000E0002072
:1062D000000001200000012078C50200B81D002048
:1062E000E4230020B8630200B86302007AB402001D
:1062F00078C50200B81D0020B81D0020C0B50200FE
:10630000C0B50200C0B50200C0B50200C0B50200B1
:10631000C0B50200C0B50200C0B5020076C50200DB
:10632000A4CB0200E4230020E4230020E423002087
:10633000642E0020642E0020642E0020856302005D
:10634000F9970200FEE7FEE7FEE7FEE7FEE7FEE75D
:10635000FEE7FEE7FEE7FEE700F002B8FFF7FCBF4E
:106360000F484FF00701884385460E4880470E4886
:10637000016841F470010160BFF34F8FBFF36F8F6D
:10638000FFF73EBF09480A490A4A884207D0521A15
:1063900005D0037801300B700131013AF9D1704713
:1063A00000000120D981020088ED00E0C0B50200A4
:0863B000B81D0020B81D0020FB
:1063B800F0B595B01D46164608460C4601F04CFD52
:1063C8001A9B0D93CDE9086500252B46082205A9DF
:1063D80020460A958DF82C500C9501F059FD079B25
:1063E8000293069B03939DF814308DF8115003F027
:1063F8000302012A1DD1BDF81420059DC3F3C20371
:10640800C2F383168DF81030B20008230EA9204677
:1064180001F03EFDC5F3952508AB0093324602AB6B
:106428000EA9284600F0E2FB204601F019FD15B040
:10643800F0BD022AF8D1BDF81650C3F3C203C5F364
:1064480089158DF810300827082D2E4628BF0826F4
:106458003B4632460EA9204601F01AFDAD1B08AB9B
:1064680002AA31460EA8374400F024FC002DEBD1D7
:10647800DAE70000014B01221A707047252400203A
:106488007047000070B50E4D06460FCD88B06C46BB
:106498000FC495E80F00002E84E80F00094A0A4847
:1064A8004FF0060308BF00226946009302F0C6F8C1
:1064B80008B100F0D1FD054B1E7008B070BD00BFDB
:1064C800C0B502007D640200B81D0020E42300204E
:1064D80007B5044B0093044A4023FFF769FF03B054
:1064E8005DF804FBF5640200E523002038B50D488B
:1064F8000D4C0E4D002323700378EB5CD2B263B1D0
:10650800043002F09BFF08B100F0A6FD084B1A7892
:1065180012B12378002BFBD038BD0C3002F052FDAD
:10652800F1E700BFB81D002025240020C82A00205C
:10653800E423002008B50848084A0378D35C3BB137
:10654800043002F0F9FEBDE808400020FFF79ABFCA
:106558000C3002F0C9FCF6E7B81D0020C82A00205C
:106568000120FFF78FBF000008B5FFF7F9FF0448C7
:10657800042100F0A5FA034B01225A7108BD00BF9F
:10658800B0B50200CC1D0020037813F0040216D029
:1065980003F00303012B03D0022B09D0012070471D
:1065A8000A6800880232C0F3831002440A60F5E7E3
:1065B8000B684288023303EB92130B60EEE7104638
:1065C800704700002DE9F04FDFF830A187B00F4683
:1065D80000230446861C0DF1070015468DF8073088
:1065E80000F01CFFDAF800103960DAE901321344D0
:1065F80001335B1A0AF21C470AF583690AF2144848
:10660800B3421CD30020002D73D004F00F039B016C
:1066180043F0050363F30F00DAF80020DAF80830D6
:106628001340033332444AF823009DF80700CAF8A0
:10663800002000F017FF012007B0BDE8F08F01210E
:10664800384601F038F9484601F04DF9404601F066
:106658004AF9DAF80400DAF808B0029000EA0B0008
:1066680003300AEB800002A9FFF78EFF029B50BBA4
:106678000BEA03020AEB820203F1020CD2680392CE
:10668800013303EA0B0B0AEB8B0B02F00302012A1E
:10669800DBF80C10CDF808C023D0022A16D08346A8
:1066A800404601F023F910B1029BCAF8043059465C
:1066B800384601F000F9DAE901231344DAF800203A
:1066C80001339B1A9CE70BEA0300C9E7BDF80E30BB
:1066D800C3F3891303334FEA114B0CEB9303029373
:1066E800DEE7BDF80C30C3F383134FEA114B634464
:1066F800F5E7A40544F006008EE700BFF824002063
:106708000B4B0C48FF2210B59A600022C3F81824DE
:10671800C3E90022C3F8142483F8202401F055FBB0
:10672800044610B9044801F0B6FC204610BD00BF6D
:10673800F82400205CB5020014B6020030B50A4CFB
:1067480071B10A4A0A49121BD20800239A4201D1A0
:10675800002030BD31F82350854202D00133F5E7DF
:10676800034654F83300F4E7C4B402005CB50200F1
:10677800B81D0020094B013903EBC000032909D8D3
:10678800DFE801F00A020406042070470079704728
:10679800407970470020704702207047C4B4020057
:1067A800034BD3E90030C31A58425841704700BF21
:1067B800F82400202DE9F04387B0FFF7F1FF0646E3
:1067C800002840F0FE80804CC4F81804BFF34F8FB7
:1067D8006368A56802932B40033304EB830002A986
:1067E800FFF7D2FE029B18B1D4F81824002A62D011
:1067F80005EA0302991C013304EB82022B4004EBE7
:106808008303D268DB68049302F00303022B03922C
:10681800029163D1BDF80E306C48C3F38917502F2D
:10682800B84628BF4FF0500808F1080168F38F13E5
:10683800C1F30901ADF80E3001F0DFFA0646002871
:1068480000F0AA8001F008FB0023082203A93046C3
:1068580001F014FB029925EA01020132B8EB820F1C
:106868004FEA820333D95FFA88F863B32940DDB26F
:10687800A8EB050803315FFA88F9A846544D04EBE4
:10688800810108234246304601F0F8FA3DB108F18B
:106898000803DBB24A462946304601F0EFFA029B6C
:1068A800033703EB97070297D4F81834002B4BD122
:1068B800D4F810545BE0226893428CD3626030466F
:1068C80007B0BDE8F08342491D469946D9E72940FB
:1068D80003310823424604EB8101DDE7012B5BD13C
:1068E800BDF80C303948C3F38311062928BF0621A7
:1068F80061F38913023101F00F018900ADF80C3002
:1069080001F07BFA0646002846D001F0A5FA0023DC
:10691800082203A9304601F0B1FA0027BDF80C207F
:10692800C2F38312BB00974203F10803BCD2029959
:106938004A1C29400331029204EB810104223046AB
:1069480001F09CFA0137E9E7304601F089FAFFF7D0
:1069580027FF80F00100C6B2B1E7EB685B7923B18D
:106968002B6831461B6828469847EB681D68002D40
:10697800F3D1304601F074FA0DF107008DF8075095
:1069880000F04CFDD4F818340BB9029B63609DF8F5
:10699800070000F067FDDAE7D4F8104454B90D4B4E
:1069A8000D480E49C01AC008000440F0020000F06B
:1069B80063F8CCE7236820469B689847E3681C681F
:1069C800ECE700267BE700BFF82400205CB5020056
:1069D80004250020C4B40200ECB40200FDB5020096
:1069E8002DE9F74F224E04460F46924601A901228F
:1069F8001846D6F808909B46FFF7E4FD20B3019DA2
:106A08004FF00008AA1CD84508EB020126D1194806
:106A1800002100F021FF80F31000000440EA144038
:106A2800E4006B1C04F0380403EA090305EA0905CD
:106A380044F0010406EB8303033544EA881444EA6E
:106A48008724D86046F8254096F820341BB1FFF714
:106A5800B1FE0028FBD103B0BDE8F08F09EA0101BF
:106A680006EB81015AF82830CB6008F10108CAE723
:106A7800F82400201429002000231A46FFF7B0BF8D
:106A880007B50123019201AAFFF7AAFF03B05DF839
:106A980004FB07B5CDE9002302236A46FFF7A0FFF0
:106AA80003B05DF804FB1FB5CDE90123069B0393F2
:106AB80001AA0323FFF794FF05B05DF804FB00006B
:106AC80030B50F4CD4F8102403460020114631B9D4
:106AD800D96808714AB9C4F810340A6030BDC96869
:106AE8000D79854206D00968F1E7D26814680C6010
:106AF8001360F3E701300A28E8D14FF0FF30EDE7E3
:106B0800F824002038B5084B0125D3F8104483F841
:106B1800205404B938BDE3685D71236820465B687A
:106B28009847E3681C68F4E7F824002030B5C38868
:106B380085B004460D4633B1144A00921449154AEB
:106B4800284600F036FF217A05291DD0637A4BB11B
:106B5800A088FFF70FFE104B104953F82020284655
:106B680000F027FF227A0E4BA08853F822200392C8
:106B78000021FFF7E3FD039A0A490346284605B0BA
:106B8800BDE8304000F015BF05B030BD40B602008A
:106B980028B6020020B60200ACB6020045B60200D4
:106BA800D0B6020048B6020007B503460846197A6F
:106BB800052911D05B7A2BB1094A0A49019000F0E6
:106BC800F8FE01980849019000F0F3FE019803B01F
:106BD8005DF804EB00F0E2BE002AF8D0F2E700BF4F
:106BE80040B6020045B602003DB602002DE9F0436A
:106BF80085B01F460C9D002395F80C902B73064614
:106C08000C46904629463846FFF790FFB8F1060F24
:106C180009D8DFE808F00412181F2833400031466D
:106C2800284600F0C6FE002229463846FFF7BCFF7A
:106C380085F80C9005B0BDE8F083226831462846F7
:106C480000F0B7FEEFE7D4E900233146284600F00C
:106C5800B0FEE8E7A36800933146D4E9002328464C
:106C680000F0A7FEDFE7E3680193A36800933146CD
:106C7800D4E90023284600F09CFED4E72369029358
:106C8800E3680193A36800933146D4E900232846BA
:106C980000F08FFEC7E76369039323690293E368F3
:106CA8000193A36800933146D4E90023284600F0F5
:106CB80080FEB8E708292DE9F74F80460E461746AB
:106CC8001C463DD800251B7B2573214610460193A1
:106CD800FFF72CFFDFF88CA0DFF88CB0AE4232D97A
:106CE80018F805205946204600F063FE0135082DA6
:106CF800F4D11B49DFF874A0DFF874B0204600F027
:106D080058FE4FF000094E4524D918F809507E2D39
:106D18001ED8284604F0B8FA002814BF2A462E22A6
:106D28005946204600F045FE09F10109B9F1080F5E
:106D3800E9D1012221463846FFF736FF019B23732C
:106D480003B0BDE8F08F5146204600F032FECDE793
:106D58002E22E5E75146204600F02BFEE4E700BF6F
:106D68005CB6020058B6020052B602005AB60200DB
:106D78005EB60200C30710B507D4F023054A4008E1
:106D8800145C23401943115410BD0901C9B20F23E3
:106D9800F4E700BFE829002030B5094B1C78094BFF
:106DA800196800239C4202DC0022104630BD11F80D
:106DB8003350854201EBC302F7D00133F2E700BF3D
:106DC800B4290020F829002013B504460191FFF7E3
:106DD800E3FF38B143682BB10199204602B0BDE802
:106DE8001040184702B010BD034B04481968002230
:106DF800490800F02CBA00BFB8290020C02900209B
:106E080010B5C0B2FFF7C8FF0446007801F0DAFDFC
:106E180063785A1E53425341834208D1044BD3E945
:106E28000023134303D1BDE81040FFF7DDBF10BDB9
:106E3800E029002037B54308374AD35CC2074CBF66
:106E48001B0903F00F0304460D46042B25D8DFE881
:106E580003F003262F3C4000F9B10121FFF78AFF18
:106E680000230DF107008DF8073000F0D7FA012054
:106E7800A4F12003C4F12001284A20FA01F100FA04
:106E880003F30B43A040D2E9004120430B43C2E97E
:106E980000039DF8070000F0E5FA03B030BD0029B3
:106EA80018BF0221204603B0BDE83040FFF762BF9B
:106EB80049B10321FFF75EFF0121204603B0BDE879
:106EC8003040FFF781BF0121ECE70029E5D104211B
:106ED800E8E709B10321E5E7FFF74CFF294620461B
:106EE800FFF772FF0DF107008DF8075000F096FAD2
:106EF8000120A4F12003C4F12001084A20FA01F17D
:106F080000FA03F30B43A040D2E9004124EA000051
:106F180021EA0303BBE700BFE8290020E02900209D
:106F28002DE9F041124E134F00243378A34208DCB8
:106F3800114BD3E90023134318D0BDE8F041FFF704
:106F480053BF3D6805EBC40815F8340001F03AFD5D
:106F580098F801305A1E53425341181A4142414190
:106F680015F83400FFF766FF0134DEE7BDE8F0816D
:106F7800B4290020F8290020E0290020092AF7B5C3
:106F880005460C4616463ED901F054FCE8B11F4BA5
:106F98001F481D601F4B204F1C70204B00211022E2
:106FA8001E6004F0DCF91E4B00200021C3E900013B
:106FB800013CE4B20326FF2C0DD11A4A1A480021DD
:106FC80003B0BDE8F04000F037B901F003FC002839
:106FD800DDD003B0F0BD9DF8063015F834008DF80B
:106FE800046005EBC40223F007038DF8063001A9FD
:106FF80093788DF805303A4601F026FC013CE4B25E
:107008000028D8D0E5E70720E3E700BFF8290020EB
:10701800E8290020B4290020096E0200B8290020C0
:10702800E0290020296F0200F0B6020070B5084D73
:10703800084E00242B789C4201D3002070BD336891
:10704800012113F8340001F077FC0134F2E700BFA6
:10705800B4290020F82900201FB50021039001AAB7
:1070680044F20100CDE9011100F004F805B05DF823
:1070780004FB000038B572B6FFF744FDFFF79AFB32
:107088000028FBD1104B114C114D1249E41AE408A9
:10709800240444F00100FFF7EFFCD5F8F030DB07DB
:1070A80000D500BE0C4944F00200FFF7E5FCBFF331
:1070B8004F8FEA68094B02F4E0621343EB60BFF3B9
:1070C8004F8F00BFFDE700BFC4B40200ECB402005C
:1070D80000ED00E0F4B6020000B702000400FA0573
:1070E80010B5D0E90243D1E90202A04272EB0303D2
:1070F8002CBF0120002010BD08B50A4800F0E9FAAD
:10710800094AD2E90031C018084BD3E9002341F1FC
:107118000001904271EB030303D210F1807041F13A
:10712800000108BDD41D0020002A0020782A002074
:1071380037B505460C460A4801A900F0FCFA60B1CB
:107148000570446001A9064800F01FFB18B1054806
:1071580000F0C4FA002003B030BD0420FBE700BFF4
:10716800642A0020D41D002038B5184B1B7804462B
:1071780013B90025284638BD0028FAD0037F03F04C
:10718800FF05002BF5D0FFF7B7FFD4E902239042A3
:1071980071EB030314D3236903B92377D4E90530CA
:1071A800984721690029E4D0237F03F0FF05002BCD
:1071B800DFD0D4E902325B1842F10002C4E902329E
:1071C8000348214600F086FFD4E700BF082A0020C4
:1071D8001CB7020013B5114B114918680190082318
:1071E8001048582200F094FA044698B90E4A0F48FD
:1071F80001A900F05BF9044660B90C48012100F0D0
:107208004BFA01230A4A0948194600F0ADF9094B1F
:1072180001221A70204602B010BD00BF18B7020044
:107228000C2A0020642A002095720200D41D002038
:10723800FFFF7F00082A00203AB103685A614A1EFE
:10724800514251411961002070470720704738B5F5
:10725800037F04460D4683B98261FFF74DFF23691A
:10726800281841F10001C4E9020103B12561214652
:107278000020BDE83840FFF75BBF002038BD0000A4
:10728800014800F026BA00BFD41D00202DE9F347BD
:10729800064600F009FA40B1584AD2E9003113F124
:1072A800807341F10001C2E900310021304600F04D
:1072B8000AFA38B1524C236823B12068FFF754FF0B
:1072C800002323600121304600F0FDF920B1FFF7CB
:1072D80013FF4C4BC3E900014B48494D4B4C4C4FF5
:1072E80001A900F062FA002842D1DFF82081444C5D
:1072F800DFF82491404600F003FF2368002872D08D
:107308007BB12368D0E90252D3E902138D4272EBB4
:1073180003032AD223681B7F1BB12168404600F073
:10732800D9FE404600F0E6FED0E9027A0546FFF7AE
:10733800E3FE381A6AEB010A01287AF1000345DBFB
:10734800B0F5350F40D3FFF79BFF324A02444FF4A4
:1073580096030021484600F027F900283ED123680B
:1073680013B9304600F0F8F8256002B0BDE8F087A0
:107378000378012B1DD0022B09D14FF000082046BD
:1073880000F0B8FE002836D080F81C80F7E73BB93B
:1073980041680B7F23B901230B77204600F09AFE42
:1073A80001A9194800F02CFA01A9174800F0FDF9C5
:1073B80099E741682B68994202D100232B60EFE7D7
:1073C800204600F0A0FEEBE7AA68C0E70021484687
:1073D80000F06FF92846FFF7C7FE01E00D28F9D045
:1073E8000023236086E7002BBFD1304602B0BDE8FA
:1073F800F04700F0B5B801233B70D1E7002A002020
:10740800802A0020782A0020642A00201CB7020065
:10741800082A0020FFFFB400D41D002070B5EFF348
:10742800108672B60C4A946801239CB993600B4B82
:107438000B4DD3F8801029401160C3F88050D3F861
:10744800841051604FF0FF32C3F88420047006B9ED
:1074580062B670BD0370FAE7842A002000E100E0FC
:10746800FC06FFBD084B9A6810B55AB150B9EFF346
:10747800108172B6054A1C6814605C685460986094
:1074880001B962B610BD00BF842A002000E100E007
:10749800435882B03BB10023435043580193019BAA
:1074A800012002B070471846FBE70000F8B5224BF0
:1074B8004579224E43F82520214A224B9B1A06EB98
:1074C800C502DB0812791B04EF0032B143F0020059
:1074D8001D49FFF7D1FA0820F8BD02680C88C2F8E8
:1074E800084590F9044002798978002CADBF04F171
:1074F800604CDFF85CC002F00F0E0CF5614C4FEAEF
:107508004111C9B2B4BF0CF80E108CF8001364090D
:107518000121DFF840C002F01F0201FA02F24CF824
:107528002420F21946F83500117143F00300074989
:10753800FFF7A2FA0020CFE7982A0020902A00201F
:10754800C4B40200FCB4020028B702004AB7020023
:1075580014ED00E000E100E0036801221A607047C2
:10756800036801225A60704773B501F15005AD00F8
:107578000068ADB24FF480348C400026C0F8084350
:10758800C0F84843465101F5A8714559019522F0C4
:107598007F42019D40F82120C0F844430BB1C0F858
:1075A800044302B070BD00002DE9F74F0D4622F0EC
:1075B8007F4402684FF4803705F150068F408046BB
:1075C800B60002EB8500C2F84873B6B2C2F8087379
:1075D800D2F8041599464FF0000BD0F84035C0F8A2
:1075E800401542F806B05B1A9259009223F07F4387
:1075F800012B009A4FEA850A0CD1264B4FF4806084
:1076080043F001039847D8F8003043F806B09B5977
:107618000193019BD8F80010D1F80465C1F84473B0
:10762800A31B23F07F43012B1CD11A4B05F5A8752A
:10763800013443F0010341F825404FF48060984736
:10764800D8F80030D3F804359E4209D1D8F8003074
:107658000020C3F84473C3F8047303B0BDE8F08F87
:107668000D20FAE78A44C9F1FF13CAF84045D1F85A
:107678000405221A013A22F07F4203F57F43934220
:10768800EED3002AE2D10134CAF84045D1F80435D6
:107698009842DAE760B7020003680222C3F844237D
:1076A80009B1C3F80423704700684FF48271FFF7EB
:1076B800EFBE4FF4803303FA01F10368C3F84813AF
:1076C800C3F80813704750318900006889B2FFF782
:1076D800DFBE0368D3F804057047000090F9043052
:1076E80001215A0903F01F0301FA03F3403202494A
:1076F80041F82230704700BF00E100E0024B034A26
:107708001B681068184700BF982A0020902A00209C
:1077180010B561B1B2FBF3F403FB1424A4B244B96D
:10772800C0E9001484608281C381204610BD0E2008
:10773800FCE70920FAE737B550E8013F9DB2C48954
:1077480025448489A54228BF2D1B0489A54202BF70
:10775800BFF32F8F002207E0C5EA030540E8015474
:10776800002CE9D14FF001028DF803200193019A12
:107778000A609DF8031001F0FF0321B1006810FAB8
:1077880082F003B030BD1846FBE70A884B889A425E
:1077980009D150E8012FC2EA024240E80123002B38
:1077A800F7D1012070470020704737B550E8023FF5
:1077B8001FFAA3F5C488A54202BFBFF32F8F00228A
:1077C8000DE0C48925448489A54228BF2D1BC3EA3E
:1077D800054540E80254002CE8D14FF001028DF82D
:1077E80003200193019A0A609DF8031001F0FF033A
:1077F80021B1006800EB124003B030BD1846FBE72A
:107808000A884B889A4209D150E8022FC2EA2242DC
:1078180040E80223002BF7D1012070470020704771
:1078280001F01F024B090121914000EB830000F099
:107838001EB801F01F0301229A404B0900EB830098
:10784800D14300F02CB84B0901F01F0150F8230078
:10785800C84000F00100704710B5034653E8000F18
:107868000A4643E8002494F0000FF7D110BD10B584
:10787800034653E8002F42EA010043E8000494F06D
:10788800000FF6D110BD10B5034653E8000F00EA0B
:10789800010243E8002494F0000FF6D110BD10B5A2
:1078A800034653E8002F02EA010043E8000494F07D
:1078B800000FF6D110BD10B5034653E8002F02EBB8
:1078C800010043E8000494F0000FF6D110BD10B594
:1078D800034653E8002FA2EB010043E8000494F0AC
:1078E800000FF6D110BD0121FFF7C1BF0021FFF73E
:1078F800CABF10B590B1D0E9012301689B1ADBB269
:107908000A60013BDBB2FF2B026802D10020107134
:1079180010BD11684C1C14600B70F2E70E20F7E7DD
:1079280037B5054600240DF107008DF80740FFF72D
:1079380075FD2A686B68116899420ED9481E106057
:1079480011F8013CEC68298A01FB0344AB68117902
:107958001B1ADBB2994238BF13719DF80700FFF775
:1079680081FD204603B030BD37B5054600230DF133
:1079780007000C468DF80730FFF750FD2A6813689A
:10798800591C1160E968641A298AB4FBF1F41C7067
:107998009DF80700FFF766FD03B030BD826810B59B
:1079A80004462AB143690168006998470023A36027
:1079B80010BD0EB403B5039921B104AB01AA01931C
:1079C80000F076F802B05DF804EB03B070470A29BE
:1079D80038B504460D4602D10D21FFF7F8FFA3681C
:1079E8002268591CA160D554D4E901329A4204D3C3
:1079F8002046BDE83840FFF7D1BF38BD2DE9F84F24
:107A08009846DDE90A43154682460F460A464FF076
:107A18000109AA420FD2C14538BFC14613F0010B74
:107A280001D16CB900240126B8F1010F1BD908F166
:107A3800FF386E43F8E709F10109B2FBF5F2E8E710
:107A48009B070ED5B8F1000F0CBF30262026A145A4
:107A5800E9D2013C31465046FFF7B9FF002CF6D178
:107A6800E0E72026F3E7B7FBF6F39D42E1D9DFF81C
:107A78003C80B7FBF6F3504618F8031006FB137763
:107A8800FFF7A5FF3346AB42B6FBF5F6F1D2BBF1E3
:107A9800000F02D00CB1A14501D3BDE8F88F202119
:107AA8005046013CFFF793FFF4E700BF66B70200BA
:107AB8002DE9F74F054617468846002900F03E8114
:107AC80018F8011B49B92B7B002B00F03781284699
:107AD80003B0BDE8F04FFFF761BF252940F0B7803C
:107AE800002698F800302D2B424608F1010823D0D3
:107AF800302B24D02B2B25D000242A2B02F1010176
:107B080023D13B681A1D1B683A601C440A46137847
:107B18002E2B26D101324FF0000A104610F8011B17
:107B2800A1F1300CBCF1090F1DD80A2303FB0A137D
:107B3800A3F1300A0246F0E746F00106D1E746F025
:107B48000206CEE746F00406CBE711F8013CA3F1A4
:107B580030000928DBD80A2202FB0434303C0A46EC
:107B6800CBE74FF0000A12F8011B01F0FB00682870
:107B78009046F8D0782909D86F290CD8632962D0A3
:107B880022D8252963D0582900F0888098F8003039
:107B9800002B95D197E770390829F7D801A353F836
:107BA80021F000BF1F7D0200957B0200957B02003B
:107BB800B57C0200957B0200937C0200957B020055
:107BC800957B0200A57C0200642901D06929DDD1DA
:107BD8003A68D2F80090111D89EAE9723960A2EB7F
:107BE800E9724FF0010B092A35DCD34538BFD3467B
:107BF8002CB1B9F1000F01DB720700D5013CB307C6
:107C080002D5BAF1000F03D0F00701D44CBB002411
:107C1800B9F1000F2DDAC9F100092D212846FFF727
:107C2800D6FE06F00302022A04D1BAF1000F01D1F0
:107C38001CBB0024CDE9004653460A224946284683
:107C4800FFF7DCFEA2E73B681A1D19783A60284660
:107C5800FFF7BDFE9AE70A230BF1010BB2FBF3F223
:107C6800C1E7A345D4D220212846013CFFF7AFFE47
:107C7800CCE77107D5D52B21D0E7A345DAD230213F
:107C88002846013CFFF7A3FED2E73968CDE9004654
:107C98000A1D3A6053460A220968D0E739680A1D66
:107CA8003A60CDE9004653461022F5E73B681A1DB5
:107CB8003A6016F00106D3F8009024D1B9F1000F0C
:107CC80003D0484603F0A5FB0646B4421DD809F187
:107CD800FF3919F8011F00293FF458AF2846FFF76C
:107CE80076FEF6E728460136FFF771FE19F806100A
:107CF8000029F7D1A642BFF449AF20212846013C0C
:107D0800FFF765FEF6E70026F0E720212846013C4C
:107D1800FFF75DFED9E73B681A1D3A603021284617
:107D28001C68FFF754FE78212846FFF750FE002212
:107D38000823CDE900322146102280E703B0BDE8D0
:107D4800F08F00BF2DE9F84FB0F806A04579D2F8BA
:107D580000B09DF828900AFB05F5043D88460BEB1A
:107D68000301A94203F1040488BFA5EB030BB4FB8C
:107D7800FAF607460AFB1644C2F800B04EB9AAEB59
:107D880004055D4528BF5D46BBF1000F04D1BDE881
:107D9800F88F3F68013EF1E7043408EB06003C44E5
:107DA8002A46B9F1000F0DD02146ABEB050B03F0C5
:107DB800ADFADA452E443F6855464FF0000428BF17
:107DC8005D46E1E701462046EFE7FFF792BDF8B5CB
:107DD80046790146721E0546002393422D6803D357
:107DE8000024A64202D8F8BD0133F6E70F682846FA
:107DF800FFF7BAFD01343946F3E72DE9F843068A5F
:107E0800CD1C0746FFF78CFD043E35440446B5FB00
:107E1800F6F5F0B14FF48073EDB28380C680013D72
:107E2800076081464FF00008A84512D23846FFF790
:107E380077FD064648B163790133637108F101089B
:107E4800C9F8000007608146EEE72046FFF7BFFF4C
:107E580034462046BDE8F88301210430FFF72BBDE6
:107E680010B5012104460430FFF731FDC0B220B936
:107E78002046BDE81040FFF7AABF10BD1FB503920A
:107E88000022009203AAFFF75DFF05B05DF804FB2E
:107E98001FB503920122009203AAFFF753FF05B012
:107EA8005DF804FB41DF7047064B10B500241C70D9
:107EB800054B1C60BFF35F8F0449054800F0F4F8D8
:107EC800204610BDA42A0020A82A002080B702005E
:107ED8009C2A002007B500230DF107008DF8073014
:107EE800FFF79CFAF1EE103A23F09F03E1EE103A07
:107EF800BFF35F8F0A4B4022C3F884219DF8070027
:107F0800FFF7B0FA03F014F820B103B05DF804EB02
:107F1800FFF7C8BF20BF40BF20BF03B05DF804FB18
:107F280000E100E0026813685268934291BFD01ADA
:107F380080680130801888BFC01A7047036881685C
:107F48001A685B688B4234BF01330023D31A584246
:107F58005841704773B5002304460DF107000D46DC
:107F68008DF80730FFF75AFA2046FFF7E7FF10B100
:107F7800237C002B3BD12368A1685E685A688A423B
:107F880034BF013200225A6028B11A688A4234BFCD
:107F9800013200221A60E2686368511E072920D85E
:107FA800DFE801F004101F141F1F1F182A789A55C4
:107FB8002046FFF7B7FF23689A68824200D298608C
:107FC800002415E02A8823F81620F1E72A6843F8E8
:107FD8002620EDE7D5E9000103EBC603C3E900015C
:107FE800E6E7294602FB063003F090F9E0E70424AF
:107FF8009DF80700FFF736FA204602B070BD036807
:1080080018685B68C31A58425841704773B5002313
:1080180005460DF107000C4616468DF80730FFF7A8
:10802800FDF92846FFF7EBFF002832D12B681968C5
:108038002EB91A68A868824238BF561C1E60EA68C2
:108048006B68501E07281ED8DFE800F0040E1D12CA
:108058001D1D1D165B5C237000249DF80700FFF7AB
:1080680001FA204602B070BD33F811302380F3E7DF
:1080780053F821302360EFE703EBC103D3E9002372
:10808800C4E90023E8E701FB0231204603F03EF98A
:10809800E2E70524E1E7836800225A60C3E9042285
:1080A8009A60DA601A6070470B684A6843609342C6
:1080B80008BF0023016008BF43607047436843B1AD
:1080C8000268916852680B449342436004BF0023DE
:1080D8004360704770B5446806460D46206818B17D
:1080E800B3682946984718B923682B60256070BD86
:1080F8002468F3E74368186808B102681A60704793
:108108004368186870474368186800B97047884220
:1081180003D102681A600120704703460068F4E73B
:1081280010B50D49A1F59472914201D800200FE0D5
:108138008C1AE30F03EBE4035B1002EBC30452F861
:108148003330834205D802D204F10802ECE76068B4
:1081580010BD2146E8E700BF8CBC020008B5FFF758
:10816800DFFF024B002808BF184608BD4FBB0200BE
:108178004FF0704393F8E02F062A10D1D3F8E42F7C
:1081880012070CD1D3F8E80F00F0F003302B08D019
:1081980000F0E000A0F14003584258417047002029
:1081A8007047012070474FF0704393F8E02F062A7C
:1081B8000CD1D3F8E42F120708D1D3F8E80F00F058
:1081C800F000A0F130035842584170470020704732
:1081D80008B5FFF7CDFF40B14FF08053884AD3F878
:1081E8002433C3F30423C2F84035FFF7DCFF10B192
:1081F800844B854A5A67FFF7BBFF48B14FF080535D
:108208004FF08042D3F84432C3F34233C2F83C35CE
:10821800FFF7C9FF30B17D4AD2F8FC3023F08073F4
:10822800C2F8FC30FFF7A4FF40B14FF080430022B2
:10823800C3F80C21C3F81021C3F83825FFF7B3FFA2
:1082480020B14FF080430322C3F8A025FFF7ABFF0E
:1082580060B16F4B0522C3F810260122C3F88826A7
:108268000022C3F818263F22C3F814264FF07043A3
:1082780093F8E02F062A50D1D3F8E42F11074CD1F8
:10828800D3F8E83F03F0F003502B46D14FF080526B
:10829800604BD2F80414C3F82015D2F80814C3F8B8
:1082A8002415D2F80C14C3F82815D2F81014C3F802
:1082B8002C15D2F81414C3F83015D2F81814C3F8D2
:1082C8003415D2F81C14C3F84015D2F82014C3F89A
:1082D8004415D2F82414C3F84815D2F82814C3F862
:1082E8004C15D2F82C14C3F85015D2F83014C3F832
:1082F8005415D2F83414C3F86015D2F83814C3F8FA
:108308006415D2F83C14C3F86815D2F84014C3F8C1
:108318006C15D2F84424C3F87025FFF729FF48B13B
:108328004FF080534FF08042D3F8583203F04F0398
:10833800C2F8E43EFFF71CFF48B14FF08043D3F882
:108348000024D20744BF6FF00102C3F800244FF0A5
:108358008053D3F83021062A0AD1D3F83431062BBA
:1083680001BF2D4AD2F83C3743F48063C2F83C374A
:10837800264AD2F8883043F47003C2F88830BFF335
:108388004F8FBFF36F8F4FF01023D3F80022002ACE
:1083980003DBD3F80432002B2EDA204B0122C3F87A
:1083A8000425D3F80024002AFBD04FF01022152111
:1083B800C2F80012D3F80024002AFBD04FF0102393
:1083C8001522C3F80422154BD3F80024002AFBD049
:1083D8000022C3F80425D3F80024002AFBD0BFF3F9
:1083E8004F8F0A490E4BCA6802F4E0621343CB6010
:1083F800BFF34F8F00BFFDE70A4B0B4A1A6008BD59
:108408000030014000C007400DF0ADBA00ED00E0BB
:108418000050004000C000400010004000E0014053
:108428000400FA05DC1D00200090D003044B1A5C00
:10843800012393404FF0A042C2F80C35704700BFAB
:108448008CBC0200044B1A5C012393404FF0A042FD
:10845800C2F80835704700BF8CBC020008B5002080
:10846800FFF7F0FF0120FFF7EDFF0220FFF7EAFF1B
:10847800BDE808400320FFF7E5BFC20708B501467D
:108488000CD54FF0A0430322C3F84427C3F848276C
:10849800C3F84C27C3F85027FFF7E0FF8B070AD52E
:1084A8004FF0A0430C22C3F83427C3F83827C3F889
:1084B8003C27C3F8402708BD38B5074C051E04F112
:1084C800080318BF1C4623682BB11A6822605B6832
:1084D80028469847F7E738BDB42A002020B9054B4D
:1084E80001225A70FFF7E8BF012802D1014A9070B3
:1084F800F8E77047AC2A002020B9034B01225A70D4
:10850800FFF7DABF704700BFAC2A002038B50B4C24
:10851800237883B90A486360A3602361E36000F0AD
:10852800CBF8054602F004FD08B900F0D1F80123A4
:108538002370284638BD8525FBE700BFAC2A0020FC
:10854800E584020037B50B4C00230DF107008DF8C8
:108558000730FEF763FFE368013BE360E56815B9A0
:1085680000F0C8F8A5709DF80700FEF77BFF03B080
:1085780030BD00BFAC2A0020012813B508D003285D
:108588001CD018B9114B0122C3F8802002B010BDCD
:108598000F4C00230DF107008DF80730FEF73EFF62
:1085A80023780BB9FFF7B2FFE3689DF807000133A2
:1085B800E3600123A370FEF755FFE7E700F088F8B2
:1085C80002B0BDE81040FFF7BDBF00BF00E100E00A
:1085D800AC2A00201FB503788DF80030436801935A
:1085E80083688DF80830C368054A0393054B6846CD
:1085F80053F8213052F82110984705B05DF804FB74
:10860800C02A0020C42A00201FB503788DF8003046
:108618004368019383688DF80830C368054A03935B
:10862800054B684653F8213052F82110984705B099
:108638005DF804FBC02A0020C42A0020F0B5194BBD
:1086480090F800C091F81DE043F82C20164B164610
:108658000A6943F82C20154B03F80CE00C46074632
:108668000FCC89B06D460FC594E80F0085E80F0060
:10867800CDF810C0BEF1000F09D0002E0C4A694693
:1086880008BF3246381D00F091FD09B0F0BD002E3C
:10869800084A694608BF324607F10C0000F06AFB39
:1086A800F3E700BFC42A0020C02A0020C82A0020FF
:1086B800DD85020011860200044A137923B90121DD
:1086C800106091801846704785207047CC2A00209A
:1086D800074B1A68D2075FBFC02283F80023012224
:1086E8001A604FF080430122C3F81825704700BF75
:1086F80000E100E04FF080430122DA60D3F818244B
:10870800D203FBD4704700004FF0804307B5D3F87D
:1087180000217AB10022C3F80021D3F80021009289
:10872800009A0122C3F808230F4B587910B95A71DF
:108738001B6898474FF08043D3F8042182B1002288
:10874800C3F80421D3F804210192019A0222C3F844
:108758000823054B1B68012003B05DF804EB18479C
:1087680003B05DF804FB00BFCC2A002000F1804074
:1087780000F5C040002382B0036003680193019BA9
:1087880002B07047800000F1A040D0F8002722F422
:108798004032C0F80027D0F8003743EA0141C0F85A
:1087A80000177047C208012300F0070003FA00F021
:1087B8008B5C184388547047054B4FF0FF320728ED
:1087C80043F8202084BFC01880F84820704700BFB5
:1087D800D42A002038B5144D95F858400CBB2022F7
:1087E800FF2105F1300002F0BAFDE0B20134FFF7D5
:1087F800E3FF0C2CF9D10D4B0022C0216A6583F8E8
:108808000613402119604FF4BE70FFF7AFFF084B05
:108818004FF00041C3F80413012385F8583010467F
:1088280038BD0820FCE700BFD42A002000E100E0A2
:1088380000600040034B93F85800003818BF01202F
:10884800704700BFD42A00202DE9F041DFF8E4800A
:1088580008EB0003054693F93030002B0F4664DA25
:108868008B78C3F34003002B0BBF082400240C2192
:1088780008218C4202D10420BDE8F08158F8240078
:1088880001303DD108EB050166B248F8242081F893
:1088980030601BB908EB040383F84850BB785A07CB
:1088A8000ED4D9072ED5AB0003F1A043D3F8002787
:1088B80022F00202C3F800271D492846FFF772FF7D
:1088C800BB783A7813F0020325D0A40004F1804461
:1088D80004F5C0442D02D4F8103523F4473323F4AB
:1088E8004073C4F810351204D4F8103505F4F8555F
:1088F80002F4403215431D43C4F810550020BBE76D
:108908000134B6E77A7805F5E0734FF0A04192009C
:1089180041F82320D0E7083E48FA86F696F85050EA
:1089280045EA821286F85020E8E70820A4E700BF4D
:10893800282B0020D42A002038B5204C251895F97A
:108948003020072A18DD083A44FA82F494F85030A7
:108958009B09032B0BD14FF0A043D3F81015C1404E
:1089680001F001010231BDE83840FFF70BBF012BD0
:108978000CBF02210321F6E7D3B2072B1DD89300C1
:1089880003F1804303F5C043D3F8100540F001001C
:10899800C3F8100502F1400040B2800080B2FFF732
:1089A800E5FE51B195F9303054F823302BB101234D
:1089B80003FA02F2024BC3F8042338BDD42A00207C
:1089C800006000404FF0A043D3F8103523FA00F0C0
:1089D80000F00100704700002DE9F04F87B0002437
:1089E800584D03944FF48072012102F1804303F53E
:1089F800C04390B21B68012B06D1D5F804330B4253
:108A080002D0FFF7B3FE0C430432B2F5907F4FEA71
:108A18004101EAD14B4BD3F87C31012B0AD14FF4F9
:108A2800BE70FFF7A3FE4FF0A04344F00044D3F814
:108A380010350393E3B2D3B1434F002501263442E6
:108A480010D0AB0003F1804303F5C043D3F8100501
:108A5800D3F8101557F8253023B1C1F30141C0F3FD
:108A6800042098470135082D4FEA4606E7D1002C27
:108A780061DA00224FF0FF33CDE90423DFF8C88024
:108A8800DFF8C89000273E464FF0A04B19F9014B7C
:108A9800631C45D0C4F3C20318336B440122E5B20A
:108AA80004F03F0004F0070402FA04F413F8042C5D
:108AB800224235D008EB0002AD0992F9302058F86F
:108AC80022A0BAF1000F09D1032D29D104A90193DD
:108AD8000090FFF767FEDDE9000301E0032DF5D004
:108AE80000F5E07113F80C3C5BF821102342C1F348
:108AF800014105D0022913D1032D0CD1294604E0E8
:108B080003290DD1032D06D1022100900136FFF76C
:108B180039FE0098F6B2BAF1000F01D02946D047C5
:108B28000137042FB2D136B14FF0A043039AD3F8DE
:108B38001035934202D107B0BDE8F08F0393049B30
:108B480005939DE700600040D42A0020242B0020D4
:108B5800014B1B68184700BF302B00200E4B984272
:108B680037B50C4602D0002003B030BD00230DF10C
:108B780007008DF80730FEF751FC084B1D7915B931
:108B880001221C601A719DF80700FEF76BFC002D8E
:108B9800E9D01120E8E700BF00200040302B00207A
:108BA800034B984201BF034B00221A601A717047A9
:108BB80000200040302B00200023435082B043584F
:108BC8000193019B02B070470A4610B54FF48E71AD
:108BD800FFF7F2FF136A9168C95C136A01331362E5
:108BE800C0F81C1510BD8B690A4610B54FF4847186
:108BF80023B9FFF7E1FFD0F8183510BDFFF7DCFF08
:108C0800536AD168D0F81805C854536A01335362BF
:108C1800F3E700001FB501238DF80030044BCDE9C0
:108C28000110D3E900126846904705B05DF804FBCF
:108C3800382B002030B54D4DD5F804339A0585B052
:108C480051D5D5F82431002B4DD04FF492712846D8
:108C5800FFF7B2FF4FF40173C5F80833444B93F89C
:108C680029200AB901226A60404902228DF80020B1
:108C7800D1F88024C1F8802403929A690292DA68B4
:108C880001920022C3E906226846D3E90012904700
:108C98003648D0F81C315BB1354A5169136A99429C
:108CA8004DD992F82830002B49D11146FFF78CFF97
:108CB8002E48D0F84431002B56D04FF4A271FFF75C
:108CC8007BFF2B4B93F829200AB1012202609A6995
:108CD800002A49D0586AD96800229A6105B0BDE8CF
:108CE8003040FFF797BFD5F804335B07D0D5D5F8E8
:108CF8000831002BCCD01E4C1C482146FFF773FFCF
:108D0800636AA2699A42C3D1E369E1684BB1A3617E
:108D18002369E3600023606AE3616362FFF77AFF17
:108D2800B6E794F829300BB901236B600F4B4FF469
:108D38000172C3F808230023606AA361EEE70B48B9
:108D48004FF48E71FFF738FF5369002BB0D051698B
:108D58000291002391688DF80030019153616846B3
:108D6800D2E900139847A3E705B030BD00200040C2
:108D7800382B00202DE9F843564D90F804802C2319
:108D880003FB0853064693F82A300C469146002BFD
:108D980040F09B8050490068FFF7E0FE0746002836
:108DA80040F0958022683068511C0BD04FF0A041EC
:108DB80001239340C1F8083502F5E0734FF0030C26
:108DC80041F823C061684B1C1FBF01F5E0734FF0E9
:108DD800A04C4FF0000E4CF823E0A369C0F82435EE
:108DE80094F814C0637DBCF1010F4CEA0303C0F88A
:108DF8006C35C0F81415C0F80C251DD1A268531C99
:108E08001FBF02F5E0734FF0A0414FF0000C41F88E
:108E180023C0E368591C0BD04FF0A04C01219940A6
:108E2800CCF8081503F5E0714FF0030E4CF821E07B
:108E3800C0F80835C0F810252C2202FB08F2AB1840
:108E4800C3F804902369AB50B9F1000F2AD04FF44E
:108E58008E71247FFFF7B0FE30684FF4A271FFF7E0
:108E6800ABFE32681D4BC2F80433130B42F30732D2
:108E7800002AA8BF02F160404FEA4411BABF18485F
:108E880003F00F0400F56140C9B2B4BF015580F882
:108E9800001303F01F03012101FA03F352091149DA
:108EA80041F8223033680422C3F800252C2303FB41
:108EB80008530022C3E9062283F829205A610122B7
:108EC80083F82A203846BDE8F8830827FAE71127EF
:108ED800F8E700BF382B00203D8C0200800002001C
:108EE80014ED00E000E100E0F8B5057900682C4CCD
:108EF8000023C0F800352C2303FB05435B686BB1E6
:108F0800284BC0F8083340F30733C0F304315B093A
:108F180001228A402033244941F82320D0F80C65E7
:108F2800D0F81415D0F80835D0F810254FF0FF37D1
:108F3800BE42C0F8147518BF06F5E076C0F80C7587
:108F4800C0F80875C0F810751EBF4FF0A0474FF065
:108F5800020C47F826C04E1C1FBF4FF0A04601F573
:108F6800E071022746F82170511C1FBF4FF0A04145
:108F780002F5E072022641F822605A1C1FBF03F571
:108F8800E0734FF0A042022142F82310FFF708FED9
:108F98002C2303FB0544002384F82A306360F8BDC2
:108FA800382B00208402020000E100E00279044B23
:108FB8002C2101FB02335869003818BF0120704783
:108FC800382B00202DE9F84F064690F80480894692
:108FD8009246FFF7EBFF044600283CD1204F2C2592
:108FE80008FB057B4FF48E71CBF814A0CBF80890E2
:108FF800CBF820008BF828003068FFF7DDFD3068DB
:10900800012383605946FFF7DFFDDBF804305D4636
:109018001BBB3068DBF814402B6A9C4211D83368BC
:10902800D3F81C21002AFBD00122DA6000202C236F
:1090380003FB087700237B61BDE8F88F95F828309B
:109048003BB9D0F81C31002BF8D05946FFF7BCFDCE
:10905800E2E70F20EBE71120EEE72046ECE700BF40
:10906800382B00200023435082B043580193019BC2
:1090780002B070471FB501238DF80030044BCDE9CD
:109088000110D3E900126846904705B05DF804FB6B
:10909800642B00207FB5434AD2F82461002E60D0AB
:1090A80010464FF49271FFF7DDFF02238DF8003070
:1090B800D2F88034C2F880340393D2F83C35029356
:1090C800394BDA6801920022C3E906226846D3E9DF
:1090D800001290473348D0F8443173B14FF4A2716D
:1090E800FFF7C0FF304B9A693AB10022C3E9062264
:1090F800D968D0F83C05FFF7BDFF2A48D0F82031E1
:10910800ABB14FF49071FFF7ADFF0123C360264B5D
:109118005A6962B1D0F84C150291002299688DF80D
:10912800002001915A616846D3E9001290471D4812
:10913800D0F858319BB14FF4AC71FFF793FF1A4B3D
:109148005A6962B1D0F84C150291002299688DF8DD
:10915800002001915A616846D3E90012904704B093
:1091680070BDD2F81031002BB4D04FF4887110467E
:10917800FFF778FF0C4BD2F83C0599698842A9D1D2
:10918800DC69D96864B1D2F8005225F02005C2F82C
:1091980000521A699C61DA60DE61FFF76BFF99E79C
:1091A8009C61FAE700200040642B00202DE9F84379
:1091B8005C4E90F80480242303FB0863044693F86C
:1091C80020300D469146002B40F0A8805649006893
:1091D800FFF7C4FC0746002840F0A2802A682068F0
:1091E800511C0BD04FF0A04101239340C1F8083522
:1091F80002F5E0734FF0030C41F823C069684B1C7B
:109208001FBF01F5E0734FF0A04C4FF0000E4CF873
:1092180023E0AB69C0F8243595F814C06B7DBCF128
:10922800010F4CEA0303C0F86C35C0F80C25C0F8F0
:1092380014151DD1AA68531C1FBF02F5E0734FF027
:10924800A0414FF0000C41F823C0EB68591C0BD02B
:109258004FF0A04C01219940CCF8081503F5E071B6
:109268004FF0030E4CF821E0C0F80835C0F810257F
:10927800242202FB08F2B318C3F804902B69B350F8
:10928800B9F1000F39D04FF488712A7FFFF7EAFE51
:1092980020684FF49071FFF7E5FE20684FF4927153
:1092A800FFF7E0FE20684FF4A271FFF7DBFE2068AD
:1092B8004FF4AC71FFF7D6FE23681C49C3F80413BA
:1092C800190B43F30733002BAEBF03F1604001F0E5
:1092D8000F0517484FEA4212A8BF00F56140D2B205
:1092E800B4BF425580F8002301F01F01012202FAA1
:1092F80001F15B090F4A42F8231023680822C3F8DA
:109308000025242303FB08660023C6E9063373619E
:10931800012386F820303846BDE8F8830827FAE7A5
:109328001127F8E7642B00209D90020010034200EB
:1093380014ED00E000E100E0F8B5374C057924238E
:1093480003FB054302465B6800686BB1334BC0F80A
:10935800083340F30733C0F304365B090121B140F9
:1093680020332F4E46F82310D0F80032012623F080
:109378002003C0F800324FF4AC714660FFF772FE6C
:109388001068C660D0F85831002BFBD00023C0F815
:109398000035D0F80C65D0F81415D0F80835D0F899
:1093A80010254FF0FF37BE42C0F80C7518BF06F500
:1093B800E076C0F81475C0F80875C0F810751EBFBF
:1093C8004FF0A0474FF0020C47F826C04E1C1FBFB5
:1093D8004FF0A04601F5E071022746F82170511CB4
:1093E8001FBF4FF0A04102F5E072022641F822604B
:1093F8005A1C1FBF03F5E0734FF0A042022142F848
:109408002310FFF7CDFB242303FB0544002384F836
:1094180020306360F8BD00BF642B002010034200B9
:1094280000E100E00279044B242101FB0233586972
:10943800003818BF01207047642B002001F06043FA
:10944800B3F1005F2DE9F0470646884692463BD1C6
:1094580090F80490FFF7E6FF0446002836D11D4F28
:109468003068242505FB09754FF49071C5F814A0E0
:10947800C5F80880FFF7F6FD4FF4AC713068FFF7C8
:10948800F1FD33686A69A968C3F84415C3F848252B
:1094980001229A606A68DAB9D3F82021D3F8580112
:1094A8001AB90028F8D00F2007E00028FBD10122C4
:1094B800DA60D3F85821002AFBD0242303FB09776C
:1094C80000237B61BDE8F0871020FBE71120F9E756
:1094D8002046F7E7642B0020032811D8012A0AD177
:1094E80001290FD100F10E02D2B20D4B00EB400062
:1094F8001A54002070470129F7D0022904D049B135
:10950800072070470022F8E7054B00EB400018449D
:109518004270EEE7024B00EB400018448270E8E727
:10952800882B002008B5012202210020FFF7D4FF74
:1095380008B1072810D1072202210120FFF7CCFF2C
:1095480008B1072808D100210A220846FFF7C4FFFE
:1095580010B1072808BF002008BD00000388102BA1
:1095680010B502D0112B1ED010BD1A4C2168B1B90C
:1095780001220846FFF7B0FF08B1072824D10722C7
:1095880002210120FFF7A8FF08B107281CD10422F7
:1095980002210020FFF7A0FF08B1072814D1236893
:1095A80001332360E0E70B4A1368013B1360002B8B
:1095B800DAD1FFF7B7FF0028D6D0074B1B68002B7E
:1095C800D2D0BDE810401847034B1B68002BE6D0EB
:1095D8009847E4E7982B0020942B002075DF70470C
:1095E80076DF70478FDF7047FDF736BD01460148CB
:1095F80001F0FBBA282D002070B50D78012D064624
:109608000C4602D0022D1ED070BD0A1D194849888B
:1096180001F0F8FB1848194B628819491B1ADB0836
:109628001B0443F00300FDF72BFAFDF7FFFC08B11C
:10963800FDF712FD304601F08DFB0028E4D0BDE8AF
:109648007040FDF709BD0C4B0C480A790D49C01A4A
:10965800C008000440F00300FDF712FA23792846F9
:109668001BB1BDE87040FEF7E1BEBDE87040FEF7F3
:10967800E9BE00BF282D0020C4B40200ECB40200EB
:10968800B2BC0200E5BC020008B5074801F0BAF90F
:1096980008B1FDF7E1FC0120FEF7D4FEBDE8084063
:1096A8000020FEF7C3BE00BF542D00200388212BE5
:1096B80013B504464ED007D8112B30D01F2B3DD000
:1096C800102B0AD002B010BD3B2B01D0562BF9D17C
:1096D800A0881321FFF784FF35E0254B254826494C
:1096E800C01AC008000440F00300FDF7C5F9A188BE
:1096F8002248002201F086FB08B1FDF7ADFCA188E5
:109708001F4800F0D3FB08B1FDF7A6FC0120FEF7C7
:109718008DFE002002B0BDE81040FEF793BE144B4A
:1097280014481849C01AC008000440F00300FDF7A7
:10973800A3F902B0BDE81040FFF7A6BF00F1080189
:109748008088FFF74BFF0028BCD002B0BDE810406E
:10975800FDF782BC002380888DF8043001A98DF8BC
:109768000530FFF73FFF0028ACD0FDF775FCA9E7EF
:10977800C4B40200ECB402000BBD0200282D002086
:10978800001E002016BD02000D2807B50BD1104899
:10979800019101F009FB019A50B143F20202904293
:1097A80013D0082811D003B05DF804EBFDF754BCC2
:1097B800084B09480949C01AC008000440F00300D2
:1097C80003B05DF804EBFDF75BB903B05DF804FB8B
:1097D800282D0020C4B40200ECB4020024BD02000D
:1097E8000378062B03D1406808B1FDF735BC7047F4
:1097F8001FB54FF480410020FCF782FF08B1FDF748
:109808002BFCFCF7B1FEFDF7E5FC08B1FDF724FCE5
:109818000120FEF732FE3B4840F233320121FDF7CA
:10982800ADFB08B1FDF718FCFEF73EFB08B1FDF7EC
:1098380013FC01F03FFB08B1FDF70EFC002369465D
:109848000120009301F0C2FB08B1FDF705FC684652
:1098580001F05EFC08B1FDF7FFFB1022002168460D
:1098680001F07DFD0123284A28488DF80430694617
:109878008DF80C3001F076F808B1FDF7EDFB2348C0
:109888000022012101F056F808B1FDF7E5FB204A56
:109898001E48002101F024F808B1FDF7DDFB1D4842
:1098A800002100F0E1FC08B1FDF7D6FB1A4B1B4C78
:1098B80000936846019400F0BBFA08B1FDF7CCFBB1
:1098C800174B1848CDE900346946174B029301F04D
:1098D800DFF908B1FDF7C0FB144B15481549C01A4C
:1098E800C008000440F00300FDF7C6F8FFF7CCFEFF
:1098F8000020FEF79BFDFCF75DFF0028FBD1FEF77B
:10990800E9FAF8E7E01D0020E9970200542D00204D
:1099180070BD0200402D0020F5950200E81D0020D2
:1099280001960200282D0020F1950200C4B402001F
:10993800ECB402003BBD020070B5E8B14AB116882C
:109948000024B44203D305196D789D4208D0A14282
:1099580001D8002010E0055D01352C44A4B2F0E7E1
:10996800A142F6D9005D0138A31C80B29DB210FA5D
:1099780083F38B42EDDC158070BDF7B500230646F6
:10998800ADF80630144612B9002003B0F0BD092323
:109998000DF10602FFF7D0FFBDF806700546002F4F
:1099A800F2D00028F0D0204601F033FDA84202464C
:1099B800EAD1F119204601F06FFCB0FA80F04009B5
:1099C800E3E70AB1FDF72CBFFDF733BF73B501918B
:1099D800019C06466CB100252C46294601A8FDF7D6
:1099E80032FF18B106EB440301349D800135142D74
:1099F800F3D13046346002B070BD00002DE9F04765
:109A080003888488103B8CB005460A2B21D8DFE8F0
:109A180003F0064020202020202020654700DFF8A2
:109A2800E880D8F80830DB430093D8F8041068467B
:109A3800FDF735FF009901A8FFF7C8FF0DF10809E8
:109A48000027019B9F4207D3132C12D90420FDF74E
:109A580003FB0CB0BDE8F08739F802AB00260136ED
:109A6800514608EB8600FDF7E4FE1E2EF7D10137BC
:109A7800E7E71F482146FDF7D3FE1E482146FDF7BC
:109A8800CFFEEB7B012BE4D01B482146FDF7C8FE37
:109A9800DFE7174821460CB0BDE8F047FDF7C9BE1F
:109AA800027A16483F2A4FEA1215214694BF00222F
:109AB8000122FFF786FF022D94BF002201221048E1
:109AC8002146FFF77EFF012D0E4894BF0022012298
:109AD80021460CB0BDE8F047FFF773BF037A002BAF
:109AE800B7D1427A0548C2F3C0022146F1E700BF68
:109AF800C42D0020C02D0020C82D0020D42D00200A
:109B0800D02D0020CC2D0020BC2D002030B50B4BD3
:109B180019680B4B0022914201D1002009E09D7881
:109B28008478A54206D11D880488A54202D1054B38
:109B3800186830BD01320433EDE700BF402E002025
:109B4800442E0020382E00202DE9F84F90F8C6A2A8
:109B58004FF0760B04460AFB0B0088469146FFF748
:109B6800D5FF074668B3D4F8CC52052D29D804EBA5
:109B7800C5165A46A6F8D2920BFB0A4106F535706F
:109B880001F0C4FBB8F1000FC6F84C730E4F14BFB8
:109B98000023022386F8D0323B6801359D42C4F881
:109BA800CC520ED104F534750026EB6F2846984741
:109BB8003B6801369E4205F18005F6D30023C4F8C0
:109BC800CC32BDE8F88F00BF402E002030B5A1B0E0
:109BD80004460D467C22002101A801F0C0FB0323A6
:109BE8008DF80430044BADF806501B6802940BB195
:109BF80001A8984721B030BD382E00202DE9F0414A
:109C0800074691F8C60276234FF00008A0B081F805
:109C1800C88200FB03100C461546FFF777FF06467F
:109C280060B17C22414601A801F099FB01238DF81F
:109C38000430ADF80650029701A8B04729462046DF
:109C480020B0BDE8F041FFF7C1BF000030B50446C1
:109C58008BB00D462022002102A801F080FB94F869
:109C6800C53294F8C61213B3013BDAB276234B43DC
:109C7800122000FB023323445B8A01339BB2ADF808
:109C88000430762303FB01412A460B89ADF80630E0
:109C980003238DF80830019BCDE90543064B049357
:109CA800064B02A9186800F0EDFC0BB030BD762316
:109CB80003FB0143DB88E2E7059C02005C2E0020E1
:109CC800F0B5044689B020220D466846002101F00F
:109CD80046FB94F8C7321E4A01331268DBB293423E
:109CE80084F8C7324FF000022AD294F8C632194FCE
:109CF80084F8C5220133DBB2762113FB01F057F853
:109D0800237084F8C632261827504B433271E35823
:109D1800CDF81230104B02930222104B8DF8002020
:109D28000122ADF81020186803942A46694600F00D
:109D3800A9FC18B12A462146FFF760FF09B0F0BD1B
:109D480084F8C82229462046FFF740FFF6E700BFFF
:109D5800402E0020442E0020059C02005C2E00208E
:109D68002DE9F047044688B00D461646002120220A
:109D7800684601F0F4FA94F8C6C294F8C51276233E
:109D88001CFB03F2A0184FF0120E07791EFB0123EB
:109D980001F1010C0A33BC4523441CD004F11C0C0E
:109DA80000F1220807F1FF399444CAB2974216D944
:109DB80089451B8919D00EFB01FA013338F80A20AE
:109DC80093422AD10CEB0A0394F8C522013284F895
:109DD800C5220131E9E71B890289934208D1012391
:109DE8002B70002008B0BDE8F0870289934218D094
:109DF80001339BB2ADF810300B4B029300210B4B93
:109E0800297004218DF80010ADF812201868039409
:109E18003246694600F036FCE4E7013A9BB292B25A
:109E2800E8E70023D0E700BF059C02005C2E002075
:109E380010B570B1026862B1436853B10649002099
:109E48000860064901240C7005490A60054A136038
:109E580010BD0E20FCE700BF402E00203C2E002045
:109E6800382E00205C2E002010B5044680B10C4B23
:109E78001B787BB1FFF74AFE70B90A4A1368052BB5
:109E88000CD80949246841F823400133136010BDF8
:109E98000E20FCE70820FAE70020F8E70420F6E7A0
:109EA8003C2E0020402E0020442E0020F0B50D4608
:109EB8008BB0044600283BD0204B1B78002B39D0B0
:109EC8001F4B1B68002B35D090F8C812002933D1DE
:109ED8004FF4BA621B4F019101F041FA0199202217
:109EE80002A801F03CFA3868294600F06BFCE8B992
:109EF800154BC4F8CC0284F8C502A4F8C602186849
:109F0800206002238DF808300126104BCDF81A0086
:109F1800A4F8CA523868ADF818602A4602A9059410
:109F2800049300F0AFFB08B984F8C8620BB0F0BD29
:109F38000E20FBE70820F9E71120F7E73C2E002068
:109F4800402E00205C2E0020442E0020059C02009C
:109F58002DE9FF410C46054660B159B1974B1B7876
:109F680043B10388322B67D007D8112B00F0188132
:109F7800302B1FD004B0BDE8F081332BFAD1828892
:109F8800B1F8CA329342F5D1C08891F8C6C291F8A7
:109F9800C562002800F0C080762101FB0C41002337
:109FA80009798DF80F30731C8B4200F0E68084F835
:109FB800C532A5E08388B1F8CA229A42DAD1C388AB
:109FC8007BBB91F8C632762202FB03130269C3F801
:109FD800062091F8C432827A1344062B0EDC81F8ED
:109FE800C432A9882046FFF731FE0028C2D0AA88CB
:109FF800214604B0BDE8F041FFF700BE062381F812
:10A00800C4326F486F4B7049C01AC008000440F052
:10A0180002000190FCF730FD6C490198FCF72CFD1B
:10A02800DFE720460021FFF78FFDA988204604B00E
:10A03800BDE8F041FFF744BE8288B1F8CA329A42BF
:10A0480098D1C388002B57D191F8C672762317FB95
:10A0580003F701EB0708837A98F804603344062B6A
:10A0680025DC88F80430122212FB0672334605F10B
:10A078000C012244002098F80460B34201F10A015F
:10A0880002F1120227D31222013B02FB034394F888
:10A09800C62276213B4401FB0242598A1389994220
:10A0A8002AD2062E28D0A98884F8C5629AE7062302
:10A0B80088F804304248434BCA5B4549C01AC00877
:10A0C800000440F002000190FCF7DAFC41490198D5
:10A0D800FCF7D2FCC7E751F80A6C42F8086C51F853
:10A0E800066C42F8046C31F8026C1680508090803F
:10A0F800D08010810133BEE7002384F8C532AA88D6
:10A108000DF10F012046FFF72BFE002842D0AA8848
:10A118002146FFF773FD2DE7762303FB0CF3122787
:10A1280007FB0633B5F80AE0294623447045BFF417
:10A1380033AFCF89A7F52457082F08D8DFE807F0F1
:10A1480014170507070707071A008F899F829F8A38
:10A158003FB1DF8A2FB11F8B1FB15F8B002F7FF4B8
:10A168001BAF01300631E1E78F89DF82EFE78F8986
:10A178001F83ECE78F895F83E9E701238DF80F30B0
:10A188002046AA880121FFF7DFFCA9882046FFF7AF
:10A1980097FDEFE69DF80F30002B3FF4EBAEEFE7AD
:10A1A800B1F8CA3282889A4201BF002381F8C832C6
:10A1B8004FF6FF73A1F8CA32DCE600BF3C2E002040
:10A1C80004B50200C4B402007EBD02009DBD0200B9
:10A1D800E2BD020028BE020090DF7047A5DF70478D
:10A1E800B5DF70477FB50023ADF80810ADF80A1049
:10A1F8006A4602A90646ADF80C30ADF80E30009359
:10A20800ADF80430FFF7E8FF054600B3114B124CD8
:10A21800E41AE408FDF7A2FF240444F0010403460D
:10A228000E4932462046FCF734FCBDF80020BDF844
:10A23800023052EA030103D009492046FCF729FC01
:10A24800BDF804201AB107492046FCF719FC284636
:10A2580004B070BDC4B4020024B502008EBE020072
:10A26800D8BE020017BF020078B14FF01713036081
:10A278001B2303711723C380038141F61B3200237C
:10A28800016143818281184670470E2070470000A3
:10A2980013B5034680880C46B8B91A88242A00F0FA
:10A2A8009B8014D8112A74D0232A00F0A680102A83
:10A2B8003ED0A37A4BB1E1880020FFF78FFF00283A
:10A2C80040F0A1804FF48073638102B010BD3A2A38
:10A2D80067D0552AEDD1DB88C988A072172B38BF03
:10A2E80017238B4228BF0B462381FFF779FF60B104
:10A2F800FDF734FF4D4B4E4902464E481B1ADB080A
:10A308001B0443F00100FCF7BBFBE27A002AD0D122
:10A318002369002BCDD040F67721ADF802202289A1
:10A32800ADF80010ADF80420694620469847C0E70C
:10A33800DB7B0A790A73012B13D0022B14D0E18836
:10A3480023898B4205D20020FFF748FF70B901230B
:10A35800E372217B637B8B42ABD20020FFF742FF85
:10A36800A7E70B88E380EAE74B88FBE7112802D1CF
:10A378000123A372EDE7FDF7F1FE2C4B2E490246AF
:10A388002C481B1ADB081B0443F00100FCF778FB80
:10A39800DFE71723CB800B8141F61B3348818B8184
:10A3A80087E75B89CA88934228BF1346172B0A6937
:10A3B80038BF17230B8162B1C97A51B140F67721B2
:10A3C800ADF80010ADF80200ADF80430694620463B
:10A3D8009047002363816CE71A7A0B694A73002B54
:10A3E8003FF467AF4DF67A218DF80500ADF80010FF
:10A3F800ADF802008DF8042096E7197A237B99427C
:10A4080028BF1946AAE711283FF45FAFFDF7A6FE5B
:10A41800064B0949024607481B1ADB081B0443F090
:10A42800010002B0BDE81040FCF72ABB24B50200C9
:10A438009EBF0200C4B402006DBF02009BDF7047DC
:10A448009DDF70479EDF7047A1DF7047A3DF70472D
:10A45800AEDF704730B5048800239AB2944206D91B
:10A46800456835F813508D4203F10103F5D11046C4
:10A4780030BD8B6910B50C461988102913D80231E4
:10A4880089B2FDF7BAFC606078B1A16900230222A5
:10A49800FDF7F4FCA26960681288E1690223FDF700
:10A4A800EDFC002010BD0920FCE70420FAE710B5F8
:10A4B8000C46C98A10290AD8FDF79FFC606040B194
:10A4C800E28AA1690023FDF7D9FC002010BD09200C
:10A4D800FCE70420FAE70000F0B58BB00446002240
:10A4E800C068124E0DF10601FDF790FD142508B164
:10A4F8000BB0F0BDBDF80630A76805FB0377002256
:10A5080002A93846FDF782FD30B1E06800220DF15E
:10A518000601FDF77BFDEAE79DF8083056F8233081
:10A52800002BECD00398FDF752FCE8E74CC0020082
:10A53800F7B505460C4C0D480092241AE40824048B
:10A548000B460F4616460A492A7844F00100FCF7E4
:10A55800AAFAAB6833B1E9683A46304603B0BDE8B9
:10A56800F040184703B0F0BD2CB50200C4B4020097
:10A57800DABF0200F0B58FB00D46012206A90646E3
:10A58800FDF744FD044690B99DF81830052B65D8B1
:10A59800DFE803F0030F1C24292EBDF82A20BDF89C
:10A5A80028102846FFF750FF0446112C40D10FB061
:10A5B800F0BD02A90798BDF82E200C910023FDF7E5
:10A5C80067FC0AA92846FFF741FFEDE7BDF8281008
:10A5D8000DF12A022846FFF731FFE5E70AA92846C8
:10A5E800FFF72EFFE0E70AA92846FFF72BFFDBE776
:10A5F8000DF1060402AB214607980D9302220023B1
:10A60800FDF746FCBDF806200D9907980C94022327
:10A61800FDF73EFC0AA92846BDF80670FFF718FFAB
:10A6280004460028C1D1BDF80630BB4218BF0C242F
:10A638009DF818200F4B53F8223013B10798FDF7F7
:10A64800C6FB002206A93046FDF7E0FC002CAED080
:10A658002246294606A8FFF76BFFA8E70648074BDE
:10A6680007491B1ADB081B0443F00200FCF704FA35
:10A67800DEE700BF4CC00200C4B402002CB50200E3
:10A6880024C002002DE9F8430F461446054620B9B8
:10A698004FF00E084046BDE8F8830029F8D0FFF7D0
:10A6A8001BFF3B78052B6AD821462846FFF7D2FEC8
:10A6B8002B88834263D014264643A8683044FDF7AC
:10A6C8009EFC002860D03B78052B3BD8DFE803F0E0
:10A6D8000311171E242A7A8A398A2046FFF7B4FE06
:10A6E800112851D058B3024621463846FFF720FFBB
:10A6F80025E007F110012046FFF7A8FEF0E7398AA8
:10A7080007F112022046FFF799FEE9E707F1100169
:10A718002046FFF795FEE3E707F110012046FFF713
:10A7280091FEDDE7BB6907F110012046B3F8008010
:10A73800FFF78EFE30BBBB691B8843450DD14FF038
:10A748000008A7E71B4B1C481C49C01AC008000496
:10A7580040F00200FCF790F9F1E70C20C3E7286904
:10A76800002895D0394698478046A0B192E73B78B3
:10A7780059F82330BBB17868FDF729FB13E04FF097
:10A78800070887E71128AED1DFF834903B7859F8ED
:10A798002330002BE3D1A86839463044FDF7DAFBB3
:10A7A80080460028E3D1A86821463044FFF7E2FE3E
:10A7B80070E700BFC4B402002CB5020024C0020038
:10A7C8004CC00200F8B50D46044678B3FFF784FE86
:10A7D80029462046FFF73EFE2288824211D00020FB
:10A7E800F8BD616831F81310814203F101030BD001
:10A7F800208800234FF6FF769AB282420BD30420BA
:10A80800EEE700234FF6FF7099B28A42E9D8206933
:10A81800FDF7DBFAECE761685A0001EB43078A5A57
:10A82800B24203F10103E7D13D80D8E70E20D7E714
:10A8380037B50C4608B301B30588112D15D18188A9
:10A848002046FFF707FE2388ADF80600834214D0A0
:10A85800112D14D163684FF6FF7223F810200DF103
:10A868000601E068FDF776FB07E0A5F130031F2B32
:10A87800E5D9A5F150031F2BE1D903B030BDA3687A
:10A88800142202FB0030FFF775FEF6E78ADF7047F7
:10A898008BDF70478CDF704730B590F8233089B074
:10A8A80004460D46D3B190F82C300193FFF7F0FF22
:10A8B8001422002103A800F052FD019B04F1240298
:10A8C80004F12E01A81CFFF7E5FF06238DF80C30D4
:10A8D800049018B1E36B0BB103A8984709B030BDD9
:10A8E80070B515460446E8B1E2B1E9B9104600F082
:10A8F80090FD0138C0B21F2818D894F82060BEB95E
:10A908002946204600F05EFD58B1012384F8203026
:10A91800284600F07EFD29460246204600F0F6FC57
:10A92800304670BD0E20FCE70720FAE70C20F8E758
:10A938000420F6E768B1CB060DD011F0010116BF6F
:10A94800012380F8211080F8213080F8222000208F
:10A9580070470E2070470720704790F82E00C0F30C
:10A96800C000704738B50D460446002843D0C2637E
:10A978000021232200F0F3FC65B32B7984F82330FF
:10A988002B7B84F82C302B68D3B104F12E0203F111
:10A998000C0153F8040B42F8040B8B42F9D11B88C5
:10A9A8001380AA680AB31068516804F1240303C32A
:10A9B80004F1400323661F23A4F86430002038BD47
:10A9C800E28DA38602F0E30242F48272E2850B4A2A
:10A9D8002263E6E7E38DA58603F0E30343F482737D
:10A9E800E385064B236384F82350054A4FF0C87368
:10A9F800C4E90923DCE70E20E1E700BFA00050000E
:10AA08000600180010B5044686B048B31422002189
:10AA180001A800F0A4FCFFF73BFF2046FFF79DFFCD
:10AA280030B1E36B23B101228DF8042001A89847C7
:10AA380004F1600104F12E00FFF728FF044630F00E
:10AA480008000BD00748084B08491B1ADB081B04F1
:10AA580043F001002246FCF713F8204606B010BD6B
:10AA68000E20FBE7C4B4020014B5020064C0020063
:10AA78002DE9F04F054687B035F8082B1D2A064604
:10AA88000C4620D007D8102A00F095801B2A7AD0CF
:10AA980007B0BDE8F08F202AFAD11422002101A8BE
:10AAA80000F05DFCE26B002AF2D0B068696805230B
:10AAB8008DF804302E3402AB059403C3297A19703B
:10AAC80001A89047E4E71022002101A800F047FC04
:10AAD80004F12E0320460593FFF73FFF04F16008B9
:10AAE80078B102238DF8043001A8E36B02959847EA
:10AAF80041460020FFF7CAFE29462046FFF7CCFE54
:10AB0800C6E794F8210094F8229088B394F820A01E
:10AB1800B6F824B0274604EB4A1A574518D1002046
:10AB2800034601220295B9F1000F24D09A4226D19A
:10AB380000238DF8043029462046FFF7ADFEE36B6D
:10AB48000BB101A8984741460020FFF79FFE9FE7F9
:10AB58003A46306A5946FEF710FF20370028DCD005
:10AB68009DF80C3043F001038DF80C300123D8E731
:10AB780003460246D6E710B18DF80490DBE70323BD
:10AB88008DF80430DBE71422002101A800F0E7FB70
:10AB9800327A012A7FF47CAFE36B002B3FF478AF65
:10ABA80004212E348DF8041005948DF808200DEB3F
:10ABB800010098476CE7002101A800F0D0FB0723AB
:10ABC8008DF80430B388ADF80C3004F12E030593EA
:10ABD800E36B0295002B3FF45BAF01A8E9E762DF66
:10ABE8007047CB6803B1184770472DE9F0430A78DE
:10ABF80085B00346002A39D18C8841F2235084421B
:10AC080034D18C79187C844230D101208DF804002D
:10AC180091F808E04888BDF80C60BDF80A50BDF806
:10AC28000840ADF806001746104641F2245841F294
:10AC3800255986451DD80FB1ADF80C601AB1ADF88D
:10AC48000A50ADF8084019884FF6FF72914209D0B2
:10AC58005A683AB95A882AB90298BDF80C20C3F83C
:10AC68000200DA809A6801A91846904705B0BDE845
:10AC7800F083B1F80EC0C44506D0CC4501D1CE8AC8
:10AC8800012701301231D4E7CD8A0C8B0122F8E775
:10AC9800F0B5194A87B002AD04460B4602F1100C14
:10ACA8002F46106851682E4603C60832624535465D
:10ACB800F7D1FCB1F3B11968E1B15A68D2B10020FB
:10ACC8009B68A1604FF6FF75C4E900506261E360BC
:10ACD80004F110013846FFF782FF48B9237C8DF84C
:10ACE800063001A841F22353ADF80430FFF7BCF851
:10ACF80007B0F0BD0E20FBE79BC002001FB503465E
:10AD08000846D9B1D3B11A88112A19D0392A15D1D0
:10AD180009889A888A4211D15C8981888C420DD130
:10AD2800D98901290AD11B7C8DF8083002218DF8B8
:10AD380004108368ADF8062001A9984704B010BD37
:10AD48009A880B889A4202BF4FF6FF720023C1E926
:10AD58000023F3E700B58BB000B302884FF6FF730A
:10AD68009A421DD000218DF805100E49CDE9041036
:10AD78004188ADF81A104FF40031079101A9012359
:10AD8800089140698DF8043002A98DF808308DF8D3
:10AD98001830FFF777FC0BB05DF804FB0E20FAE7DC
:10ADA8000820F8E7EBAB020030B58BB004468DF80D
:10ADB800071008B305884FF6FF739D421ED0202266
:10ADC800002102A800F0CBFA0D4A60690123CDE901
:10ADD80004248DF80830E288ADF81E300DF1070321
:10ADE800ADF81A2008932A46022302A98DF81830D4
:10ADF800FFF748FC0BB030BD0E20FBE70820F9E751
:10AE0800EBAB020048B1018022B11368C0F80230F0
:10AE18009388C3804069FFF7D5BC0E20704710DFC8
:10AE28007047000013B5044609496846FDF73CF928
:10AE3800019808B902B010BDD0E90021204690471A
:10AE480018B16846FDF73AF9F2E71120F2E700BFBA
:10AE5800B8C0020013B5044607496846FDF724F94F
:10AE6800019B0BB902B010BD2046D3E900219047E1
:10AE78006846FDF723F9F3E7D0C002000B4991F8C3
:10AE880016335A09EC231341DB0706D5084B9A6899
:10AE98003AB94FF480030B60704742F20200FCF7A6
:10AEA800DBB81A6842F480021A60704700E100E0DB
:10AEB800842A0020F7B5194F3C7864BB184E012549
:10AEC80020463570FFF7AEFF112821D02046FFF746
:10AED800C1FF144B8DF80340186801900DF1030071
:10AEE800FCF79CFA104901A8FFF799FF0446B0FA4D
:10AEF80080F0400938709DF80300FCF7B3FA3CB9BC
:10AF08000A4B34701C70FFF7B9FF2846FFF7A2FF01
:10AF1800204603B0F0BD0824FAE700BF612E0020E8
:10AF2800602E0020B3C002007D700200622E002057
:10AF3800014B1878704700BF612E002007B50849FB
:10AF48006846FDF7B1F8019B13B903B05DF804FB3F
:10AF5800D3E9002090476846FDF7B0F8F3E700BF53
:10AF6800C4C00200FFF7EABF60DF704769DF7047BF
:10AF780061DF704730B5134B1B7891B0FBB1124DB0
:10AF880034240DF1020103A8ADF80240FFF7F0FFE9
:10AF980070B9294601A8FDF787F8029B002BF0D06D
:10AFA80003A8D3E90021904701A8FDF787F8F4E743
:10AFB800052804D011B0BDE83040FCF74DB811B0F9
:10AFC80030BD00BF632E002014C3020030B50C460C
:10AFD80085B0002900F089800023CDE90133444A77
:10AFE800039301230A608DF804008DF8063001A947
:10AFF80006232020ADF80830FFF7B8FF60B1FDF751
:10B00800ADF83C4B3C4902463C481B1ADB081B0484
:10B0180043F00100FBF734FD0023CDE9013303932E
:10B02800226840F2011301A94020ADF80630FFF76D
:10B038009DFF60B1FDF792F82E4B314902462F482B
:10B048001B1ADB081B0443F00100FBF719FD002362
:10B05800CDE90133039322680A2301A901208DF861
:10B068000430FFF783FF60B1FDF778F8214B2549DD
:10B07800024622481B1ADB081B0443F00100FBF7B9
:10B08800FFFC0023CDE902332268F82301A9A1209F
:10B098000193FFF76BFF60B1FDF760F8154B1A4994
:10B0A800024616481B1ADB081B0443F00100FBF795
:10B0B800E7FC00252268039501A9A020CDE90155E8
:10B0C800FFF754FF034668B1FDF748F8094B0F49ED
:10B0D80002460A481B1ADB081B0443F00100FBF771
:10B0E800CFFC2B46184605B030BD0E23FAE700BF4B
:10B0F800B81D00203CB50200DCC00200C4B4020048
:10B1080022C102006EC10200BAC102000BC20200D5
:10B1180073B505460668FFF727FF2B68B342044658
:10B128001DD91A481A4B1B491B1ADB081B0443F08C
:10B1380002000190FBF7A0FC2B68174901983246E2
:10B14800FBF7A7FC4FF080532A68D3F80C3113495A
:10B1580001989B0203F100539A1AFBF791FC2CB952
:10B168000F4B01221A70204602B070BD2046FCF732
:10B17800F5FF074B0B49024604481B1ADB081B0462
:10B1880043F00100FBF77CFCEDE700BFC4B402000C
:10B198003CB502005EC202008DC20200BEC20200BF
:10B1A800632E0020E8C202004BDF70471FB50E4C2B
:10B1B80001A8FFF7F9FF70B9214602A8FCF774FF50
:10B1C800039B002BF4D00198D3E90021904702A8F3
:10B1D800FCF774FFF4E7052804D004B0BDE810407C
:10B1E800FBF73ABF04B010BD2CC302007F2805D876
:10B1F800034A044B105C5B5C1840704700207047A2
:10B2080044C30200C4C30200A0F16103192B98BF14
:10B2180020387047A0F14103192B98BF20307047A0
:10B228007F299ABF017001206FF02E00704700BF80
:10B238005AB10A787F2A0AD800B102600021501A50
:10B24800C3E9001118BF01207047104670476FF01E
:10B258002E007047A0F16103192B98BF2038704762
:10B26800A0F14103192B98BF203070477F2805D8DB
:10B27800034A044B105C5B5C184070470020704721
:10B2880044C30200C4C30200024B5B689B680921E7
:10B298001B681847D02300206AB30F2A70B511D84D
:10B2A800013A2FD0034600EB020C01E09C4524D064
:10B2B8008E461C4611F8012B13F8010B9042F5D06D
:10B2C800801A70BD40EA010C1CF0030F04460B46BF
:10B2D80006D0013AE6E7043A042A20461946DFD99F
:10B2E800194620460E680568B54203F1040304F1C7
:10B2F8000404F0D0D4E71046704760789EF8012027
:10B30800801A70BD00780A78DAE700BF844640EA00
:10B31800010313F0030F18D18446202A0BD32DE91B
:10B32800F007B1E8F807A0E8F807A2F12002202A00
:10B33800F7D2BDE8F007042A07D351F8043B40F8D8
:10B34800043BA2F10402042AF7D2002A05D011F81E
:10B35800013B00F8013B013AF9D160467047844649
:10B36800002A2DD010F0030F04D000F8011B013A79
:10B3780026D0F7E7C9B241EA012141EA0141202A72
:10B3880012D3A2F120022DE9F0030B460C460D461C
:10B398000E460F4688468946A0E8FA03203AFBD2B3
:10B3A800BDE8F00320320BD0042A05D340F8041B73
:10B3B800043A05D0042AF9D200F8011B013AFBD15E
:10B3C8006046704710F0030F19D111F0030F16D122
:10B3D8002DE970004FF001364FF0803350F8044BE0
:10B3E80051F8045BAC4205D1A4EB060525EA040537
:10B3F8001D40F3D0A0F10400A1F1040170BC10F8C5
:10B40800012B11F8013BD21A01D1002BF7D11046BC
:10B41800704700F1010110F0030F11D010F8012B53
:10B42800002A23D010F0030F0AD010F8012B002AAD
:10B438001CD010F0030F03D010F8012B002A15D0F0
:10B448002DE970004FF001324FF0803350F8044B73
:10B45800A4EB020525EA04051D4000D1F6E7A0F19A
:10B46800040070BC10F8012B002AFBD1A0EB0100EE
:02B4780070471B
:08B47C00018502000000000040
:10B48400059A02000000000065950200000000001B
:10B4940039A80200E81D0020599F0200001E002068
:10B4A40099A20200402D002079AA0200542D002008
:10B4B40005AD0200282D0020B59602000000000012
:10B4C40096BC0200000000009CBC020000000000CA
:10B4D400A3BC020000000000A7BC020000000000A2
:10B4E400ACBC0200000000000EB602000000030322
:10B4F400E4B60200000000000DB7020000000000E6
:10B5040082BE02000000030391C002000000030396
:10B5140088C002000000030390BC02000000000089
:10B52400CDBF0200000003033FC00200000003037C
:10B53400ABC002000000030305C3020000000303C4
:10B5440020C302000000030376B7020000000000DD
:08B554008CB7020000000000AA
:10B55C0028240020F0240020F8240020302400208F
:10B56C00180000009C2B0020642C00206C2C002068
:08B57C00A42B002018000000C0
:10B58400702C00206C2C0020010000000200000040
:04B5940001000000B2
:08B598008185020000000000A3
:10B5A0007DAF020000000000B5B102000000000005
:10B5B000E0B5020000000000ECB50200CC1D002048
:10B5C000FFFFFFFFFFFFFFFFFFFFFFFFFFFFFFFF8B
:10B5D00000000000000000000000D601060100008D
:10B5E000D96402003D6502008964020075617274CD
:10B5F0005F6C6F675F6261636B656E64004261637D
:10B600006B656E647320666C757368656400617049
:10B61000700000001C2900207F0000009C290020F1
:10B620001B5B313B33316D0025734C6F67732064B6
:10B63000726F70706564202825642925730D0A00D7
:10B640001B5B306D002573003C25733E2025733A4B
:10B650002000202530327800202020007C00256347
:10B66000001B5B313B33306D001B5B313B33326D74
:10B67000001B5B313B33336D001B5B313B33346D5F
:10B68000001B5B313B33356D001B5B313B33366D4B
:10B69000001B5B313B33376D007761726E696E67FB
:10B6A00000696E666F0064656275670040B60200EF
:10B6B00061B6020020B6020069B6020071B602004F
:10B6C00079B6020081B6020089B6020091B6020086
:10B6D00000000000FAB6020099B60200A1B602000E
:10B6E000A6B602006170705F627574746F6E0000C0
:10B6F000C0290020466174616C206572726F72000F
:10B7000053797374656D2072657365740061707030
:10B710005F74696D657200000100060000000000A2
:10B72000FC290020E970020052544320696E7374B2
:10B73000616E636520616C726561647920696E6910
:10B740007469616C697A65642E005254433A2069C9
:10B750006E697469616C697A65642E00000000008E
:10B760000338FDD870473031323334353637383905
:10B770004142434445467077725F6D676D740000C7
:10B78000C4B40200C4B4020004000000736F7274F9
:10B790006C697374004E52465F535543434553538F
:10B7A000004E52465F4552524F525F5356435F48D8
:10B7B000414E444C45525F4D495353494E47004E0C
:10B7C00052465F4552524F525F534F46544445567E
:10B7D0004943455F4E4F545F454E41424C454400FE
:10B7E0004E52465F4552524F525F494E5445524E5B
:10B7F000414C004E52465F4552524F525F4E4F5F92
:10B800004D454D004E52465F4552524F525F4E4F8E
:10B81000545F464F554E44004E52465F4552524F7C
:10B82000525F4E4F545F535550504F525445440051
:10B830004E52465F4552524F525F494E56414C4917
:10B84000445F504152414D004E52465F4552524F67
:10B85000525F494E56414C49445F53544154450050
:10B860004E52465F4552524F525F494E56414C49E7
:10B87000445F4C454E475448004E52465F45525235
:10B880004F525F494E56414C49445F464C414753E5
:10B89000004E52465F4552524F525F494E56414C00
:10B8A00049445F44415441004E52465F4552524F15
:10B8B000525F444154415F53495A45004E52465FDE
:10B8C0004552524F525F54494D454F5554004E52C8
:10B8D000465F4552524F525F4E554C4C004E5246B9
:10B8E0005F4552524F525F464F5242494444454E83
:10B8F000004E52465F4552524F525F494E56414CA0
:10B9000049445F41444452004E52465F4552524FB3
:10B91000525F42555359004E52465F4552524F5264
:10B920005F434F4E4E5F434F554E54004E52465F5D
:10B930004552524F525F5245534F55524345530063
:10B940004E52465F4552524F525F4D4F44554C4503
:10B950005F4E4F545F494E495449414C495A454402
:10B96000004E52465F4552524F525F4D5554455816
:10B970005F494E49545F4641494C4544004E52464A
:10B980005F4552524F525F4D555445585F4C4F439F
:10B990004B5F4641494C4544004E52465F4552522A
:10B9A0004F525F4D555445585F554E4C4F434B5F7A
:10B9B0004641494C4544004E52465F4552524F5213
:10B9C0005F4D555445585F434F4E445F494E49546F
:10B9D0005F4641494C4544004E52465F4552524FE6
:10B9E000525F4D4F44554C455F414C52454144597F
:10B9F0005F494E495449414C495A4544004E5246CC
:10BA00005F4552524F525F53544F524147455F4634
:10BA1000554C4C004E52465F4552524F525F41507A
:10BA2000495F4E4F545F494D504C454D454E54452E
:10BA300044004E52465F4552524F525F4645415474
:10BA40005552455F4E4F545F454E41424C45440070
:10BA50004E52465F4552524F525F494F5F50454EDE
:10BA600044494E47004E52465F4552524F525F4442
:10BA700052565F5457495F4552525F4F5645525296
:10BA8000554E004E52465F4552524F525F445256F9
:10BA90005F5457495F4552525F414E41434B004E00
:10BAA00052465F4552524F525F4452565F54574977
:10BAB0005F4552525F444E41434B004E52465F45F4
:10BAC00052524F525F424C455F495053505F52585B
